:020000040800F2
:1000000000500020A90F0008450E00084B0E000804
:10001000510E0008570E00085D0E00080000000099
:10002000000000000000000000000000630E000857
:100030006F0E0008000000007B0E0008870E00080D
:10004000F10F0008F10F0008F10F0008F10F000890
:10005000F10F0008F10F0008F10F0008F10F000880
:10006000F10F0008F10F0008F10F0008F10F000870
:10007000F10F0008F10F0008F10F0008F10F000860
:10008000F10F0008F10F0008F10F0008F10F000850
:10009000F10F0008F10F0008F10F0008F10F000840
:1000A000F10F0008F10F0008F10F0008F10F000830
:1000B000950E0008F10F0008F10F0008F10F00087D
:1000C000F10F0008F10F0008F10F0008F10F000810
:1000D000F10F0008F10F0008F10F0008F10F000800
:1000E000F10F0008F10F0008F10F000800000000F8
:1000F0000000000000000000000000000000000000
:0C01000000000000000000005FF808F1A3
:10010C0010B5054C237833B9044B13B10448AFF345
:10011C0000800123237010BD6C0000200000000043
:10012C004C26000808B5034B1BB103490348AFF339
:10013C00008008BD00000000700000204C26000864
:10014C0080B483B000AF7860094A7B6852F82330E2
:10015C00012B06D1064A7B68002142F823100123AB
:10016C0000E0002318460C37BD4680BC704700BF2A
:10017C00C400002080B483B000AF7860094A7B686B
:10018C0052F82330012B06D1064A7B68002142F835
:10019C002310012300E0002318460C37BD4680BC19
:1001AC00704700BFD000002080B582B000AF0023A4
:1001BC007B60D9E0704A7B6852F823206F497B68DA
:1001CC0041F823206E4A7B6852F823206A497B68E9
:1001DC0041F823207B68022B20D07B68022B28DC83
:1001EC007B68002B03D07B68012B0BD021E008210E
:1001FC00644801F0EDF903461946614A7B6842F800
:10020C00231017E04FF480615F4801F0E1F90346D9
:10021C0019465B4A7B6842F823100BE004215A48CC
:10022C0001F0D6F903461946554A7B6842F823106B
:10023C0000E000BF514A7B6852F823204E497B688E
:10024C0051F823309A4240F08C804B4A7B6852F82C
:10025C0023204B497B6851F823309A4240F081802F
:10026C00474A7B6852F8232048497B6841F8232091
:10027C00474A7B6852F823300D2B46D00D2B69DC96
:10028C000B2B0DD00C2B65D1404A7B6852F82330D8
:10029C00002B61D13E4A7B680B2142F823105BE0B6
:1002AC003A4A7B6852F82330012B0FD1394A7B68CC
:1002BC00012142F82310384A7B68002142F82310B0
:1002CC00334A7B680C2142F8231051E0324A7B6898
:1002DC0052F823305A1C30497B6841F823202E4AAF
:1002EC007B6852F82330632B38DD294A7B680D215B
:1002FC0042F82310284A7B68002142F82310274A31
:10030C007B68012142F8231028E0204A7B6852F8D0
:10031C002330012B09D11E4A7B680C2142F8231093
:10032C001D4A7B68002142F823101B4A7B6852F857
:10033C0023305A1C18497B6841F82320164A7B68E5
:10034C0052F82330142B0BD1134A7B68002142F84E
:10035C00231005E000BF04E000BF02E000BF00E096
:10036C0000BF7B6801337B607B68022B7FF722AF79
:10037C000837BD4680BD00BFA0000020AC000020A7
:10038C0094000020000C014000080140880000206F
:10039C0000000020C4000020B8000020D000002085
:1003AC0080B500AF01220121074801F028F9012294
:1003BC000221064801F023F901220121034801F032
:1003CC001EF900BF80BD00BF000C014000100140B1
:1003DC0080B500AF174B1B78022B1CD0022B25DCF1
:1003EC00002B02D0012B0BD020E00122012112485E
:1003FC0001F005F900220121104801F000F916E086
:10040C00012201210D4801F0FAF8002202210A48CC
:10041C0001F0F5F80BE001220221074801F0EFF89A
:10042C0000220121044801F0EAF800E000BF00BFFF
:10043C0080BD00BFE900002000100140000C01400D
:10044C0080B500AF344B1B68344A11880122184622
:10045C0001F0D5F8304B5B68304A518801221846C0
:10046C0001F0CDF82C4B9B682C4A91880122184640
:10047C0001F0C5F8284BDB68284AD18801221846C0
:10048C0001F0BDF8244B1B69244A1189012218463E
:10049C0001F0B5F8204B5B69204A518901221846BE
:1004AC0001F0ADF81C4B9B691C4A9189012218463E
:1004BC0001F0A5F8184BDB69184AD18901221846BE
:1004CC0001F09DF8144B1B6A144A118A012218463C
:1004DC0001F095F8104B5B6A104A518A01221846BC
:1004EC0001F08DF80C4B9B6A0C4A918A012218463C
:1004FC0001F085F8084BDB6A084AD18A01221846BC
:10050C0001F07DF8044B1B6B044A118B0122184639
:10051C0001F075F800BF80BD280000200C00002001
:10052C0080B582B000AF7860074A7B6852F8230030
:10053C00064A7B6832F813300022194601F05FF846
:10054C0000BF0837BD4680BD280000200C000020ED
:10055C0080B582B000AF7860074A7B6852F8230000
:10056C00064A7B6832F813300122194601F047F82D
:10057C0000BF0837BD4680BD280000200C000020BD
:10058C0080B584B000AFF860B9607A60FFF758FFAF
:10059C00FFF706FF154B00221A70154B00221A703C
:1005AC00FFF716FF134AFB681360134ABB6813600E
:1005BC00124A7B681360FB68114A82FB03125210CB
:1005CC00DB17D31A1846FFF7ABFFBB680C4A82FB4C
:1005DC0003125210DB17D31A1846FFF7A1FF7868E5
:1005EC00FFF79EFF00BF1037BD4680BDE80000201E
:1005FC00E9000020DC000020E0000020E4000020E6
:10060C006766666680B582B000AF7860894B1B78F0
:10061C00002B00F07281884B1B78022B00F0A3801A
:10062C00022B00F34781002B02D0012B34D041E187
:10063C00824B1B68824A82FB03125210DB17D21AC0
:10064C00804B1B689A4210D07F4B1B687C4A82FB04
:10065C0003125210DB17D21A7A4B1B689A4204D041
:10066C00784B1B681846FFF773FF764B1A687B684C
:10067C001344744A1360734B1B680B2B03DD714BD3
:10068C0000221A6018E16F4B1B68002B80F214815A
:10069C006C4B0B221A600FE1684B1B68684A82FB9B
:1006AC0003125210DB17D21A664B1B689A421CD0ED
:1006BC00624B1B68624A82FB03125210DB17D21A80
:1006CC00614B1B685E4981FB03014910DB17CB1A98
:1006DC009A420AD0594B1B68594A82FB031252109A
:1006EC00DB17D31A1846FFF733FF7A6813469B00C3
:1006FC001A44524B1B681344504A13604F4B1B68EF
:10070C003B2B15DD4D4B01221A604E4B1B681846D6
:10071C00FFF71EFF4B4B1B6801334A4A1360494BD2
:10072C001B680B2B40F3CA80464B00221A60C5E0B5
:10073C00424B1B68002B00F3C180404B3B221A60DC
:10074C00404B1B681846FFF703FF3E4B1B68013BF1
:10075C003C4A13603B4B1B68002B80F2AF80394B3B
:10076C000B221A60AAE0384B1B68354A82FB031235
:10077C005210DB17D21A334B1B689A421CD02F4BEA
:10078C001B682F4A82FB03125210DB17D21A2E4B16
:10079C001B682B4981FB03014910DB17CB1A9A42CA
:1007AC000AD0294B1B68264A82FB03125210DB1716
:1007BC00D31A1846FFF7CCFE7A6813469B001A44EE
:1007CC00214B1B681344204A13601F4B1B683C2BA6
:1007DC003CDD1D4B01221A60184B1B68184A82FB2A
:1007EC0003125210DB17D31A1846FFF7B1FE7A68C2
:1007FC0013469B001A44114B1B6813440F4A136099
:10080C000E4B1B683B2B5BDD0C4B01221A600D4B16
:10081C001B681846FFF79CFE0A4B1B680133094AFC
:10082C001360084B1B680B2B4ADD064B00221A6029
:10083C0046E000BFE8000020E9000020E0000020B6
:10084C0067666666E4000020DC0000202D4B1B6808
:10085C00002B35DA2B4B3B221A602B4B1B682B4A97
:10086C0082FB03125210DB17D31A1846FFF770FEE7
:10087C007A6813469B001A44234B1B681344224A84
:10088C001360214B1B68002B1ADC1F4B3B221A6098
:10089C001F4B1B681846FFF75BFE1D4B1B68013B8B
:1008AC001B4A13601A4B1B68002B09DA184B0B22DE
:1008BC001A6005E000BF04E000BF02E000BF00E0EA
:1008CC0000BF134B1B681846FFF72AFE0E4B1B6824
:1008DC000E4A82FB03125210DB17D31A1846FFF78D
:1008EC001FFE084B1B68094A82FB03125210DB17D0
:1008FC00D31A1846FFF714FE00E000BF0837BD46B8
:10090C0080BD00BFDC000020E0000020676666664A
:10091C00E400002080B500AF0020FFF72BFC03465D
:10092C00002B0CD0234B1B78C3F10103DAB2214B03
:10093C001A70204B1B78012B01D1FFF749FD0020C9
:10094C00FFF7FEFB0346002B19D01A4B1B78012B2B
:10095C002DD1194B1B780133DAB2174B1A70164B89
:10096C001A78164BA3FB021359080B465B000B4479
:10097C00D31ADAB2104B1A70FFF72AFD17E00120D8
:10098C00FFF7DEFB0346002B05D00D4B1B6818460A
:10099C00FFF738FE0BE00220FFF7D2FB0346002BDB
:1009AC0005D0074B1B685B421846FFF72BFE00BFB8
:1009BC0080BD00BFE8000020E9000020ABAAAAAA75
:1009CC005C00002080B500AF414B1B78012B7DD023
:1009DC00FFF7E6FC3F4B00221A703F4B1B683F4A67
:1009EC0082FB03125210DB17D21A3D4B1B683B499A
:1009FC0081FB03014910DB17CB1A9A4216D0364BF8
:100A0C001B68364A82FB03125210DB17D21A354B85
:100A1C001B689A420AD0304B1B68304A82FB031287
:100A2C005210DB17D31A1846FFF792FD2A4B1B689E
:100A3C000133294A1360284B1B683B2B12DD264BD4
:100A4C0000221A60264B1B68244A82FB03125210A8
:100A5C00DB17D31A1846FFF77BFD214B1B680533B8
:100A6C001F4A13601E4B1B683B2B0CDD1C4B0022DA
:100A7C001A601C4B1B681846FFF76AFD194B1B6864
:100A8C000133184A1360174B1B680B2B02DD154BF7
:100A9C0000221A60134B1B681846FFF741FD104BE0
:100AAC001B680E4A82FB03125210DB17D31A18462E
:100ABC00FFF736FD084B1B68084A82FB03125210E5
:100ACC00DB17D31A1846FFF72BFD00E000BF80BDE3
:100ADC00E8000020E9000020DC0000206766666664
:100AEC00E0000020E400002080B500AF00F07CFAAC
:100AFC0000F022F800F0A8F800F05AF80C4801F0C9
:100B0C00C5F9642000F0D0F90A2000F0E9F90B22B5
:100B1C003B211F20FFF734FD064B1B68012B04D132
:100B2C00FFF750FF642000F0BFF9FFF7F3FEF3E787
:100B3C00EC0000203401002080B590B000AF07F12C
:100B4C00180328220021184601F04EFD3B1D0022FF
:100B5C001A605A609A60DA601A610223BB61012341
:100B6C00BB621023FB6200237B6307F1180318465A
:100B7C0000F05EFD0346002B01D000F001F90F23BD
:100B8C007B600023BB600023FB6000233B610023E0
:100B9C007B613B1D0021184600F0CCFF0346002B67
:100BAC0001D000F0EDF800BF4037BD4680BD00001D
:100BBC0080B586B000AF07F1080300221A605A60B6
:100BCC009A60DA603B4600221A605A601D4B4FF067
:100BDC0080421A601B4B41F63F725A60194B00223F
:100BEC009A60184B0922DA60164B00221A61154BD9
:100BFC0000229A61134801F0F9F80346002B01D04A
:100C0C0000F0BEF84FF48053BB6007F1080319469F
:100C1C000C4801F095FA0346002B01D000F0B0F817
:100C2C0000233B6000237B603B461946054801F0DE
:100C3C006BFC0346002B01D000F0A2F800BF183764
:100C4C00BD4680BDEC00002080B588B000AF07F138
:100C5C00100300221A605A609A60DA603E4B9B695E
:100C6C003D4A43F0080393613B4B9B6903F0080337
:100C7C00FB60FB68384B9B69374A43F00403936174
:100C8C00354B9B6903F00403BB60BB68324B9B691B
:100C9C00314A43F0100393612F4B9B6903F010030F
:100CAC007B607B68002240F271712C4800F0A7FC3D
:100CBC0000224FF478712A4800F0A1FC0022832115
:100CCC00284800F09CFC40F271733B6101237B616E
:100CDC000023BB610223FB6107F1100319461F4877
:100CEC0000F0F2FA08233B6100237B610123BB6116
:100CFC0007F110031946194800F0E6FA40F20443D4
:100D0C003B6100237B610123BB6107F11003194692
:100D1C00134800F0D9FA4FF478733B6101237B61DF
:100D2C000023BB610223FB6107F1100319460C4839
:100D3C0000F0CAFA83233B6101237B610023BB6172
:100D4C000223FB6107F110031946064800F0BCFAB8
:100D5C0000BF2037BD4680BD00100240000C014092
:100D6C00000801400010014080B582B000AF7860EF
:100D7C00FFF71AFA00F0D0F800BF0837BD4680BD67
:100D8C0080B400AF72B600BFFEE7000080B485B03F
:100D9C0000AF154B9B69144A43F001039361124B4E
:100DAC009B6903F00103BB60BB680F4BDB690E4A08
:100DBC0043F08053D3610C4BDB6903F080537B60B1
:100DCC007B680A4B5B68FB60FB6823F0E063FB60AD
:100DDC00FB6843F00073FB60044AFB68536000BF80
:100DEC001437BD4680BC7047001002400000014023
:100DFC0080B584B000AF78607B681B68B3F1804F1E
:100E0C0013D10C4BDB690B4A43F00103D361094B43
:100E1C00DB6903F00103FB60FB68002200211C204E
:100E2C0000F01BFA1C2000F034FA00BF1037BD464E
:100E3C0080BD00BF0010024080B400AFFEE780B45C
:100E4C0000AFFEE780B400AFFEE780B400AFFEE772
:100E5C0080B400AFFEE780B400AF00BFBD4680BCDD
:100E6C00704780B400AF00BFBD4680BC704780B4F3
:100E7C0000AF00BFBD4680BC704780B500AF00F02E
:100E8C00F9F800BF80BD000080B500AF024801F04A
:100E9C004FF800BF80BD00BFEC00002080B400AF55
:100EAC0000BFBD4680BC704780B483B000AF786093
:100EBC007B68084A82FB03129210DB17D31A064A8E
:100ECC001360064B00221A6000BF0C37BD4680BC75
:100EDC00704700BF67666666380100203401002049
:100EEC0080B483B000AF78607B68084A82FB031241
:100EFC009210DB17D31A064A1360064B00221A60B5
:100F0C0000BF0C37BD4680BC704700BF6766666685
:100F1C00400100203C01002080B400AF194B1B683D
:100F2C00002B0BDD174B1B68013B164A1360154B4E
:100F3C001B68002B02DC144B01221A60134B1B683C
:100F4C00002B0BDD114B1B68013B104A13600F4B40
:100F5C001B68002B02DC0E4B01221A600D4B1B6828
:100F6C00002B0BDD0B4B1B68013B0A4A1360094B32
:100F7C001B68002B02DC084B01221A6000BFBD4627
:100F8C0080BC704738010020340100204001002053
:100F9C003C0100204801002044010020FFF77EFFA7
:100FAC000B480C490C4A002302E0D458C4500433BB
:100FBC00C4188C42F9D3094A094C002301E0136090
:100FCC000432A242FBD301F017FBFFF78DFD7047F3
:100FDC00000000206C000020902600086C0000200F
:100FEC0050010020FEE7000080B500AF084B1B68E5
:100FFC00074A43F010031360032000F023F90F207D
:10100C0000F008F8FFF7C2FE0023184680BD00BFB1
:10101C000020024080B582B000AF7860124B1A6895
:10102C00124B1B7819464FF47A73B3FBF1F3B2FBF6
:10103C00F3F3184600F03BF90346002B01D00123D3
:10104C000EE07B680F2B0AD8002279684FF0FF3036
:10105C0000F003F9064A7B681360002300E00123CB
:10106C0018460837BD4680BD60000020680000208F
:10107C006400002080B400AF054B1B781A46054B6A
:10108C001B681344034A136000BFBD4680BC704705
:10109C00680000204C01002080B400AF024B1B689C
:1010AC001846BD4680BC70474C01002080B485B00A
:1010BC0000AF78607B6803F00703FB600C4BDB68C8
:1010CC00BB60BA684FF6FF031340BB60FB681A02A3
:1010DC00BB68134343F0BF6343F40033BB60044A63
:1010EC00BB68D36000BF1437BD4680BC704700BFDF
:1010FC0000ED00E080B400AF044BDB681B0A03F08A
:10110C0007031846BD4680BC704700BF00ED00E0E9
:10111C0080B483B000AF0346FB7197F90730002B06
:10112C000BDBFB7903F01F02064997F907305B09CB
:10113C00012000FA02F241F8232000BF0C37BD4613
:10114C0080BC704700E100E080B483B000AF034680
:10115C003960FB7197F90730002B0ADB3B68DAB278
:10116C000C4997F907301201D2B20B4483F80023D3
:10117C000AE03B68DAB20849FB7903F00F03043B41
:10118C001201D2B20B441A7600BF0C37BD4680BC9C
:10119C00704700BF00E100E000ED00E080B489B0D2
:1011AC0000AFF860B9607A60FB6803F00703FB617D
:1011BC00FB69C3F10703042B28BF0423BB61FB6944
:1011CC000433062B02D9FB69033B00E000237B614F
:1011DC004FF0FF32BB6902FA03F3DA43BB681A40E3
:1011EC007B699A404FF0FF317B6901FA03F3D943D5
:1011FC007B680B40134318462437BD4680BC7047B0
:10120C0080B582B000AF78607B68013BB3F1807F22
:10121C0001D301230FE00A4A7B68013B53600F2185
:10122C004FF0FF30FFF790FF054B00229A60044B04
:10123C0007221A60002318460837BD4680BD00BF40
:10124C0010E000E080B582B000AF78607868FFF7FE
:10125C002DFF00BF0837BD4680BD80B586B000AFFE
:10126C000346B9607A60FB7300237B61FFF742FF92
:10127C0078617A68B9687869FFF790FF024697F948
:10128C000F3011461846FFF75FFF00BF1837BD46F9
:10129C0080BD80B582B000AF0346FB7197F9073073
:1012AC001846FFF735FF00BF0837BD4680BD80B537
:1012BC0082B000AF78607868FFF7A2FF034618464B
:1012CC000837BD4680BD000080B48BB000AF78609D
:1012DC00396000237B6200233B6269E101227B6A57
:1012EC0002FA03F3FB613B681B68FA691340BB61AC
:1012FC00BA69FB699A4240F058813B685B689A4A2C
:10130C0093425ED0984A934275D8984A934258D0EB
:10131C00964A93426FD8964A934252D0944A93423B
:10132C0069D8944A93424CD0924A934263D8924AD9
:10133C00934246D0904A93425DD8122B2AD8122B56
:10134C0059D801A252F823F0CF130008A9130008B2
:10135C00BB130008FD130008031400080314000855
:10136C0003140008031400080314000803140008F5
:10137C0003140008031400080314000803140008E5
:10138C00031400080314000803140008B113000828
:10139C00C5130008794A934213D02CE03B68DB68F4
:1013AC003B6229E03B68DB6804333B6224E03B682A
:1013BC00DB6808333B621FE03B68DB680C333B6245
:1013CC001AE03B689B68002B02D104233B6213E0BC
:1013DC003B689B68012B05D108233B627B68FA694B
:1013EC001A6109E008233B627B68FA695A6103E0E1
:1013FC0000233B6200E000BFBB69FF2B01D87B6878
:10140C0001E07B6804337B61BB69FF2B02D87B6AEC
:10141C009B0002E07B6A083B9B003B617B691A687E
:10142C000F213B6901FA03F3DB431A40396A3B692C
:10143C0001FA03F31A437B691A603B685B6803F09B
:10144C008053002B00F0B1804D4B9B694C4A43F00C
:10145C00010393614A4B9B6903F00103BB60BB68BA
:10146C00484A7B6A9B08023352F82330FB607B6A44
:10147C0003F003039B000F2202FA03F3DB43FA6829
:10148C001340FB607B68404A934213D07B683F4A11
:10149C0093420DD07B683E4A934207D07B683D4A0D
:1014AC00934201D1032306E0042304E0022302E06B
:1014BC00012300E000237A6A02F0030292009340B9
:1014CC00FA681343FB602F497B6A9B080233FA6866
:1014DC0041F823203B685B6803F48013002B06D093
:1014EC002D4B9A682C49BB6913438B6006E02A4B41
:1014FC009A68BB69DB43284913408B603B685B6887
:10150C0003F40013002B06D0234BDA682249BB6985
:10151C001343CB6006E0204BDA68BB69DB431E4902
:10152C001340CB603B685B6803F40033002B06D0A0
:10153C00194B5A681849BB6913434B6006E0164BAC
:10154C005A68BB69DB43144913404B603B685B68CA
:10155C0003F48033002B21D00F4B1A680E49BB6962
:10156C0013430B6021E000BF00003210000031106B
:10157C0000002210000021100000121000001110B9
:10158C00001002400000014000080140000C014026
:10159C000010014000140140000401400B4B1A687C
:1015AC00BB69DB43094913400B607B6A01337B62E7
:1015BC003B681A687B6A22FA03F3002B7FF48EAE29
:1015CC0000BF00BF2C37BD4680BC704700040140F3
:1015DC0080B485B000AF78600B467B807B689A68DE
:1015EC007B881340002B02D00123FB7301E0002306
:1015FC00FB73FB7B18461437BD4680BC704780B428
:10160C0083B000AF78600B467B8013467B707B7891
:10161C00002B03D07A887B681A6103E07B881A045C
:10162C007B681A6100BF0C37BD4680BC7047000058
:10163C0080B586B000AF78607B68002B01D10123A8
:10164C0072E27B681B6803F00103002B00F08780BB
:10165C00924B5B6803F00C03042B0CD08F4B5B6834
:10166C0003F00C03082B12D18C4B5B6803F4803312
:10167C00B3F5803F0BD1894B1B6803F40033002B6F
:10168C006CD07B685B68002B68D101234CE27B68D3
:10169C005B68B3F5803F06D1804B1B687F4A43F4EF
:1016AC00803313602EE07B685B68002B0CD17B4B86
:1016BC001B687A4A23F480331360784B1B68774A93
:1016CC0023F4802313601DE07B685B68B3F5A02FC7
:1016DC000CD1724B1B68714A43F4802313606F4B1F
:1016EC001B686E4A43F4803313600BE06B4B1B6832
:1016FC006A4A23F480331360684B1B68674A23F4EF
:10170C00802313607B685B68002B13D0FFF7C4FC4D
:10171C00386108E0FFF7C0FC02463B69D31A642B22
:10172C0001D9032300E25D4B1B6803F40033002B4B
:10173C00F0D014E0FFF7B0FC386108E0FFF7ACFC28
:10174C0002463B69D31A642B01D90323ECE1534BBA
:10175C001B6803F40033002BF0D100E000BF7B6862
:10176C001B6803F00203002B63D04C4B5B6803F047
:10177C000C03002B0BD0494B5B6803F00C03082BBC
:10178C001CD1464B5B6803F48033002B16D1434BC2
:10179C001B6803F00203002B05D07B681B69012B2F
:1017AC0001D00123C0E13D4B1B6823F0F8027B689C
:1017BC005B69DB00394913430B603AE07B681B69BA
:1017CC00002B20D0364B01221A60FFF765FC3861E4
:1017DC0008E0FFF761FC02463B69D31A022B01D9E2
:1017EC000323A1E12D4B1B6803F00203002BF0D067
:1017FC002A4B1B6823F0F8027B685B69DB002749E6
:10180C0013430B6015E0264B00221A60FFF744FCD3
:10181C00386108E0FFF740FC02463B69D31A022B03
:10182C0001D9032380E11D4B1B6803F00203002B3D
:10183C00F0D17B681B6803F00803002B3AD07B685F
:10184C009B69002B19D0174B01221A60FFF724FC5F
:10185C00386108E0FFF720FC02463B69D31A022BE3
:10186C0001D9032360E10D4B5B6A03F00203002BEB
:10187C00F0D0012000F09CFA1CE00A4B00221A6008
:10188C00FFF70AFC38610FE0FFF706FC02463B69E4
:10189C00D31A022B08D9032346E100BF00100240E3
:1018AC000000424280044242924B5B6A03F0020306
:1018BC00002BE9D17B681B6803F00403002B00F0BC
:1018CC00A6800023FB758B4BDB6903F08053002B48
:1018DC000DD1884BDB69874A43F08053D361854B2C
:1018EC00DB6903F08053BB60BB680123FB75824B43
:1018FC001B6803F48073002B18D17F4B1B687E4A46
:10190C0043F480731360FFF7C7FB386108E0FFF7FF
:10191C00C3FB02463B69D31A642B01D9032303E1B1
:10192C00754B1B6803F48073002BF0D07B68DB686D
:10193C00012B06D16F4B1B6A6E4A43F001031362F5
:10194C002DE07B68DB68002B0CD16A4B1B6A694A63
:10195C0023F001031362674B1B6A664A23F00403EE
:10196C0013621CE07B68DB68052B0CD1614B1B6A96
:10197C00604A43F0040313625E4B1B6A5D4A43F0FA
:10198C00010313620BE05B4B1B6A5A4A23F0010301
:10199C001362584B1B6A574A23F0040313627B688B
:1019AC00DB68002B15D0FFF777FB38610AE0FFF7F7
:1019BC0073FB02463B69D31A41F28832934201D938
:1019CC000323B1E04B4B1B6A03F00203002BEED058
:1019DC0014E0FFF761FB38610AE0FFF75DFB02469C
:1019EC003B69D31A41F28832934201D903239BE01D
:1019FC00404B1B6A03F00203002BEED1FB7D012B45
:101A0C0005D13C4BDB693B4A23F08053D3617B68A7
:101A1C00DB69002B00F08780364B5B6803F00C030E
:101A2C00082B61D07B68DB69022B46D1334B00223B
:101A3C001A60FFF731FB386108E0FFF72DFB024617
:101A4C003B69D31A022B01D903236DE0294B1B6888
:101A5C0003F00073002BF0D17B681B6AB3F5803F59
:101A6C0008D1244B5B6823F400327B689B682149C6
:101A7C0013434B601F4B5B6823F474127B68196A29
:101A8C007B685B6A0B431B4913434B601B4B012266
:101A9C001A60FFF701FB386108E0FFF7FDFA024618
:101AAC003B69D31A022B01D903233DE0114B1B6870
:101ABC0003F00073002BF0D035E0104B00221A60BD
:101ACC00FFF7EAFA386108E0FFF7E6FA02463B69ED
:101ADC00D31A022B01D9032326E0064B1B6803F013
:101AEC000073002BF0D11EE07B68DB69012B07D162
:101AFC00012319E0001002400070004060004242D7
:101B0C000B4B5B68FB60FB6803F480327B681B6AE1
:101B1C009A4206D1FB6803F470127B685B6A9A42A6
:101B2C0001D0012300E0002318461837BD4680BDC4
:101B3C000010024080B584B000AF786039607B68DB
:101B4C00002B01D10123D0E06A4B1B6803F0070383
:101B5C003A689A4210D9674B1B6823F00702654913
:101B6C003B6813430B60634B1B6803F007033A6835
:101B7C009A4201D00123B8E07B681B6803F0020392
:101B8C00002B20D07B681B6803F00403002B05D0CE
:101B9C00594B5B68584A43F4E06353607B681B689D
:101BAC0003F00803002B05D0534B5B68524A43F4F7
:101BBC0060535360504B5B6823F0F0027B689B686A
:101BCC004D4913434B607B681B6803F00103002BEA
:101BDC0040D07B685B68012B07D1474B1B6803F433
:101BEC000033002B15D101237FE07B685B68022B4F
:101BFC0007D1414B1B6803F00073002B09D1012363
:101C0C0073E03D4B1B6803F00203002B01D1012351
:101C1C006BE0394B5B6823F003027B685B683649E9
:101C2C0013434B60FFF738FAF8600AE0FFF734FA19
:101C3C000246FB68D31A41F28832934201D903233E
:101C4C0053E02D4B5B6803F00C027B685B689B00D8
:101C5C009A42EBD1274B1B6803F007033A689A4270
:101C6C0010D2244B1B6823F0070222493B68134314
:101C7C000B60204B1B6803F007033A689A4201D0B3
:101C8C00012332E07B681B6803F00403002B08D0AF
:101C9C00194B5B6823F4E0627B68DB6816491343DD
:101CAC004B607B681B6803F00803002B09D0124BB8
:101CBC005B6823F460527B681B69DB000E4913439D
:101CCC004B6000F021F802460B4B5B681B0903F0DC
:101CDC000F030A49CB5C22FA03F3094A1360094B40
:101CEC001B681846FFF796F9002318461037BD46B7
:101CFC0080BD00BF00200240001002406426000896
:101D0C00600000206400002080B487B000AF002386
:101D1C00FB600023BB6000237B6100237B600023FE
:101D2C003B611E4B5B68FB60FB6803F00C03042BF0
:101D3C0002D0082B03D027E0194B3B6127E0FB684E
:101D4C009B0C03F00F03174AD35C7B60FB6803F416
:101D5C008033002B10D0114B5B685B0C03F001033C
:101D6C00114AD35CBB607B680D4A03FB02F2BB6873
:101D7C00B2FBF3F37B6104E07B680C4A02FB03F3D8
:101D8C007B617B693B6102E0054B3B6100BF3B69BA
:101D9C0018461C37BD4680BC704700BF001002407F
:101DAC0000127A00742600088426000800093D0001
:101DBC0080B485B000AF78600A4B1B680A4AA2FB5E
:101DCC0003235B0A7A6802FB03F3FB6000BFFB682A
:101DDC005A1EFA60002BF9D100BF00BF1437BD4664
:101DEC0080BC704760000020D34D621080B582B07B
:101DFC0000AF78607B68002B01D1012341E07B6848
:101E0C0093F83D30DBB2002B06D17B68002283F8BF
:101E1C003C207868FEF7ECFF7B68022283F83D20BB
:101E2C007B681A687B6804331946104600F074FA14
:101E3C007B68012283F846207B68012283F83E20D0
:101E4C007B68012283F83F207B68012283F84020C5
:101E5C007B68012283F841207B68012283F84220B1
:101E6C007B68012283F843207B68012283F844209D
:101E7C007B68012283F845207B68012283F83D2092
:101E8C00002318460837BD4680BD000080B485B0DD
:101E9C0000AF78607B6893F83D30DBB2012B01D04A
:101EAC0001233AE07B68022283F83D207B681B68A3
:101EBC00DA687B681B6842F00102DA607B681B6899
:101ECC00184A93420ED07B681B68B3F1804F09D03F
:101EDC007B681B68144A934204D07B681B68134AC6
:101EEC00934211D17B681B689B6803F00703FB606E
:101EFC00FB68062B10D07B681B681A687B681B6814
:101F0C0042F001021A6007E07B681B681A687B6864
:101F1C001B6842F001021A60002318461437BD46B4
:101F2C0080BC7047002C01400004004000080040B9
:101F3C0080B582B000AF78607B681B681B6903F0CA
:101F4C000203022B22D17B681B68DB6803F00203BF
:101F5C00022B1BD17B681B686FF002021A617B6835
:101F6C0001221A777B681B689B6903F00303002B23
:101F7C0003D0786800F0B4F905E0786800F0A7F9B0
:101F8C00786800F0B6F97B6800221A777B681B68CA
:101F9C001B6903F00403042B22D17B681B68DB68EC
:101FAC0003F00403042B1BD17B681B686FF0040245
:101FBC001A617B6802221A777B681B689B6903F4A1
:101FCC004073002B03D0786800F08AF905E078683C
:101FDC0000F07DF9786800F08CF97B6800221A77A4
:101FEC007B681B681B6903F00803082B22D17B68F4
:101FFC001B68DB6803F00803082B1BD17B681B688C
:10200C006FF008021A617B6804221A777B681B68E0
:10201C00DB6903F00303002B03D0786800F060F950
:10202C0005E0786800F053F9786800F062F97B6895
:10203C0000221A777B681B681B6903F01003102BB6
:10204C0022D17B681B68DB6803F01003102B1BD1BB
:10205C007B681B686FF010021A617B6808221A7784
:10206C007B681B68DB6903F44073002B03D0786832
:10207C0000F036F905E0786800F029F9786800F08E
:10208C0038F97B6800221A777B681B681B6903F0A0
:10209C000103012B0ED17B681B68DB6803F0010385
:1020AC00012B07D17B681B686FF001021A617868FD
:1020BC00FEF75AFE7B681B681B6903F08003802BBC
:1020CC000ED17B681B68DB6803F08003802B07D183
:1020DC007B681B686FF080021A61786800F07BFAED
:1020EC007B681B681B6903F04003402B0ED17B6897
:1020FC001B68DB6803F04003402B07D17B681B682F
:10210C006FF040021A61786800F0FCF87B681B687D
:10211C001B6903F02003202B0ED17B681B68DB6846
:10212C0003F02003202B07D17B681B686FF0200283
:10213C001A61786800F046FA00BF0837BD4680BDCA
:10214C0080B584B000AF786039600023FB737B6886
:10215C0093F83C30012B01D10223B4E07B680122BF
:10216C0083F83C207B68022283F83D207B681B6847
:10217C009B68BB60BB6823F07703BB60BB6823F430
:10218C007F43BB607B681B68BA689A603B681B68BE
:10219C00B3F5005F3ED0B3F5005F00F28780B3F576
:1021AC00805F00F08680B3F5805F7FD8702B1AD0EB
:1021BC00702B7BD8602B50D0602B77D8502B3CD019
:1021CC00502B73D8402B58D0402B6FD8302B64D069
:1021DC00302B6BD8202B60D0202B67D8002B5CD0F9
:1021EC00102B5AD062E07B6818683B6899683B6892
:1021FC005A683B68DB6800F068F97B681B689B6871
:10220C00BB60BB6843F07703BB607B681B68BA6834
:10221C009A604FE07B6818683B6899683B685A681D
:10222C003B68DB6800F051F97B681B689A687B6837
:10223C001B6842F480429A603CE07B6818683B68FB
:10224C0059683B68DB681A4600F0C8F87B681B6865
:10225C005021184600F01FF92CE07B6818683B6889
:10226C0059683B68DB681A4600F0E6F87B681B6827
:10227C006021184600F00FF91CE07B6818683B6879
:10228C0059683B68DB681A4600F0A8F87B681B6845
:10229C004021184600F0FFF80CE07B681A683B6898
:1022AC001B681946104600F0F6F803E00123FB7397
:1022BC0000E000BF7B68012283F83D207B68002290
:1022CC0083F83C20FB7B18461037BD4680BD80B49C
:1022DC0083B000AF786000BF0C37BD4680BC704740
:1022EC0080B483B000AF786000BF0C37BD4680BCB3
:1022FC00704780B483B000AF786000BF0C37BD4628
:10230C0080BC704780B483B000AF786000BF0C37DE
:10231C00BD4680BC7047000080B485B000AF7860CB
:10232C0039607B681B68FB607B68294A93420BD041
:10233C007B68B3F1804F07D07B68264A934203D069
:10234C007B68254A934208D1FB6823F07003FB603D
:10235C003B685B68FA681343FB607B681C4A9342DA
:10236C000BD07B68B3F1804F07D07B68194A93423E
:10237C0003D07B68184A934208D1FB6823F440735E
:10238C00FB603B68DB68FA681343FB60FB6823F077
:10239C0080023B685B691343FB607B68FA681A60D8
:1023AC003B689A687B68DA623B681A687B689A6259
:1023BC007B68074A934203D13B681A697B681A63AE
:1023CC007B6801225A6100BF1437BD4680BC704740
:1023DC00002C0140000400400008004080B487B08D
:1023EC0000AFF860B9607A60FB681B6A7B61FB68C0
:1023FC001B6A23F00102FB681A62FB689B693B6154
:10240C003B6923F0F0033B617B681B013A69134382
:10241C003B617B6923F00A037B617A69BB681343D8
:10242C007B61FB683A699A61FB687A691A6200BF42
:10243C001C37BD4680BC704780B487B000AFF860D5
:10244C00B9607A60FB681B6A7B61FB681B6A23F0CE
:10245C001002FB681A62FB689B693B613B6923F4C1
:10246C0070433B617B681B033A6913433B617B6997
:10247C0023F0A0037B61BB681B017A6913437B616A
:10248C00FB683A699A61FB687A691A6200BF1C376B
:10249C00BD4680BC704780B485B000AF78603960B1
:1024AC007B689B68FB60FB6823F07003FB603A68F9
:1024BC00FB68134343F00703FB607B68FA689A6080
:1024CC0000BF1437BD4680BC704780B487B000AFE6
:1024DC00F860B9607A603B60FB689B687B617B69E4
:1024EC0023F47F437B613B681A027B681A43BB6809
:1024FC0013437A6913437B61FB687A699A6000BF66
:10250C001C37BD4680BC704780B485B000AF786086
:10251C0039607B6893F83C30012B01D1022346E0F3
:10252C007B68012283F83C207B68022283F83D20E3
:10253C007B681B685B68FB607B681B689B68BB6087
:10254C00FB6823F07003FB603B681B68FA6813435D
:10255C00FB607B681B68FA685A607B681B68164ACC
:10256C0093420ED07B681B68B3F1804F09D07B6817
:10257C001B68124A934204D07B681B68104A934232
:10258C000CD1BB6823F08003BB603B685B68BA6806
:10259C001343BB607B681B68BA689A607B68012236
:1025AC0083F83D207B68002283F83C2000231846EA
:1025BC001437BD4680BC7047002C0140000400401D
:1025CC000008004080B483B000AF786000BF0C37C7
:1025DC00BD4680BC704780B483B000AF786000BF4C
:1025EC000C37BD4680BC704703460244934200D171
:1025FC00704703F8011BF9E770B500260C4D0D4C24
:10260C00641BA410A64209D100F01AF800260A4D4A
:10261C000A4C641BA410A64205D170BD55F8043BAE
:10262C0098470136EEE755F8043B98470136F2E738
:10263C008826000888260008882600088C260008B2
:10264C00F8B500BFF8BC08BC9E467047F8B500BF93
:08265C00F8BC08BC9E46704763
:10266400000000000000000001020304060708093E
:1026740002030405060708090A0B0C0D0E0F1010BF
:04268400010200004F
:042688003101000814
:04268C000D01000834
:102690000C0000000C0000000C0000008000000195
:1026A0000002200040000001000410002000000291
:1026B000800040008000000000080140000C014044
:1026C000000C0140000801400008014000080140E2
:1026D000000C0140000C0140000C014000080140CA
:1026E00000100140000C0140000801400100000002
:0C26F0000024F4001000000001000000B5
:0400000508000FA937
:00000001FF
