:020000040800F2
:1000000000280020D11000086110000867100008C7
:100010006D1000087310000879100008000000003F
:100020000000000000000000000000007F10000839
:100030008B1000080000000097100008A3100008B3
:1000400019110008191100081911000819110008E8
:1000500019110008191100081911000819110008D8
:1000600019110008191100081911000819110008C8
:1000700019110008191100081911000819110008B8
:1000800019110008191100081911000819110008A8
:100090001911000819110008191100081911000898
:1000A0001911000819110008191100081911000888
:1000B000B110000819110008000000001911000813
:1000C00019110008000000000000000019110008CC
:1000D00000000000191100081911000800000000BC
:1000E000191100081911000819110008000000007A
:1000F0000000000000000000000000000000000000
:0C01000000000000000000005FF808F1A3
:10010C0010B5054C237833B9044B13B10448AFF345
:10011C0000800123237010BD2C0000200000000083
:10012C006027000808B5034B1BB103490348AFF324
:10013C00008008BD0000000030000020602700088F
:10014C0080B400AF074B1A6813469B0013445B0046
:10015C001A46044B5B681344034A136000BFBD4648
:10016C0080BC70470C0000200000002080B400AF61
:10017C00074B9A6813469B0013445B001A46044BCA
:10018C00DB681344034A136000BFBD4680BC704754
:10019C000C0000200400002080B483B000AF174B8B
:1001AC001A6813469B0013445B001A46134B5B689A
:1001BC0013447B607B6801337B607B68172B01DD0C
:1001CC0000237B607B680E4A82FB03129210DB17C4
:1001DC00D31A0A4A13607968094B83FB01239A10DE
:1001EC00CB17D21A13469B0013445B00CA1A034B5D
:1001FC005A6000BF0C37BD4680BC70470C00002015
:10020C006766666680B483B000AF174B9A68134676
:10021C009B0013445B001A46134BDB6813447B6052
:10022C007B6801337B607B683B2B01DD00237B60AB
:10023C007B680E4A82FB03129210DB17D31A0A4A10
:10024C0093607968094B83FB01239A10CB17D21A60
:10025C0013469B0013445B00CA1A034BDA6000BFC1
:10026C000C37BD4680BC70470C0000206766666684
:10027C0080B582B000AF78607B68092B00F280817A
:10028C0001A252F823F000BFBD02000805030008CC
:10029C004D03000895030008DD0300082504000841
:1002AC006D040008B5040008FD04000845050008AD
:1002BC0000220121B44801F02CFA00220221B2489C
:1002CC0001F027FA00220421AF4801F022FA0022A3
:1002DC000821AD4801F01DFA00221021AA4801F0B6
:1002EC0018FA00222021A84801F013FA012240211B
:1002FC00A54801F00EFA43E101220121A24801F0C8
:10030C0008FA00220221A04801F003FA002204217D
:10031C009D4801F0FEF9012208219B4801F0F9F9F2
:10032C0001221021984801F0F4F90122202196486D
:10033C0001F0EFF901224021934801F0EAF91FE1A5
:10034C0000220121904801F0E4F9002202218E489C
:10035C0001F0DFF9012204218B4801F0DAF90022C7
:10036C000821894801F0D5F900221021864801F0B6
:10037C00D0F901222021844801F0CBF90022402140
:10038C00814801F0C6F9FBE0002201217E4801F012
:10039C00C0F9002202217C4801F0BBF900220421A3
:1003AC00794801F0B6F900220821774801F0B1F93B
:1003BC0001221021744801F0ACF90122202172486D
:1003CC0001F0A7F9002240216F4801F0A2F9D7E013
:1003DC00012201216C4801F09CF9002202216A489B
:1003EC0001F097F900220421674801F092F90122EB
:1003FC000821654801F08DF901221021624801F0B5
:10040C0088F900222021604801F083F90022402164
:10041C005D4801F07EF9B3E0002201215A4801F059
:10042C0078F901220221584801F073F900220421C5
:10043C00554801F06EF900220821534801F069F982
:10044C0001221021504801F064F9002220214E486D
:10045C0001F05FF9002240214B4801F05AF98FE07E
:10046C0000220121484801F054F90122022146489A
:10047C0001F04FF900220421434801F04AF900220F
:10048C000821414801F045F9002210213E4801F0B5
:10049C0040F9002220213C4801F03BF90022402188
:1004AC00394801F036F96BE000220121364801F0A1
:1004BC0030F900220221344801F02BF900220421EA
:1004CC00314801F026F9012208212F4801F021F9C9
:1004DC00012210212C4801F01CF9012220212A486C
:1004EC0001F017F901224021274801F012F947E0E9
:1004FC0000220121244801F00CF90022022122489B
:10050C0001F007F9002204211F4801F002F9002232
:10051C0008211D4801F0FDF8002210211A4801F0B5
:10052C00F8F800222021184801F0F3F800224021AD
:10053C00154801F0EEF823E000220121124801F0E9
:10054C00E8F800220221104801F0E3F8002204210F
:10055C000D4801F0DEF8002208210B4801F0D9F813
:10056C0001221021084801F0D4F80022202106486D
:10057C0001F0CFF800224021034801F0CAF800BF77
:10058C0000BF0837BD4680BD000C014080B582B06D
:10059C0000AF78607B68032B66D801A252F823F079
:1005AC00BD050008EB050008190600084706000801
:1005BC0000224021324801F0ACF801228021304861
:1005CC0001F0A7F801224FF480712D4801F0A1F839
:1005DC0001224FF400712A4801F09BF845E00122FA
:1005EC004021274801F095F800228021244801F091
:1005FC0090F801224FF48071214801F08AF8012211
:10060C004FF400711E4801F084F82EE001224021C5
:10061C001B4801F07EF801228021194801F079F87D
:10062C0000224FF48071164801F073F801224FF448
:10063C000071134801F06DF817E0012240211048B9
:10064C0001F067F8012280210D4801F062F80122C7
:10065C004FF480710A4801F05CF800224FF40071ED
:10066C00074801F056F800E000BF064A7B6852F8D4
:10067C0023301846FFF7FCFD00BF0837BD4680BD90
:10068C00000801400C00002080B400AF1A4B1B681E
:10069C001A4A82FB03129210DB17D31A184A136002
:1006AC00154B1968154B83FB01239A10CB17D21AE3
:1006BC0013469B0013445B00CA1A114B5A60114B32
:1006CC001B680E4A82FB03129210DB17D31A0C4ADA
:1006DC0093600C4B1968094B83FB01239A10CB17C1
:1006EC00D21A13469B0013445B00CA1A044BDA60FF
:1006FC0000BFBD4680BC7047000000206766666680
:10070C000C0000200400002080B500AF134B1B68C8
:10071C000133124A1360114B1B683B2B07DD104B46
:10072C001B6801330E4A13600C4B00221A600C4BF1
:10073C001B683B2B07DD0B4B1B680133094A13600D
:10074C00074B00221A60074B1B68172B02DD054B69
:10075C0000221A60FFF798FF00BF80BD0800002040
:10076C00040000200000002080B500AF774B1B6810
:10077C00013B032B00F2CB8001A252F823F000BF07
:10078C009D070008AB070008E30700087F08000876
:10079C006E4B02221A60642000F0BCFBBEE000200D
:1007AC0000F044F90346012B0AD1684B03221A606E
:1007BC004FF47A7000F086FB0821654800F0C1FF09
:1007CC00644B1B68012B40F0A480642000F0A2FB5A
:1007DC00FFF79AFF9DE0604B1B68012B04D1FFF7DC
:1007EC0053FF5A4B02221A60002000F01FF90346F7
:1007FC00012B08D1FFF748FF544B02221A60082145
:10080C00534800F09EFF012000F0F6F80346012B40
:10081C0009D14FF47A7000F055FBFFF7BDFC202195
:10082C004B4800F08EFF022000F0E6F80346012B47
:10083C000BD14FF47A7000F045FBFFF781FCFFF70A
:10084C0023FF2021424800F07CFF002000F0D4F868
:10085C000346012B5FD1FFF717FF4FF47A7000F0BE
:10086C0031FB3A4B04221A602021394800F069FF11
:10087C0051E0394B1B68012B04D1FFF705FF334BBB
:10088C0002221A60002000F0D1F80346012B08D197
:10089C00FFF7FAFE2D4B02221A6008212C4800F0BB
:1008AC0050FF012000F0A8F80346012B09D14FF4AA
:1008BC007A7000F007FBFFF7A5FC2021244800F01C
:1008CC0040FF022000F098F80346012B0BD14FF4A7
:1008DC007A7000F0F7FAFFF749FCFFF7D5FE2021FC
:1008EC001B4800F02EFF002000F086F80346012B79
:1008FC0013D1FFF7C9FE4FF47A7000F0E3FA134BF3
:10090C0003221A602021124800F01BFF05E000BFF3
:10091C0004E000BF02E000BF00E000BF0F4B1B680B
:10092C00012B11D10A2000F0E1FA0D4B1B68032BAF
:10093C0002DD0B4B00221A60094B1B685A1C08493C
:10094C000A601846FFF722FE00BF80BD1C00002085
:10095C0000080140F8000020F400002000010020F5
:10096C004800002080B483B000AF00237B602AE0F5
:10097C00194A7B68012142F82310184A7B6801212F
:10098C0042F82310164A7B68012142F82310154ABD
:10099C007B68012142F82310134A7B68012142F83D
:1009AC002310124A7B68002142F82310104A7B68FE
:1009BC00002142F823100F4A7B68002142F82310D3
:1009CC007B6801337B607B68022BD1DD00BF00BFED
:1009DC000C37BD4680BC70474C00002058000020EE
:1009EC0064000020700000207C000020A00000208B
:1009FC00880000209400002080B483B000AF7860A1
:100A0C00094A7B6852F82330012B06D1064A7B68D1
:100A1C00002142F82310012300E0002318460C3774
:100A2C00BD4680BC704700BF8800002080B483B0F6
:100A3C0000AF7860094A7B6852F82330012B06D14D
:100A4C00064A7B68002142F82310012300E00023B2
:100A5C0018460C37BD4680BC704700BF9400002080
:100A6C0080B582B000AF00237B60DFE0744A7B6806
:100A7C0052F8232073497B6841F82320724A7B6823
:100A8C0052F823206E497B6841F823207B68022BA7
:100A9C0020D07B68022B29DC7B68002B03D07B6881
:100AAC00012B0BD022E00221684800F01BFE03460C
:100ABC001946654A7B6842F8231018E04FF48061B0
:100ACC00624800F00FFE034619465F4A7B6842F805
:100ADC0023100CE04FF400615C4800F003FE034669
:100AEC001946594A7B6842F8231000E000BF544A6B
:100AFC007B6852F8232053497B6851F823309A4283
:100B0C0040F088804E4A7B6852F823204E497B681F
:100B1C0051F823309A427DD14B4A7B6852F82320FE
:100B2C004B497B6841F823204A4A7B6852F82330B2
:100B3C00022B45D0022B6FDC002B0DD0012B6BD17F
:100B4C00434A7B6852F82330002B67D1414A7B68BB
:100B5C00002142F8231061E03F4A7B6852F82330B1
:100B6C005A1C3D497B6841F82320394A7B6852F86E
:100B7C002330012B0ED1394A7B68012142F8231016
:100B8C00344A7B68012142F82310334A7B680021E8
:100B9C0042F82310304A7B6852F82330C72B3FDDD4
:100BAC002F4A7B68012142F823102A4A7B680221D4
:100BBC0042F82310284A7B68002142F823102FE0CA
:100BCC00254A7B6852F823305A1C23497B6841F82C
:100BDC002320214A7B6852F82330C72B09DD204A99
:100BEC007B68012142F823101B4A7B68002142F8E4
:100BFC002310174A7B6852F82330012B12D1164A66
:100C0C007B68002142F82310124A7B68012142F8CC
:100C1C00231007E000BF06E000BF04E000BF02E0C5
:100C2C0000BF00E000BF7B6801337B607B68022B58
:100C3C007FF71CAF00BF00BF0837BD4680BD00BFAB
:100C4C00580000204C0000206400002000080140E7
:100C5C007C00002070000020A000002088000020F4
:100C6C009400002080B500AF00F052FA00F02EF88E
:100C7C0000F0B4F800F066F8114801F0A7F9002272
:100C8C004021104800F045FD012280210D4800F064
:100C9C0040FD01224FF480710A4800F03AFD012218
:100CAC004FF40071074800F034FD074B01221A6025
:100CBC00FFF758FE044B1B681846FFF755FDF9E784
:100CCC00AC000020000801401C00002080B590B052
:100CDC0000AF07F1180328220021184601F032FD5D
:100CEC003B1D00221A605A609A60DA601A61022376
:100CFC00BB610123BB621023FB6200237B6307F102
:100D0C001803184600F036FD0346002B01D000F006
:100D1C00D3F80F237B600023BB600023FB60002310
:100D2C003B6100237B613B1D0021184600F0A2FFB4
:100D3C000346002B01D000F0BFF800BF4037BD4682
:100D4C0080BD000080B586B000AF07F1080300221B
:100D5C001A605A609A60DA603B4600221A605A6048
:100D6C001D4B4FF080421A601B4B41F63F725A608C
:100D7C00194B00229A60184B0922DA60164B00229C
:100D8C001A61154B00229A61134801F0CFF8034603
:100D9C00002B01D000F090F84FF48053BB6007F1AA
:100DAC00080319460C4801F065FA0346002B01D0E4
:100DBC0000F082F800233B6000237B603B46194621
:100DCC00054801F031FC0346002B01D000F074F80B
:100DDC0000BF1837BD4680BDAC00002080B586B082
:100DEC0000AF07F1080300221A605A609A60DA60BB
:100DFC00284B9B69274A43F004039361254B9B695D
:100E0C0003F004037B607B68224B9B69214A43F00F
:100E1C00080393611F4B9B6903F008033B603B681D
:100E2C0000224FF47E711C4800F073FC00227F21DD
:100E3C001A4800F06EFC40F60243BB600023FB60D6
:100E4C0001233B6107F108031946134800F0D0FA5F
:100E5C004FF47E73BB600123FB6000233B610223D4
:100E6C007B6107F1080319460B4800F0C1FA7F2398
:100E7C00BB600123FB6000233B6102237B6107F114
:100E8C0008031946054800F0B3FA00BF1837BD46F1
:100E9C0080BD00BF0010024000080140000C014062
:100EAC0080B582B000AF7860FFF7DAFD00F046F84D
:100EBC0000BF0837BD4680BD80B400AF72B600BF1E
:100ECC00FEE7000080B483B000AF7860054A7B6811
:100EDC001360054B00221A6000BF0C37BD4680BC66
:100EEC00704700BF04010020F400002080B483B0E0
:100EFC0000AF7860054A7B681360054B00221A60CE
:100F0C0000BF0C37BD4680BC704700BF08010020F5
:100F1C000001002080B483B000AF7860054A7B6884
:100F2C001360054B00221A6000BF0C37BD4680BC15
:100F3C00704700BFFC000020F800002080B400AF18
:100F4C00134B1B68013B124A1360114B1B68002B9F
:100F5C0002DC104B01221A600F4B1B68013B0E4A3E
:100F6C0013600D4B1B68002B02DC0C4B01221A602A
:100F7C000B4B1B68013B0A4A1360094B1B68002B87
:100F8C0002DC084B01221A6000BFBD4680BC7047D2
:100F9C0004010020F40000200801002000010020C2
:100FAC00FC000020F800002080B485B000AF154B89
:100FBC009B69144A43F001039361124B9B6903F044
:100FCC000103BB60BB680F4BDB690E4A43F08053D7
:100FDC00D3610C4BDB6903F080537B607B680A4B5D
:100FEC005B68FB60FB6823F0E063FB60FB6843F02D
:100FFC008063FB60044AFB68536000BF1437BD4636
:10100C0080BC7047001002400000014080B584B0E5
:10101C0000AF78607B681B68B3F1804F13D10C4B29
:10102C00DB690B4A43F00103D361094BDB6903F025
:10103C000103FB60FB68002200211C2000F0A1F9D9
:10104C001C2000F0BAF900BF1037BD4680BD00BFB0
:10105C000010024080B400AFFEE780B400AFFEE7A2
:10106C0080B400AFFEE780B400AFFEE780B400AF01
:10107C00FEE780B400AF00BFBD4680BC704780B4B3
:10108C0000AF00BFBD4680BC704780B400AF00BF4E
:10109C00BD4680BC704780B500AF00F07FF800BF44
:1010AC0080BD000080B500AF024800F0DBFF00BF40
:1010BC0080BD00BFAC00002080B400AF00BFBD46B7
:1010CC0080BC7047FFF7F8FF0B480C490C4A002313
:1010DC0002E0D458C4500433C4188C42F9D3094AE2
:1010EC00094C002301E013600432A242FBD301F04F
:1010FC0005FBFFF7B7FD7047000000202C00002017
:10110C00A42700082C00002010010020FEE700009E
:10111C0080B500AF084B1B68074A43F010031360FF
:10112C00032000F023F90F2000F008F8FFF73CFF34
:10113C000023184680BD00BF0020024080B582B05D
:10114C0000AF7860124B1A68124B1B7819464FF49B
:10115C007A73B3FBF1F3B2FBF3F3184600F03BF9EF
:10116C000346002B01D001230EE07B680F2B0AD81D
:10117C00002279684FF0FF3000F003F9064A7B68D3
:10118C001360002300E0012318460837BD4680BDDC
:10119C0020000020280000202400002080B400AF94
:1011AC00054B1B781A46054B1B681344034A136006
:1011BC0000BFBD4680BC7047280000200C010020F9
:1011CC0080B400AF024B1B681846BD4680BC70470C
:1011DC000C01002080B485B000AF78607B6803F010
:1011EC000703FB600C4BDB68BB60BA684FF6FF0370
:1011FC001340BB60FB681A02BB68134343F0BF6328
:10120C0043F40033BB60044ABB68D36000BF14379F
:10121C00BD4680BC704700BF00ED00E080B400AF5D
:10122C00044BDB681B0A03F007031846BD4680BC61
:10123C00704700BF00ED00E080B483B000AF034600
:10124C00FB7197F90730002B0BDBFB7903F01F02C6
:10125C00064997F907305B09012000FA02F241F8C0
:10126C00232000BF0C37BD4680BC704700E100E076
:10127C0080B483B000AF03463960FB7197F9073037
:10128C00002B0ADB3B68DAB20C4997F907301201E4
:10129C00D2B20B4483F800230AE03B68DAB2084967
:1012AC00FB7903F00F03043B1201D2B20B441A7604
:1012BC0000BF0C37BD4680BC704700BF00E100E0AA
:1012CC0000ED00E080B489B000AFF860B9607A60DE
:1012DC00FB6803F00703FB61FB69C3F10703042BF5
:1012EC0028BF0423BB61FB690433062B02D9FB69BD
:1012FC00033B00E000237B614FF0FF32BB6902FA35
:10130C0003F3DA43BB681A407B699A404FF0FF3114
:10131C007B6901FA03F3D9437B680B4013431846EE
:10132C002437BD4680BC704780B582B000AF786072
:10133C007B68013BB3F1807F01D301230FE00A4AA4
:10134C007B68013B53600F214FF0FF30FFF790FF9C
:10135C00054B00229A60044B07221A6000231846A2
:10136C000837BD4680BD00BF10E000E080B582B0FC
:10137C0000AF78607868FFF72DFF00BF0837BD46D7
:10138C0080BD80B586B000AF0346B9607A60FB7350
:10139C0000237B61FFF742FF78617A68B96878694E
:1013AC00FFF790FF024697F90F3011461846FFF7EA
:1013BC005FFF00BF1837BD4680BD80B582B000AF5F
:1013CC000346FB7197F907301846FFF735FF00BF4E
:1013DC000837BD4680BD80B582B000AF78607868B4
:1013EC00FFF7A2FF034618460837BD4680BD000034
:1013FC0080B48BB000AF7860396000237B6200232F
:10140C003B6248E101227B6A02FA03F3FB613B6811
:10141C001B68FA691340BB61BA69FB699A4240F0D8
:10142C0037813B685B68A34A93425ED0A14A9342E2
:10143C0075D8A14A934258D09F4A93426FD89F4A7D
:10144C00934252D09D4A934269D89D4A93424CD0C4
:10145C009B4A934263D89B4A934246D0994A934203
:10146C005DD8122B2AD8122B59D801A252F823F08E
:10147C00F7140008D1140008E3140008251500081F
:10148C002B1500082B1500082B1500082B15000830
:10149C002B1500082B1500082B1500082B15000820
:1014AC002B1500082B1500082B1500082B15000810
:1014BC002B150008D9140008ED140008824A934239
:1014CC0013D02CE03B68DB683B6229E03B68DB68AF
:1014DC0004333B6224E03B68DB6808333B621FE06B
:1014EC003B68DB680C333B621AE03B689B68002B63
:1014FC0002D104233B6213E03B689B68012B05D1AE
:10150C0008233B627B68FA691A6109E008233B6295
:10151C007B68FA695A6103E000233B6200E000BF7C
:10152C00BB69FF2B01D87B6801E07B6804337B61CE
:10153C00BB69FF2B02D87B6A9B0002E07B6A083BED
:10154C009B003B617B691A680F213B6901FA03F32D
:10155C00DB431A40396A3B6901FA03F31A437B698E
:10156C001A603B685B6803F08053002B00F090809E
:10157C00564B9B69554A43F001039361534B9B694E
:10158C0003F00103BB60BB68514A7B6A9B080233C2
:10159C0052F82330FB607B6A03F003039B000F229D
:1015AC0002FA03F3DB43FA681340FB607B68494A99
:1015BC0093420DD07B68484A934207D07B68474AD8
:1015CC00934201D1022304E0032302E0012300E053
:1015DC0000237A6A02F0030292009340FA681343E4
:1015EC00FB603B497B6A9B080233FA6841F8232075
:1015FC003B685B6803F48013002B06D0384B9A6869
:10160C003749BB6913438B6006E0354B9A68BB695D
:10161C00DB43334913408B603B685B6803F4001376
:10162C00002B06D02E4BDA682D49BB691343CB60D7
:10163C0006E02B4BDA68BB69DB4329491340CB60CE
:10164C003B685B6803F40033002B06D0244B5A68CC
:10165C002349BB6913434B6006E0214B5A68BB69B5
:10166C00DB431F4913404B603B685B6803F48033DA
:10167C00002B06D01A4B1A681949BB6913430B602F
:10168C0006E0174B1A68BB69DB43154913400B6026
:10169C007B6A01337B623B681A687B6A22FA03F32C
:1016AC00002B7FF4AFAE00BF00BF2C37BD4680BC13
:1016BC00704700BF000032100000311000002210F3
:1016CC000000211000001210000011100010024048
:1016DC000000014000080140000C014000100140D6
:1016EC000004014080B485B000AF78600B467B806D
:1016FC007B689A687B881340002B02D00123FB7314
:10170C0001E00023FB73FB7B18461437BD4680BCFD
:10171C00704780B483B000AF78600B467B80134673
:10172C007B707B78002B03D07A887B681A6103E08E
:10173C007B881A047B681A6100BF0C37BD4680BCDD
:10174C00704780B485B000AF78600B467B807B68B7
:10175C00DB68FB607A88FB6813401A04FB68D9438A
:10176C007B880B401A437B681A6100BF1437BD4657
:10177C0080BC704780B586B000AF78607B68002B6A
:10178C0001D101236CE27B681B6803F00103002B81
:10179C0000F08780924B5B6803F00C03042B0CD099
:1017AC008F4B5B6803F00C03082B12D18C4B5B68DE
:1017BC0003F48033B3F5803F0BD1894B1B6803F4E2
:1017CC000033002B6CD07B685B68002B68D1012345
:1017DC0046E27B685B68B3F5803F06D1804B1B68A3
:1017EC007F4A43F4803313602EE07B685B68002BE8
:1017FC000CD17B4B1B687A4A23F480331360784BF3
:10180C001B68774A23F4802313601DE07B685B68B8
:10181C00B3F5A02F0CD1724B1B68714A43F4802393
:10182C0013606F4B1B686E4A43F4803313600BE0FC
:10183C006B4B1B686A4A23F480331360684B1B683C
:10184C00674A23F4802313607B685B68002B13D0FA
:10185C00FFF7B6FC386108E0FFF7B2FC02463B69C3
:10186C00D31A642B01D90323FAE15D4B1B6803F4F3
:10187C000033002BF0D014E0FFF7A2FC386108E035
:10188C00FFF79EFC02463B69D31A642B01D9032354
:10189C00E6E1534B1B6803F40033002BF0D100E05E
:1018AC0000BF7B681B6803F00203002B63D04C4B1A
:1018BC005B6803F00C03002B0BD0494B5B6803F007
:1018CC000C03082B1CD1464B5B6803F48033002BB4
:1018DC0016D1434B1B6803F00203002B05D07B6829
:1018EC001B69012B01D00123BAE13D4B1B6823F08E
:1018FC00F8027B685B69DB00394913430B603AE003
:10190C007B681B69002B20D0364B01221A60FFF735
:10191C0057FC386108E0FFF753FC02463B69D31AC9
:10192C00022B01D903239BE12D4B1B6803F002030F
:10193C00002BF0D02A4B1B6823F0F8027B685B6904
:10194C00DB00274913430B6015E0264B00221A607D
:10195C00FFF736FC386108E0FFF732FC02463B69C2
:10196C00D31A022B01D903237AE11D4B1B6803F018
:10197C000203002BF0D17B681B6803F00803002BDB
:10198C003AD07B689B69002B19D0174B01221A6047
:10199C00FFF716FC386108E0FFF712FC02463B69C2
:1019AC00D31A022B01D903235AE10D4B5B6A03F0C6
:1019BC000203002BF0D0012000F09AFA1CE00A4B35
:1019CC0000221A60FFF7FCFB38610FE0FFF7F8FB11
:1019DC0002463B69D31A022B08D9032340E100BF0E
:1019EC000010024000004242800442429E4B5B6A5F
:1019FC0003F00203002BE9D17B681B6803F004039E
:101A0C00002B00F0A6800023FB75974BDB6903F0DD
:101A1C008053002B0DD1944BDB69934A43F08053D8
:101A2C00D361914BDB6903F08053BB60BB6801232E
:101A3C00FB758E4B1B6803F48073002B18D18B4BFA
:101A4C001B688A4A43F480731360FFF7B9FB386153
:101A5C0008E0FFF7B5FB02463B69D31A642B01D9AA
:101A6C000323FDE0814B1B6803F48073002BF0D043
:101A7C007B68DB68012B06D17B4B1B6A7A4A43F0EF
:101A8C00010313622DE07B68DB68002B0CD1764BD5
:101A9C001B6A754A23F001031362734B1B6A724A6B
:101AAC0023F0040313621CE07B68DB68052B0CD16C
:101ABC006D4B1B6A6C4A43F0040313626A4B1B6A3E
:101ACC00694A43F0010313620BE0674B1B6A664AD9
:101ADC0023F001031362644B1B6A634A23F0040373
:101AEC0013627B68DB68002B15D0FFF769FB38614C
:101AFC000AE0FFF765FB02463B69D31A41F28832D4
:101B0C00934201D90323ABE0574B1B6A03F002034A
:101B1C00002BEED014E0FFF753FB38610AE0FFF71F
:101B2C004FFB02463B69D31A41F28832934201D9EA
:101B3C00032395E04C4B1B6A03F00203002BEED100
:101B4C00FB7D012B05D1484BDB69474A23F08053C1
:101B5C00D3617B68DB69002B00F08180424B5B68B2
:101B6C0003F00C03082B61D07B68DB69022B46D198
:101B7C003F4B00221A60FFF723FB386108E0FFF7A8
:101B8C001FFB02463B69D31A022B01D9032367E0E2
:101B9C00354B1B6803F00073002BF0D17B681B6A7C
:101BAC00B3F5803F08D1304B5B6823F400327B687F
:101BBC009B682D4913434B602B4B5B6823F47412C9
:101BCC007B68196A7B685B6A0B43274913434B603C
:101BDC00274B01221A60FFF7F3FA386108E0FFF790
:101BEC00EFFA02463B69D31A022B01D9032337E0E3
:101BFC001D4B1B6803F00073002BF0D02FE01C4B27
:101C0C0000221A60FFF7DCFA386108E0FFF7D8FA17
:101C1C0002463B69D31A022B01D9032320E0124B55
:101C2C001B6803F00073002BF0D118E07B68DB69B4
:101C3C00012B01D1012313E00B4B5B68FB60FB68AC
:101C4C0003F480327B681B6A9A4206D1FB6803F46A
:101C5C0070127B685B6A9A4201D0012300E000237A
:101C6C0018461837BD4680BD001002400070004079
:101C7C006000424280B584B000AF786039607B6808
:101C8C00002B01D10123D0E06A4B1B6803F0070342
:101C9C003A689A4210D9674B1B6823F007026549D2
:101CAC003B6813430B60634B1B6803F007033A68F4
:101CBC009A4201D00123B8E07B681B6803F0020351
:101CCC00002B20D07B681B6803F00403002B05D08D
:101CDC00594B5B68584A43F4E06353607B681B685C
:101CEC0003F00803002B05D0534B5B68524A43F4B6
:101CFC0060535360504B5B6823F0F0027B689B6829
:101D0C004D4913434B607B681B6803F00103002BA8
:101D1C0040D07B685B68012B07D1474B1B6803F4F1
:101D2C000033002B15D101237FE07B685B68022B0D
:101D3C0007D1414B1B6803F00073002B09D1012321
:101D4C0073E03D4B1B6803F00203002B01D1012310
:101D5C006BE0394B5B6823F003027B685B683649A8
:101D6C0013434B60FFF72CFAF8600AE0FFF728FAF0
:101D7C000246FB68D31A41F28832934201D90323FD
:101D8C0053E02D4B5B6803F00C027B685B689B0097
:101D9C009A42EBD1274B1B6803F007033A689A422F
:101DAC0010D2244B1B6823F0070222493B681343D3
:101DBC000B60204B1B6803F007033A689A4201D072
:101DCC00012332E07B681B6803F00403002B08D06E
:101DDC00194B5B6823F4E0627B68DB68164913439C
:101DEC004B607B681B6803F00803002B09D0124B77
:101DFC005B6823F460527B681B69DB000E4913435C
:101E0C004B6000F021F802460B4B5B681B0903F09A
:101E1C000F030A49CB5C22FA03F3094A1360094BFE
:101E2C001B681846FFF78AF9002318461037BD4681
:101E3C0080BD00BF0020024000100240782700083F
:101E4C00200000202400002080B487B000AF0023C5
:101E5C00FB600023BB6000237B6100237B600023BD
:101E6C003B611E4B5B68FB60FB6803F00C03042BAF
:101E7C0002D0082B03D027E0194B3B6127E0FB680D
:101E8C009B0C03F00F03174AD35C7B60FB6803F4D5
:101E9C008033002B10D0114B5B685B0C03F00103FB
:101EAC00114AD35CBB607B680D4A02FB03F2BB6832
:101EBC00B2FBF3F37B6104E07B680C4A02FB03F397
:101ECC007B617B693B6102E0054B3B6100BF3B6979
:101EDC0018461C37BD4680BC704700BF001002403E
:101EEC0000127A00882700089827000800093D0096
:101EFC0080B485B000AF78600A4B1B680A4AA2FB1D
:101F0C0003235B0A7A6802FB03F3FB6000BFFB68E8
:101F1C005A1EFA60002BF9D100BF00BF1437BD4622
:101F2C0080BC704720000020D34D621080B582B079
:101F3C0000AF78607B68002B01D1012341E07B6806
:101F4C0093F83D30DBB2002B06D17B68002283F87E
:101F5C003C207868FFF75AF87B68022283F83D2012
:101F6C007B681A687B6804331946104600F06EFAD9
:101F7C007B68012283F846207B68012283F83E208F
:101F8C007B68012283F83F207B68012283F8402084
:101F9C007B68012283F841207B68012283F8422070
:101FAC007B68012283F843207B68012283F844205C
:101FBC007B68012283F845207B68012283F83D2051
:101FCC00002318460837BD4680BD000080B485B09C
:101FDC0000AF78607B6893F83D30DBB2012B01D009
:101FEC00012335E07B68022283F83D207B681B6867
:101FFC00DA687B681B6842F00102DA607B681B6858
:10200C00164A934209D07B681B68B3F1804F04D009
:10201C007B681B68124A934211D17B681B689B68D2
:10202C0003F00703FB60FB68062B10D07B681B6872
:10203C001A687B681B6842F001021A6007E07B6833
:10204C001B681A687B681B6842F001021A60002347
:10205C0018461437BD4680BC704700BF002C0140A9
:10206C000004004080B582B000AF78607B681B68CC
:10207C001B6903F00203022B22D17B681B68DB680F
:10208C0003F00203022B1BD17B681B686FF002026A
:10209C001A617B6801221A777B681B689B6903F0C5
:1020AC000303002B03D0786800F0B4F905E07868DE
:1020BC0000F0A7F9786800F0B6F97B6800221A776F
:1020CC007B681B681B6903F00403042B22D17B681B
:1020DC001B68DB6803F00403042B1BD17B681B68B3
:1020EC006FF004021A617B6802221A777B681B6806
:1020FC009B6903F44073002B03D0786800F08AF9D5
:10210C0005E0786800F07DF9786800F08CF97B6860
:10211C0000221A777B681B681B6903F00803082BE5
:10212C0022D17B681B68DB6803F00803082B1BD1EA
:10213C007B681B686FF008021A617B6804221A77AF
:10214C007B681B68DB6903F00303002B03D0786802
:10215C0000F060F905E0786800F053F9786800F059
:10216C0062F97B6800221A777B681B681B6903F095
:10217C001003102B22D17B681B68DB6803F0100363
:10218C00102B1BD17B681B686FF010021A617B68E7
:10219C0008221A777B681B68DB6903F44073002BF9
:1021AC0003D0786800F036F905E0786800F029F97A
:1021BC00786800F038F97B6800221A777B681B6816
:1021CC001B6903F00103012B0ED17B681B68DB68D4
:1021DC0003F00103012B07D17B681B686FF0010230
:1021EC001A617868FEF75CFE7B681B681B6903F05C
:1021FC008003802B0ED17B681B68DB6803F08003A7
:10220C00802B07D17B681B686FF080021A6178689D
:10221C0000F06BFA7B681B681B6903F04003402BD2
:10222C000ED17B681B68DB6803F04003402B07D1A1
:10223C007B681B686FF040021A61786800F0FCF84C
:10224C007B681B681B6903F02003202B0ED17B6875
:10225C001B68DB6803F02003202B07D17B681B680D
:10226C006FF020021A61786800F036FA00BF083768
:10227C00BD4680BD80B584B000AF78603960002366
:10228C00FB737B6893F83C30012B01D10223B4E043
:10229C007B68012283F83C207B68022283F83D2076
:1022AC007B681B689B68BB60BB6823F07703BB60D3
:1022BC00BB6823F47F43BB607B681B68BA689A6079
:1022CC003B681B68B3F5005F3ED0B3F5005F00F2CE
:1022DC008780B3F5805F00F08680B3F5805F7FD890
:1022EC00702B1AD0702B7BD8602B50D0602B77D8EA
:1022FC00502B3CD0502B73D8402B58D0402B6FD840
:10230C00302B64D0302B6BD8202B60D0202B67D88F
:10231C00002B5CD0102B5AD062E07B6818683B68AD
:10232C0099683B685A683B68DB6800F05EF97B682B
:10233C001B689B68BB60BB6843F07703BB607B6822
:10234C001B68BA689A604FE07B6818683B689968AC
:10235C003B685A683B68DB6800F047F97B681B6890
:10236C009A687B681B6842F480429A603CE07B6808
:10237C0018683B6859683B68DB681A4600F0BEF881
:10238C007B681B685021184600F015F92CE07B681F
:10239C0018683B6859683B68DB681A4600F0DCF843
:1023AC007B681B686021184600F005F91CE07B680F
:1023BC0018683B6859683B68DB681A4600F09EF861
:1023CC007B681B684021184600F0F5F80CE07B6830
:1023DC001A683B681B681946104600F0ECF803E0DD
:1023EC000123FB7300E000BF7B68012283F83D20D2
:1023FC007B68002283F83C20FB7B18461037BD46D7
:10240C0080BD80B483B000AF786000BF0C37BD4690
:10241C0080BC704780B483B000AF786000BF0C37CD
:10242C00BD4680BC704780B483B000AF786000BFFD
:10243C000C37BD4680BC704780B483B000AF786069
:10244C0000BF0C37BD4680BC7047000080B485B01F
:10245C0000AF786039607B681B68FB607B68254A3D
:10246C00934207D07B68B3F1804F03D07B68224A3C
:10247C00934208D1FB6823F07003FB603B685B68F8
:10248C00FA681343FB607B681A4A934207D07B6857
:10249C00B3F1804F03D07B68174A934208D1FB6895
:1024AC0023F44073FB603B68DB68FA681343FB6002
:1024BC00FB6823F080023B685B691343FB607B681D
:1024CC00FA681A603B689A687B68DA623B681A683B
:1024DC007B689A627B68074A934203D13B681A690E
:1024EC007B681A637B6801225A6100BF1437BD46B2
:1024FC0080BC7047002C01400004004080B487B0C1
:10250C0000AFF860B9607A60FB681B6A7B61FB689E
:10251C001B6A23F00102FB681A62FB689B693B6132
:10252C003B6923F0F0033B617B681B013A69134361
:10253C003B617B6923F00A037B617A69BB681343B7
:10254C007B61FB683A699A61FB687A691A6200BF21
:10255C001C37BD4680BC704780B487B000AFF860B4
:10256C00B9607A60FB681B6A7B61FB681B6A23F0AD
:10257C001002FB681A62FB689B693B613B6923F4A0
:10258C0070433B617B681B033A6913433B617B6976
:10259C0023F0A0037B61BB681B017A6913437B6149
:1025AC00FB683A699A61FB687A691A6200BF1C374A
:1025BC00BD4680BC704780B485B000AF7860396090
:1025CC007B689B68FB60FB6823F07003FB603A68D8
:1025DC00FB68134343F00703FB607B68FA689A605F
:1025EC0000BF1437BD4680BC704780B487B000AFC5
:1025FC00F860B9607A603B60FB689B687B617B69C3
:10260C0023F47F437B613B681A027B681A43BB68E7
:10261C0013437A6913437B61FB687A699A6000BF44
:10262C001C37BD4680BC704780B485B000AF786065
:10263C0039607B6893F83C30012B01D1022341E0D7
:10264C007B68012283F83C207B68022283F83D20C2
:10265C007B681B685B68FB607B681B689B68BB6066
:10266C00FB6823F07003FB603B681B68FA6813433C
:10267C00FB607B681B68FA685A607B681B68144AAD
:10268C00934209D07B681B68B3F1804F04D07B6800
:10269C001B68104A93420CD1BB6823F08003BB60CB
:1026AC003B685B68BA681343BB607B681B68BA689D
:1026BC009A607B68012283F83D207B68002283F8B6
:1026CC003C20002318461437BD4680BC704700BF21
:1026DC00002C01400004004080B483B000AF78604F
:1026EC0000BF0C37BD4680BC704780B483B000AFD0
:1026FC00786000BF0C37BD4680BC704770B50026B3
:10270C000C4D0D4C641BA410A64209D100F022F80C
:10271C0000260A4D0A4C641BA410A64205D170BDBC
:10272C0055F8043B98470136EEE755F8043B9847BB
:10273C000136F2E79C2700089C2700089C2700081C
:10274C00A027000803460244934200D1704703F8C7
:10275C00011BF9E7F8B500BFF8BC08BC9E467047F2
:0C276C00F8B500BFF8BC08BC9E467047E2
:102778000000000000000000010203040607080929
:1027880002030405060708090A0B0C0D0E0F1010AA
:04279800010200003A
:04279C0031010008FF
:0427A0000D0100081F
:1027A4000C0000001E0000003900000001000000C1
:1027B400020000000300000000000000010000000F
:0C27C4000024F4001000000001000000E0
:04000005080010D10E
:00000001FF
