:020000040800F2
:1000000000500020ED1000087D100008831000084B
:10001000891000088F1000089510000800000000EB
:100020000000000000000000000000009B1000081D
:10003000A710000800000000B3100008BF1000085F
:100040003511000835110008351100083511000878
:100050003511000835110008351100083511000868
:100060003511000835110008351100083511000858
:100070003511000835110008351100083511000848
:100080003511000835110008351100083511000838
:100090003511000835110008351100083511000828
:1000A0003511000835110008351100083511000818
:1000B000CD10000835110008351100083511000871
:1000C00035110008351100083511000835110008F8
:1000D00035110008351100083511000835110008E8
:1000E0003511000835110008351100080000000026
:1000F0000000000000000000000000000000000000
:0C01000000000000000000005FF808F1A3
:10010C0010B5054C237833B9044B13B10448AFF345
:10011C0000800123237010BD40010020000000006E
:10012C00BC27000808B5034B1BB103490348AFF3C8
:10013C00008008BD0000000044010020BC2700081E
:10014C0080B500AF374B1B68042B62D801A252F864
:10015C0023F000BF750100081F020008950100087C
:10016C00C3010008F1010008012202212E4801F010
:10017C00E8FA012210212C4801F0E3FA01220121B6
:10018C002A4801F0DEFA4BE0294B1B68012B42D1C7
:10019C004FF4FA7000F0BAFE0221234801F0E9FA9C
:1001AC0001221021204801F0CCFA012201211F4824
:1001BC0001F0C7FA2FE01E4B1B68012B2DD14FF419
:1001CC00FA7000F0A3FE01220221174801F0B9FADF
:1001DC001021154801F0CDFA01220121134801F03C
:1001EC00B0FA1AE0124B1B68012B18D14FF4FA70BD
:1001FC0000F08CFE012202210B4801F0A2FA012230
:10020C001021094801F09DFA0121084801F0B1FACA
:10021C0005E000BF04E000BF02E000BF00E000BF4B
:10022C0000BF80BD8801002000080140000C014087
:10023C00A801002080B483B000AF00237B600CE0E9
:10024C000A4A7B68002142F82310094A7B68002186
:10025C0042F823107B6801337B607B68022BEFDD57
:10026C0000BF00BF0C37BD4680BC70475C0100204E
:10027C006801002080B483B000AF7860044A7B68CA
:10028C00012142F8231000BF0C37BD4680BC7047DB
:10029C005C01002080B483B000AF7860044A7B68B6
:1002AC00012142F8231000BF0C37BD4680BC7047BB
:1002BC006801002080B483B000AF7860094A7B6885
:1002CC0052F82330012B06D1064A7B68002142F8F4
:1002DC002310012300E0002318460C37BD4680BCD8
:1002EC00704700BF5C01002080B483B000AF786021
:1002FC00094A7B6852F82330012B06D1064A7B68E9
:10030C00002142F82310012300E0002318460C378B
:10031C00BD4680BC704700BF6801002080B582B02C
:10032C0000AF7860544A7B6852F8232053497B68AD
:10033C0041F82320524A7B6852F823204E497B68AF
:10034C0041F823207B68022B1BD07B68022B21DC1D
:10035C007B68002B03D07B68012B09D01AE00221AB
:10036C00484801F0D7F903461A46454B1A6012E08B
:10037C000121444801F0CEF903461A46404B5A601D
:10038C0009E002213F4801F0C5F903461A463C4BEF
:10039C009A6000E000BF394A7B6852F82320364946
:1003AC007B6851F823309A4262D1334A7B6852F809
:1003BC00232033497B6851F823309A4258D1304A74
:1003CC007B6852F8232030497B6851F823309A42DD
:1003DC002CD02B4A7B6852F823202B497B6841F8A0
:1003EC002320274A7B6852F82330012B0DD1274A52
:1003FC007B6852F82330012B07D1244A7B680021FB
:10040C0042F823107868FFF735FF1D4A7B6852F8D5
:10041C002330002B04D11D4A7B68012142F82310A4
:10042C001B4A7B68C82142F8231021E0184A7B68DC
:10043C0052F823305A1E16497B6841F82320144A7F
:10044C007B6852F82330002B12D10D4A7B6852F88E
:10045C002330002B07D10D4A7B68002142F8231072
:10046C007868FFF717FF0A4A7B68C82142F8231007
:10047C0000BF0837BD4680BD0C00002000000020E6
:10048C0018000020001001402400002074010020FE
:10049C003000002080B582B000AF00237B6005E007
:1004AC007868FFF73BFF7B6801337B607B68022B2E
:1004BC00F6DD00BF00BF0837BD4680BD80B500AF7C
:1004CC00184B1B68082B02DD164B01221A60164BC9
:1004DC001B68012B0FD1022000F0E4FC134B1B68AE
:1004EC00104A12681146184600F02AF90D4B1B6889
:1004FC0001330C4A13600E4B1B68012B0FD10B4BB5
:10050C001B680133094A13604FF4FA7000F0E4FCE5
:10051C00064B1B680D2B02DD044B00221A6000BF3A
:10052C0080BD00BF3C00002098010020800100200D
:10053C00A001002080B500AF074B00221A60074BCA
:10054C0000221A60022000F0ADFC4FF4FA7000F0AB
:10055C00C3FC00BF80BD00BF3C0000208001002018
:10056C0080B500AF574B1B68042B00F2A18001A291
:10057C0052F823F095050008BD060008B5050008E3
:10058C00ED050008550600084E4B02221A60FFF7D5
:10059C00D1FF4FF4FA7000F0B9FC4B4B0F221A60EC
:1005AC004A4B0D221A608AE0FFF788FFFFF7C8FD5F
:1005BC000020FFF77FFE0346002B05D10020FFF73C
:1005CC0093FE0346002B75D03E4B03221A60FFF7B7
:1005DC00B1FF4FF4FA7000F099FCFFF72BFE69E0C5
:1005EC00FFF76CFFFFF7ACFD0020FFF763FE03463F
:1005FC00002B05D10020FFF777FE0346002B08D017
:10060C00304B04221A60FFF795FF4FF4FA7000F09C
:10061C007DFC0120FFF74EFE0346002B05D1012087
:10062C00FFF762FE0346002B46D0274B1B680133B5
:10063C00254A1360244B1B68102B02DD224B0F2222
:10064C001A60FFF777FF37E0FFF738FFFFF778FD09
:10065C000020FFF72FFE0346002B05D10020FFF7EB
:10066C0043FE0346002B08D0164B02221A60FFF7FC
:10067C0061FF4FF4FA7000F049FC0120FFF71AFEFD
:10068C000346002B05D10120FFF72EFE0346002B5D
:10069C0014D00E4B1B6801330C4A13600B4B1B68B8
:1006AC000E2B02DD094B0D221A60FFF743FF05E00C
:1006BC0000BF04E000BF02E000BF00E000BF00BFCD
:1006CC0080BD00BF880100208C010020900100201B
:1006DC0080B400AF174B1B680F2B06D1164B1B6851
:1006EC000D2B02D1154B01221A60124B1B680F2BDC
:1006FC0006D1114B1B680E2B02D1104B04221A6031
:10070C000C4B1B68102B06D10B4B1B680D2B02D10D
:10071C000A4B07221A60074B1B68102B06D1064B9D
:10072C001B680E2B02D1054B0A221A6000BFBD4676
:10073C0080BC70478C0100209001002084010020B7
:10074C0080B582B000AF78603960FFF7C1FF2B4BEA
:10075C001B68013B092B4BD801A252F823F000BFB8
:10076C0095070008FD070008FD070008AB07000807
:10077C00FD070008FD070008C9070008FD07000871
:10078C00FD070008DF070008386800F041F83B68F7
:10079C00013B1B4AD35C184600F0C2F929E03868CB
:1007AC0000F036F83B68013B16497A68D2000A44DF
:1007BC0013441B78184600F0B3F91AE0386800F0BF
:1007CC0027F83B68013B104AD35C184600F0A8F9A7
:1007DC000FE0386800F01CF83B68013B0B497A6865
:1007EC00D2000A4413441B78184600F099F900E033
:1007FC0000BF00BF0837BD4680BD00BF840100208C
:10080C004000002048000020B8000020C00000205C
:10081C0080B582B000AF78607B68013B072B00F29B
:10082C00738101A252F823F055080008AD080008A6
:10083C00050900085D090008B50900080D0A000843
:10084C00650A0008BD0A000801224FF40071B14886
:10085C0000F077FF00228021AF4800F072FF0022E9
:10086C004021AE4800F06DFF00228021A94800F025
:10087C0068FF00224021A74800F063FF00222021DE
:10088C00A44800F05EFF00224FF40071A34800F072
:10089C0058FF00224FF48071A04800F052FF34E161
:1008AC0000224FF400719B4800F04BFF0122802185
:1008BC00994800F046FF00224021984800F041FF83
:1008CC0000228021934800F03CFF002240219148F7
:1008DC0000F037FF002220218E4800F032FF00226A
:1008EC004FF400718D4800F02CFF00224FF4807102
:1008FC008A4800F026FF08E100224FF40071854879
:10090C0000F01FFF00228021834800F01AFF012213
:10091C004021824800F015FF002280217D4800F024
:10092C0010FF002240217B4800F00BFF0022202109
:10093C00784800F006FF00224FF40071774800F071
:10094C0000FF00224FF48071744800F0FAFEDCE0E6
:10095C0000224FF400716F4800F0F3FE002280215A
:10096C006D4800F0EEFE002240216C4800F0E9FEDC
:10097C0001228021674800F0E4FE002240216548F6
:10098C0000F0DFFE00222021624800F0DAFE002297
:10099C004FF40071614800F0D4FE00224FF48071D6
:1009AC005E4800F0CEFEB0E000224FF400715948D2
:1009BC0000F0C7FE00228021574800F0C2FE002242
:1009CC004021564800F0BDFE00228021514800F025
:1009DC00B8FE012240214F4800F0B3FE0022202136
:1009EC004C4800F0AEFE00224FF400714B4800F072
:1009FC00A8FE00224FF48071484800F0A2FE84E06B
:100A0C0000224FF40071434800F09BFE002280212D
:100A1C00414800F096FE00224021404800F091FE33
:100A2C00002280213B4800F08CFE002240213948F6
:100A3C0000F087FE01222021364800F082FE0022C1
:100A4C004FF40071354800F07CFE00224FF48071A9
:100A5C00324800F076FE58E000224FF400712D4829
:100A6C0000F06FFE002280212B4800F06AFE00226D
:100A7C0040212A4800F065FE00228021254800F024
:100A8C0060FE00224021234800F05BFE0022202162
:100A9C00204800F056FE01224FF400711F4800F070
:100AAC0050FE00224FF480711C4800F04AFE2CE0EE
:100ABC0000224FF40071174800F043FE0022802101
:100ACC00154800F03EFE00224021144800F039FE8B
:100ADC00002280210F4800F034FE002240210D48F6
:100AEC0000F02FFE002220210A4800F02AFE0022EE
:100AFC004FF40071094800F024FE01224FF480717C
:100B0C00064800F01EFE00E000BF00BF0837BD46DF
:100B1C0080BD00BF0008014000100140000C0140E6
:100B2C0080B582B000AF0346FB71FB7903F0010383
:100B3C00002B05D001220821404800F002FE04E001
:100B4C00002208213D4800F0FCFDFB7903F0020374
:100B5C00002B05D001220421384800F0F2FD04E0FE
:100B6C0000220421354800F0ECFDFB7903F004036E
:100B7C00002B06D001224FF48061304800F0E1FDDB
:100B8C0005E000224FF480612C4800F0DAFDFB797F
:100B9C0003F00803002B05D001220821284800F09F
:100BAC00D0FD04E000220821254800F0CAFDFB79A5
:100BBC0003F01003002B05D001222021204800F067
:100BCC00C0FD04E0002220211D4800F0BAFDFB7995
:100BDC0003F02003002B05D001221021184800F04F
:100BEC00B0FD04E000221021154800F0AAFDFB79AD
:100BFC0003F04003002B06D001224FF48061104813
:100C0C0000F09FFD05E000224FF480610C4800F0DD
:100C1C0098FD97F90730002B06DA01224FF480710A
:100C2C00064800F08EFD05E000224FF48071034869
:100C3C0000F087FD00BF0837BD4680BD00080140AD
:100C4C00000C014080B500AF00F070FA00F00CF819
:100C5C0000F092F800F044F8024801F0CFF9FFF7E9
:100C6C007FFCFCE7AC01002080B590B000AF07F131
:100C7C00180328220021184601F092FD3B1D00228A
:100C8C001A605A609A60DA601A610223BB61012310
:100C9C00BB621023FB6200237B6307F11803184629
:100CAC0000F080FD0346002B01D000F0F5F80F2377
:100CBC007B600023BB600023FB6000233B610023AF
:100CCC007B613B1D0021184600F0ECFF0346002B16
:100CDC0001D000F0E1F800BF4037BD4680BD0000F8
:100CEC0080B586B000AF07F1080300221A605A6085
:100CFC009A60DA603B4600221A605A601D4B4FF036
:100D0C0080421A601B4B40F21F325A60194B002272
:100D1C009A60184B0922DA60164B00221A61154BA7
:100D2C0000229A61134801F019F90346002B01D0F7
:100D3C0000F0B2F84FF48053BB6007F1080319467A
:100D4C000C4801F0B5FA0346002B01D000F0A4F8D2
:100D5C0000233B6000237B603B461946054801F0AD
:100D6C008BFC0346002B01D000F096F800BF18371F
:100D7C00BD4680BDAC01002080B588B000AF07F146
:100D8C00100300221A605A609A60DA60384B9B6933
:100D9C00374A43F010039361354B9B6903F0100302
:100DAC00FB60FB68324B9B69314A43F0040393614F
:100DBC002F4B9B6903F00403BB60BB682C4B9B69F6
:100DCC002B4A43F008039361294B9B6903F00803FA
:100DDC007B607B68002240F2FE71264800F0B1FC7B
:100DEC00002240F27971244800F0ABFC00228021F3
:100DFC00224800F0A6FC03233B6100237B61012306
:100E0C00BB6107F1100319461C4800F0FFFA40F2D1
:100E1C00FE733B6101237B610023BB610223FB61F9
:100E2C0007F110031946134800F0F0FA40F27973F9
:100E3C003B6101237B610023BB610223FB6107F152
:100E4C00100319460C4800F0E1FA80233B610123A2
:100E5C007B610023BB610223FB6107F11003194680
:100E6C00064800F0D3FA00BF2037BD4680BD00BF56
:100E7C000010024000080140000C0140001001402D
:100E8C0080B582B000AF786000F05AF8FFF702FB33
:100E9C0000BF0837BD4680BD80B400AF72B600BF3E
:100EAC00FEE7000080B483B000AF7860074B1B688E
:100EBC007A6892FBF3F3064A1360064B00221A6021
:100ECC0000BF0C37BD4680BC704700BF300100200E
:100EDC00940100209801002080B483B000AF7860AA
:100EEC00074B1B687A6892FBF3F3064A1360064BB8
:100EFC0000221A6000BF0C37BD4680BC704700BF93
:100F0C00300100209C010020A001002080B483B09F
:100F1C0000AF7860074B1B687A6892FBF3F3064AC4
:100F2C001360064B00221A6000BF0C37BD4680BC14
:100F3C00704700BF30010020A4010020A801002050
:100F4C0080B400AF194B1B68002B0BDD174B1B68D3
:100F5C00013B164A1360154B1B68002B02DC144B2B
:100F6C0001221A60134B1B68002B0BDD114B1B6805
:100F7C00013B104A13600F4B1B68002B02DC0E4B1D
:100F8C0001221A600D4B1B68002B0BDD0B4B1B68F1
:100F9C00013B0A4A1360094B1B68002B02DC084B0F
:100FAC0001221A6000BFBD4680BC7047940100202E
:100FBC00980100209C010020A0010020A401002029
:100FCC00A801002080B485B000AF154B9B69144A72
:100FDC0043F001039361124B9B6903F00103BB6067
:100FEC00BB680F4BDB690E4A43F08053D3610C4B4B
:100FFC00DB6903F080537B607B680A4B5B68FB60AA
:10100C00FB6823F0E063FB60FB6843F00073FB605C
:10101C00044AFB68536000BF1437BD4680BC704760
:10102C00001002400000014080B584B000AF786031
:10103C007B681B68B3F1804F13D10C4BDB690B4AF7
:10104C0043F00103D361094BDB6903F00103FB603F
:10105C00FB68002200211C2000F0A1F91C2000F0EC
:10106C00BAF900BF1037BD4680BD00BF001002406A
:10107C0080B400AFFEE780B400AFFEE780B400AFF1
:10108C00FEE780B400AFFEE780B400AFFEE780B4AB
:10109C0000AF00BFBD4680BC704780B400AF00BF3E
:1010AC00BD4680BC704780B400AF00BFBD4680BC5D
:1010BC00704780B500AF00F07FF800BF80BD000026
:1010CC0080B500AF024800F0EBFF00BF80BD00BF51
:1010DC00AC01002080B400AF00BFBD4680BC70479F
:1010EC00FFF7F8FF0B480C490C4A002302E0D458D8
:1010FC00C4500433C4188C42F9D3094A094C002358
:10110C0001E013600432A242FBD301F025FBFFF790
:10111C0099FD7047000000204001002000280008C5
:10112C0040010020F8010020FEE7000080B500AF70
:10113C00084B1B68074A43F010031360032000F0B0
:10114C0023F90F2000F008F8FFF73CFF00231846A6
:10115C0080BD00BF0020024080B582B000AF786037
:10116C00124B1A68124B1B7819464FF47A73B3FB67
:10117C00F1F3B2FBF3F3184600F03BF90346002BF6
:10118C0001D001230EE07B680F2B0AD8002279686E
:10119C004FF0FF3000F003F9064A7B681360002320
:1011AC0000E0012318460837BD4680BD34010020FD
:1011BC003C0100203801002080B400AF054B1B78A7
:1011CC001A46054B1B681344034A136000BFBD4607
:1011DC0080BC70473C010020F401002080B400AFBB
:1011EC00024B1B681846BD4680BC7047F4010020BA
:1011FC0080B485B000AF78607B6803F00703FB60B8
:10120C000C4BDB68BB60BA684FF6FF031340BB6046
:10121C00FB681A02BB68134343F0BF6343F400330B
:10122C00BB60044ABB68D36000BF1437BD4680BCAA
:10123C00704700BF00ED00E080B400AF044BDB68EA
:10124C001B0A03F007031846BD4680BC704700BF5D
:10125C0000ED00E080B483B000AF0346FB7197F95A
:10126C000730002B0BDBFB7903F01F02064997F9C3
:10127C0007305B09012000FA02F241F8232000BF7D
:10128C000C37BD4680BC704700E100E080B483B0F1
:10129C0000AF03463960FB7197F90730002B0ADB6E
:1012AC003B68DAB20C4997F907301201D2B20B4401
:1012BC0083F800230AE03B68DAB20849FB7903F0B3
:1012CC000F03043B1201D2B20B441A7600BF0C3749
:1012DC00BD4680BC704700BF00E100E000ED00E0BF
:1012EC0080B489B000AFF860B9607A60FB6803F035
:1012FC000703FB61FB69C3F10703042B28BF04231D
:10130C00BB61FB690433062B02D9FB69033B00E08C
:10131C0000237B614FF0FF32BB6902FA03F3DA431F
:10132C00BB681A407B699A404FF0FF317B6901FA28
:10133C0003F3D9437B680B40134318462437BD464F
:10134C0080BC704780B582B000AF78607B68013B91
:10135C00B3F1807F01D301230FE00A4A7B68013B84
:10136C0053600F214FF0FF30FFF790FF054B002229
:10137C009A60044B07221A60002318460837BD46B2
:10138C0080BD00BF10E000E080B582B000AF786097
:10139C007868FFF72DFF00BF0837BD4680BD80B5CC
:1013AC0086B000AF0346B9607A60FB7300237B61A3
:1013BC00FFF742FF78617A68B9687869FFF790FFA8
:1013CC00024697F90F3011461846FFF75FFF00BF32
:1013DC001837BD4680BD80B582B000AF0346FB71A7
:1013EC0097F907301846FFF735FF00BF0837BD46A1
:1013FC0080BD80B582B000AF78607868FFF7A2FF3F
:10140C00034618460837BD4680BD000080B48BB03B
:10141C0000AF7860396000237B6200233B6269E196
:10142C0001227B6A02FA03F3FB613B681B68FA69D1
:10143C001340BB61BA69FB699A4240F058813B6822
:10144C005B689A4A93425ED0984A934275D8984A00
:10145C00934258D0964A93426FD8964A934252D0B0
:10146C00944A934269D8944A93424CD0924A9342FC
:10147C0063D8924A934246D0904A93425DD8122B3D
:10148C002AD8122B59D801A252F823F013150008B0
:10149C00ED140008FF14000841150008471500085A
:1014AC0047150008471500084715000847150008A0
:1014BC004715000847150008471500084715000890
:1014CC004715000847150008471500084715000880
:1014DC00F514000809150008794A934213D02CE042
:1014EC003B68DB683B6229E03B68DB6804333B62AA
:1014FC0024E03B68DB6808333B621FE03B68DB6839
:10150C000C333B621AE03B689B68002B02D104232E
:10151C003B6213E03B689B68012B05D108233B62BF
:10152C007B68FA691A6109E008233B627B68FA69F7
:10153C005A6103E000233B6200E000BFBB69FF2B54
:10154C0001D87B6801E07B6804337B61BB69FF2BAE
:10155C0002D87B6A9B0002E07B6A083B9B003B61E4
:10156C007B691A680F213B6901FA03F3DB431A40CC
:10157C00396A3B6901FA03F31A437B691A603B68C9
:10158C005B6803F08053002B00F0B1804D4B9B69DE
:10159C004C4A43F0010393614A4B9B6903F00103EE
:1015AC00BB60BB68484A7B6A9B08023352F8233005
:1015BC00FB607B6A03F003039B000F2202FA03F328
:1015CC00DB43FA681340FB607B68404A934213D0BC
:1015DC007B683F4A93420DD07B683E4A934207D0CA
:1015EC007B683D4A934201D1032306E0042304E0C7
:1015FC00022302E0012300E000237A6A02F00302D6
:10160C0092009340FA681343FB602F497B6A9B0856
:10161C000233FA6841F823203B685B6803F48013BB
:10162C00002B06D02D4B9A682C49BB6913438B6059
:10163C0006E02A4B9A68BB69DB43284913408B6050
:10164C003B685B6803F40013002B06D0234BDA686D
:10165C002249BB691343CB6006E0204BDA68BB69B7
:10166C00DB431E491340CB603B685B6803F40033DB
:10167C00002B06D0194B5A681849BB6913434B60B1
:10168C0006E0164B5A68BB69DB43144913404B60A8
:10169C003B685B6803F48033002B21D00F4B1A6836
:1016AC000E49BB6913430B6021E000BF00003210F0
:1016BC000000311000002210000021100000121058
:1016CC000000111000100240000001400008014011
:1016DC00000C0140001001400014014000040140C6
:1016EC000B4B1A68BB69DB43094913400B607B6ADF
:1016FC0001337B623B681A687B6A22FA03F3002B86
:10170C007FF48EAE00BF00BF2C37BD4680BC704747
:10171C000004014080B485B000AF78600B467B803C
:10172C007B689A687B881340002B02D00123FB73E3
:10173C0001E00023FB73FB7B18461437BD4680BCCD
:10174C00704780B483B000AF78600B467B80134643
:10175C007B707B78002B03D07A887B681A6103E05E
:10176C007B881A047B681A6100BF0C37BD4680BCAD
:10177C00704780B485B000AF78600B467B807B6887
:10178C00DB68FB607A88FB6813401A04FB68D9435A
:10179C007B880B401A437B681A6100BF1437BD4627
:1017AC0080BC704780B586B000AF78607B68002B3A
:1017BC0001D101236CE27B681B6803F00103002B51
:1017CC0000F08780924B5B6803F00C03042B0CD069
:1017DC008F4B5B6803F00C03082B12D18C4B5B68AE
:1017EC0003F48033B3F5803F0BD1894B1B6803F4B2
:1017FC000033002B6CD07B685B68002B68D1012315
:10180C0046E27B685B68B3F5803F06D1804B1B6872
:10181C007F4A43F4803313602EE07B685B68002BB7
:10182C000CD17B4B1B687A4A23F480331360784BC2
:10183C001B68774A23F4802313601DE07B685B6888
:10184C00B3F5A02F0CD1724B1B68714A43F4802363
:10185C0013606F4B1B686E4A43F4803313600BE0CC
:10186C006B4B1B686A4A23F480331360684B1B680C
:10187C00674A23F4802313607B685B68002B13D0CA
:10188C00FFF7ACFC386108E0FFF7A8FC02463B69A7
:10189C00D31A642B01D90323FAE15D4B1B6803F4C3
:1018AC000033002BF0D014E0FFF798FC386108E00F
:1018BC00FFF794FC02463B69D31A642B01D903232E
:1018CC00E6E1534B1B6803F40033002BF0D100E02E
:1018DC0000BF7B681B6803F00203002B63D04C4BEA
:1018EC005B6803F00C03002B0BD0494B5B6803F0D7
:1018FC000C03082B1CD1464B5B6803F48033002B84
:10190C0016D1434B1B6803F00203002B05D07B68F8
:10191C001B69012B01D00123BAE13D4B1B6823F05D
:10192C00F8027B685B69DB00394913430B603AE0D2
:10193C007B681B69002B20D0364B01221A60FFF705
:10194C004DFC386108E0FFF749FC02463B69D31AAD
:10195C00022B01D903239BE12D4B1B6803F00203DF
:10196C00002BF0D02A4B1B6823F0F8027B685B69D4
:10197C00DB00274913430B6015E0264B00221A604D
:10198C00FFF72CFC386108E0FFF728FC02463B69A6
:10199C00D31A022B01D903237AE11D4B1B6803F0E8
:1019AC000203002BF0D17B681B6803F00803002BAB
:1019BC003AD07B689B69002B19D0174B01221A6017
:1019CC00FFF70CFC386108E0FFF708FC02463B69A6
:1019DC00D31A022B01D903235AE10D4B5B6A03F096
:1019EC000203002BF0D0012000F09AFA1CE00A4B05
:1019FC0000221A60FFF7F2FB38610FE0FFF7EEFBF5
:101A0C0002463B69D31A022B08D9032340E100BFDD
:101A1C000010024000004242800442429E4B5B6A2E
:101A2C0003F00203002BE9D17B681B6803F004036D
:101A3C00002B00F0A6800023FB75974BDB6903F0AD
:101A4C008053002B0DD1944BDB69934A43F08053A8
:101A5C00D361914BDB6903F08053BB60BB680123FE
:101A6C00FB758E4B1B6803F48073002B18D18B4BCA
:101A7C001B688A4A43F480731360FFF7AFFB38612D
:101A8C0008E0FFF7ABFB02463B69D31A642B01D984
:101A9C000323FDE0814B1B6803F48073002BF0D013
:101AAC007B68DB68012B06D17B4B1B6A7A4A43F0BF
:101ABC00010313622DE07B68DB68002B0CD1764BA5
:101ACC001B6A754A23F001031362734B1B6A724A3B
:101ADC0023F0040313621CE07B68DB68052B0CD13C
:101AEC006D4B1B6A6C4A43F0040313626A4B1B6A0E
:101AFC00694A43F0010313620BE0674B1B6A664AA9
:101B0C0023F001031362644B1B6A634A23F0040342
:101B1C0013627B68DB68002B15D0FFF75FFB386125
:101B2C000AE0FFF75BFB02463B69D31A41F28832AD
:101B3C00934201D90323ABE0574B1B6A03F002031A
:101B4C00002BEED014E0FFF749FB38610AE0FFF7F9
:101B5C0045FB02463B69D31A41F28832934201D9C4
:101B6C00032395E04C4B1B6A03F00203002BEED1D0
:101B7C00FB7D012B05D1484BDB69474A23F0805391
:101B8C00D3617B68DB69002B00F08180424B5B6882
:101B9C0003F00C03082B61D07B68DB69022B46D168
:101BAC003F4B00221A60FFF719FB386108E0FFF782
:101BBC0015FB02463B69D31A022B01D9032367E0BC
:101BCC00354B1B6803F00073002BF0D17B681B6A4C
:101BDC00B3F5803F08D1304B5B6823F400327B684F
:101BEC009B682D4913434B602B4B5B6823F4741299
:101BFC007B68196A7B685B6A0B43274913434B600C
:101C0C00274B01221A60FFF7E9FA386108E0FFF769
:101C1C00E5FA02463B69D31A022B01D9032337E0BC
:101C2C001D4B1B6803F00073002BF0D02FE01C4BF6
:101C3C0000221A60FFF7D2FA386108E0FFF7CEFAFB
:101C4C0002463B69D31A022B01D9032320E0124B25
:101C5C001B6803F00073002BF0D118E07B68DB6984
:101C6C00012B01D1012313E00B4B5B68FB60FB687C
:101C7C0003F480327B681B6A9A4206D1FB6803F43A
:101C8C0070127B685B6A9A4201D0012300E000234A
:101C9C0018461837BD4680BD001002400070004049
:101CAC006000424280B584B000AF786039607B68D8
:101CBC00002B01D10123D0E06A4B1B6803F0070312
:101CCC003A689A4210D9674B1B6823F007026549A2
:101CDC003B6813430B60634B1B6803F007033A68C4
:101CEC009A4201D00123B8E07B681B6803F0020321
:101CFC00002B20D07B681B6803F00403002B05D05D
:101D0C00594B5B68584A43F4E06353607B681B682B
:101D1C0003F00803002B05D0534B5B68524A43F485
:101D2C0060535360504B5B6823F0F0027B689B68F8
:101D3C004D4913434B607B681B6803F00103002B78
:101D4C0040D07B685B68012B07D1474B1B6803F4C1
:101D5C000033002B15D101237FE07B685B68022BDD
:101D6C0007D1414B1B6803F00073002B09D10123F1
:101D7C0073E03D4B1B6803F00203002B01D10123E0
:101D8C006BE0394B5B6823F003027B685B68364978
:101D9C0013434B60FFF722FAF8600AE0FFF71EFAD4
:101DAC000246FB68D31A41F28832934201D90323CD
:101DBC0053E02D4B5B6803F00C027B685B689B0067
:101DCC009A42EBD1274B1B6803F007033A689A42FF
:101DDC0010D2244B1B6823F0070222493B681343A3
:101DEC000B60204B1B6803F007033A689A4201D042
:101DFC00012332E07B681B6803F00403002B08D03E
:101E0C00194B5B6823F4E0627B68DB68164913436B
:101E1C004B607B681B6803F00803002B09D0124B46
:101E2C005B6823F460527B681B69DB000E4913432B
:101E3C004B6000F021F802460B4B5B681B0903F06A
:101E4C000F030A49CB5C22FA03F3094A1360094BCE
:101E5C001B681846FFF780F9002318461037BD465B
:101E6C0080BD00BF0020024000100240D4270008B3
:101E7C00340100203801002080B487B000AF00236B
:101E8C00FB600023BB6000237B6100237B6000238D
:101E9C003B611E4B5B68FB60FB6803F00C03042B7F
:101EAC0002D0082B03D027E0194B3B6127E0FB68DD
:101EBC009B0C03F00F03174AD35C7B60FB6803F4A5
:101ECC008033002B10D0114B5B685B0C03F00103CB
:101EDC00114AD35CBB607B680D4A02FB03F2BB6802
:101EEC00B2FBF3F37B6104E07B680C4A02FB03F367
:101EFC007B617B693B6102E0054B3B6100BF3B6949
:101F0C0018461C37BD4680BC704700BF001002400D
:101F1C0000127A00E4270008F427000800093D00AD
:101F2C0080B485B000AF78600A4B1B680A4AA2FBEC
:101F3C0003235B0A7A6802FB03F3FB6000BFFB68B8
:101F4C005A1EFA60002BF9D100BF00BF1437BD46F2
:101F5C0080BC704734010020D34D621080B582B034
:101F6C0000AF78607B68002B01D1012341E07B68D6
:101F7C0093F83D30DBB2002B06D17B68002283F84E
:101F8C003C207868FFF750F87B68022283F83D20EC
:101F9C007B681A687B6804331946104600F074FAA3
:101FAC007B68012283F846207B68012283F83E205F
:101FBC007B68012283F83F207B68012283F8402054
:101FCC007B68012283F841207B68012283F8422040
:101FDC007B68012283F843207B68012283F844202C
:101FEC007B68012283F845207B68012283F83D2021
:101FFC00002318460837BD4680BD000080B485B06C
:10200C0000AF78607B6893F83D30DBB2012B01D0D8
:10201C0001233AE07B68022283F83D207B681B6831
:10202C00DA687B681B6842F00102DA607B681B6827
:10203C00184A93420ED07B681B68B3F1804F09D0CD
:10204C007B681B68144A934204D07B681B68134A54
:10205C00934211D17B681B689B6803F00703FB60FC
:10206C00FB68062B10D07B681B681A687B681B68A2
:10207C0042F001021A6007E07B681B681A687B68F3
:10208C001B6842F001021A60002318461437BD4643
:10209C0080BC7047002C0140000400400008004048
:1020AC0080B582B000AF78607B681B681B6903F059
:1020BC000203022B22D17B681B68DB6803F002034E
:1020CC00022B1BD17B681B686FF002021A617B68C4
:1020DC0001221A777B681B689B6903F00303002BB2
:1020EC0003D0786800F0B4F905E0786800F0A7F93F
:1020FC00786800F0B6F97B6800221A777B681B6859
:10210C001B6903F00403042B22D17B681B68DB687A
:10211C0003F00403042B1BD17B681B686FF00402D3
:10212C001A617B6802221A777B681B689B6903F42F
:10213C004073002B03D0786800F08AF905E07868CA
:10214C0000F07DF9786800F08CF97B6800221A7732
:10215C007B681B681B6903F00803082B22D17B6882
:10216C001B68DB6803F00803082B1BD17B681B681A
:10217C006FF008021A617B6804221A777B681B686F
:10218C00DB6903F00303002B03D0786800F060F9DF
:10219C0005E0786800F053F9786800F062F97B6824
:1021AC0000221A777B681B681B6903F01003102B45
:1021BC0022D17B681B68DB6803F01003102B1BD14A
:1021CC007B681B686FF010021A617B6808221A7713
:1021DC007B681B68DB6903F44073002B03D07868C1
:1021EC0000F036F905E0786800F029F9786800F01D
:1021FC0038F97B6800221A777B681B681B6903F02F
:10220C000103012B0ED17B681B68DB6803F0010313
:10221C00012B07D17B681B686FF001021A6178688B
:10222C00FEF72EFE7B681B681B6903F08003802B76
:10223C000ED17B681B68DB6803F08003802B07D111
:10224C007B681B686FF080021A61786800F07BFA7B
:10225C007B681B681B6903F04003402B0ED17B6825
:10226C001B68DB6803F04003402B07D17B681B68BD
:10227C006FF040021A61786800F0FCF87B681B680C
:10228C001B6903F02003202B0ED17B681B68DB68D5
:10229C0003F02003202B07D17B681B686FF0200212
:1022AC001A61786800F046FA00BF0837BD4680BD59
:1022BC0080B584B000AF786039600023FB737B6815
:1022CC0093F83C30012B01D10223B4E07B6801224E
:1022DC0083F83C207B68022283F83D207B681B68D6
:1022EC009B68BB60BB6823F07703BB60BB6823F4BF
:1022FC007F43BB607B681B68BA689A603B681B684D
:10230C00B3F5005F3ED0B3F5005F00F28780B3F504
:10231C00805F00F08680B3F5805F7FD8702B1AD079
:10232C00702B7BD8602B50D0602B77D8502B3CD0A7
:10233C00502B73D8402B58D0402B6FD8302B64D0F7
:10234C00302B6BD8202B60D0202B67D8002B5CD087
:10235C00102B5AD062E07B6818683B6899683B6820
:10236C005A683B68DB6800F068F97B681B689B68FF
:10237C00BB60BB6843F07703BB607B681B68BA68C3
:10238C009A604FE07B6818683B6899683B685A68AC
:10239C003B68DB6800F051F97B681B689A687B68C6
:1023AC001B6842F480429A603CE07B6818683B688A
:1023BC0059683B68DB681A4600F0C8F87B681B68F4
:1023CC005021184600F01FF92CE07B6818683B6818
:1023DC0059683B68DB681A4600F0E6F87B681B68B6
:1023EC006021184600F00FF91CE07B6818683B6808
:1023FC0059683B68DB681A4600F0A8F87B681B68D4
:10240C004021184600F0FFF80CE07B681A683B6826
:10241C001B681946104600F0F6F803E00123FB7325
:10242C0000E000BF7B68012283F83D207B6800221E
:10243C0083F83C20FB7B18461037BD4680BD80B42A
:10244C0083B000AF786000BF0C37BD4680BC7047CE
:10245C0080B483B000AF786000BF0C37BD4680BC41
:10246C00704780B483B000AF786000BF0C37BD46B6
:10247C0080BC704780B483B000AF786000BF0C376D
:10248C00BD4680BC7047000080B485B000AF78605A
:10249C0039607B681B68FB607B68294A93420BD0D0
:1024AC007B68B3F1804F07D07B68264A934203D0F8
:1024BC007B68254A934208D1FB6823F07003FB60CC
:1024CC003B685B68FA681343FB607B681C4A934269
:1024DC000BD07B68B3F1804F07D07B68194A9342CD
:1024EC0003D07B68184A934208D1FB6823F44073ED
:1024FC00FB603B68DB68FA681343FB60FB6823F006
:10250C0080023B685B691343FB607B68FA681A6066
:10251C003B689A687B68DA623B681A687B689A62E7
:10252C007B68074A934203D13B681A697B681A633C
:10253C007B6801225A6100BF1437BD4680BC7047CE
:10254C00002C0140000400400008004080B487B01B
:10255C0000AFF860B9607A60FB681B6A7B61FB684E
:10256C001B6A23F00102FB681A62FB689B693B61E2
:10257C003B6923F0F0033B617B681B013A69134311
:10258C003B617B6923F00A037B617A69BB68134367
:10259C007B61FB683A699A61FB687A691A6200BFD1
:1025AC001C37BD4680BC704780B487B000AFF86064
:1025BC00B9607A60FB681B6A7B61FB681B6A23F05D
:1025CC001002FB681A62FB689B693B613B6923F450
:1025DC0070433B617B681B033A6913433B617B6926
:1025EC0023F0A0037B61BB681B017A6913437B61F9
:1025FC00FB683A699A61FB687A691A6200BF1C37FA
:10260C00BD4680BC704780B485B000AF786039603F
:10261C007B689B68FB60FB6823F07003FB603A6887
:10262C00FB68134343F00703FB607B68FA689A600E
:10263C0000BF1437BD4680BC704780B487B000AF74
:10264C00F860B9607A603B60FB689B687B617B6972
:10265C0023F47F437B613B681A027B681A43BB6897
:10266C0013437A6913437B61FB687A699A6000BFF4
:10267C001C37BD4680BC704780B485B000AF786015
:10268C0039607B6893F83C30012B01D1022346E082
:10269C007B68012283F83C207B68022283F83D2072
:1026AC007B681B685B68FB607B681B689B68BB6016
:1026BC00FB6823F07003FB603B681B68FA681343EC
:1026CC00FB607B681B68FA685A607B681B68164A5B
:1026DC0093420ED07B681B68B3F1804F09D07B68A6
:1026EC001B68124A934204D07B681B68104A9342C1
:1026FC000CD1BB6823F08003BB603B685B68BA6895
:10270C001343BB607B681B68BA689A607B680122C4
:10271C0083F83D207B68002283F83C200023184678
:10272C001437BD4680BC7047002C014000040040AB
:10273C000008004080B483B000AF786000BF0C3755
:10274C00BD4680BC704780B483B000AF786000BFDA
:10275C000C37BD4680BC704770B500260C4D0D4C37
:10276C00641BA410A64209D100F022F800260A4DE1
:10277C000A4C641BA410A64205D170BD55F8043B4D
:10278C0098470136EEE755F8043B98470136F2E7D7
:10279C00F8270008F8270008F8270008FC2700088D
:1027AC0003460244934200D1704703F8011BF9E73A
:1027BC00F8B500BFF8BC08BC9E467047F8B500BF22
:0827CC00F8BC08BC9E467047F2
:1027D40000000000000000000102030406070809CD
:1027E40002030405060708090A0B0C0D0E0F10104E
:0427F40001020000DE
:0427F80031010008A3
:0427FC000D010008C3
:1028000001000000010000000100000001000000C4
:1028100001000000010000000100000001000000B4
:1028200001000000010000000100000001000000A4
:10283000D0070000D0070000D00700000100000012
:1028400000FCFE1212FEFC0000FCFE1212FEFC0058
:10285000FCFE1212FEFC0000FE1212FEFC00000044
:102860001212FEFC0000000012FEFC00000000003E
:10287000FEFC000000000000FC0000000000000062
:10288000000000000000000000000000000000FC4C
:10289000000000000000FCFE0000000000FCFE1232
:1028A00000000000FCFE1212000000FCFE1212FEEE
:1028B0000000FCFE1212FEFC00FEFE9292FE6C0076
:1028C00000FEFE9292FE6C00FEFE9292FE6C0000F4
:1028D000FE9292FE6C0000009292FE6C00000000DE
:1028E00092FE6C0000000000FE6C00000000000082
:1028F0006C0000000000000000000000000000006C
:1029000000000000000000FE000000000000FEFECD
:102910000000000000FEFE9200000000FEFE929209
:10292000000000FEFE9292FE0000FEFE9292FE6CFF
:10293000010000000024F40010000000010000006D
:04000005080010EDF2
:00000001FF
