:020000040800F2
:100000000050002015130008A5120008AB120008CC
:10001000B1120008B7120008BD120008000000006D
:10002000000000000000000000000000C3120008F3
:10003000CF12000800000000DB120008E7120008E1
:100040005D1300085D1300085D1300085D130008D0
:100050005D1300085D1300085D1300085D130008C0
:100060005D1300085D1300085D1300085D130008B0
:100070005D1300085D1300085D1300085D130008A0
:100080005D1300085D1300085D1300085D13000890
:100090005D1300085D1300085D1300085D13000880
:1000A0005D1300085D1300085D1300085D13000870
:1000B000F51200085D1300085D1300085D130008C9
:1000C0005D1300085D1300085D1300085D13000850
:1000D0005D1300085D1300085D1300085D13000840
:1000E0005D1300085D1300085D13000800000000A8
:1000F0000000000000000000000000000000000000
:0C01000000000000000000005FF808F1A3
:10010C0010B5054C237833B9044B13B10448AFF345
:10011C0000800123237010BD70010020000000003E
:10012C00E429000808B5034B1BB103490348AFF39E
:10013C00008008BD0000000074010020E4290008C4
:10014C0080B500AF514B1B68052B00F2948001A2C7
:10015C0052F823F07901000883020008A30100087B
:10016C00DB010008130200084B02000801220121E8
:10017C00474801F0FAFB01220221454801F0F5FB4A
:10018C0001220421424801F0F0FB012208214048E1
:10019C0001F0EBFB78E03F4B1B68012B6DD14FF46A
:1001AC00FA7000F0C7FF0121394801F0F6FB01227B
:1001BC000221374801F0D9FB01220421344801F017
:1001CC00D4FB01220821324801F0CFFB55E0314B22
:1001DC001B68012B53D14FF4FA7000F0ABFF0122D6
:1001EC0001212B4801F0C1FB0221294801F0D5FB6C
:1001FC0001220421264801F0B8FB012208212448E1
:10020C0001F0B3FB3BE0234B1B68012B39D14FF4BE
:10021C00FA7000F08FFF012201211D4801F0A5FBAF
:10022C00012202211A4801F0A0FB0421184801F018
:10023C00B4FB01220821164801F097FB21E0154B75
:10024C001B68012B1FD14FF4FA7000F073FF0122D1
:10025C0001210F4801F089FB012202210C4801F019
:10026C0084FB012204210A4801F07FFB0821084885
:10027C0001F093FB07E000BF06E000BF04E000BF05
:10028C0002E000BF00E000BF00BF80BDC401002041
:10029C0000100140DC01002080B483B000AF0023CB
:1002AC007B600CE00A4A7B68002142F82310094A63
:1002BC007B68002142F823107B6801337B607B68EC
:1002CC00022BEFDD00BF00BF0C37BD4680BC704772
:1002DC008C0100209801002080B483B000AF7860BE
:1002EC00044A7B68012142F8231000BF0C37BD463D
:1002FC0080BC70478C01002080B483B000AF786064
:10030C00044A7B68012142F8231000BF0C37BD461C
:10031C0080BC70479801002080B483B000AF786037
:10032C00094A7B6852F82330012B06D1064A7B68B8
:10033C00002142F82310012300E0002318460C375B
:10034C00BD4680BC704700BF8C01002080B483B0D8
:10035C0000AF7860094A7B6852F82330012B06D134
:10036C00064A7B68002142F82310012300E0002399
:10037C0018460C37BD4680BC704700BF9801002062
:10038C0080B582B000AF7860564A7B6852F8232063
:10039C0055497B6841F82320544A7B6852F8232046
:1003AC0050497B6841F823207B68022B1DD07B6869
:1003BC00022B24DC7B68002B03D07B68012B0AD03A
:1003CC001DE04FF480614A4801F0B8FA03461A4622
:1003DC00464B1A6014E04FF40061454801F0AEFA48
:1003EC0003461A46414B5A600AE04FF4806140487C
:1003FC0001F0A4FA03461A463C4B9A6000E000BF99
:10040C00394A7B6852F8232036497B6851F82330EF
:10041C009A4262D1334A7B6852F8232033497B6875
:10042C0051F823309A4258D1304A7B6852F8232035
:10043C0030497B6851F823309A422CD02B4A7B6888
:10044C0052F823202B497B6841F82320274A7B68EC
:10045C0052F82330012B0DD1274A7B6852F82330F8
:10046C00012B07D1244A7B68002142F823107868BD
:10047C00FFF732FF1D4A7B6852F82330002B04D162
:10048C001D4A7B68012142F823101C4A7B68C82155
:10049C0042F8231021E0194A7B6852F823305A1E87
:1004AC0016497B6841F82320144A7B6852F82330A4
:1004BC00002B12D10D4A7B6852F82330002B07D148
:1004CC000D4A7B68002142F823107868FFF714FF6F
:1004DC000A4A7B68C82142F8231000BF0837BD4682
:1004EC0080BD00BF0C000020000000201800002080
:1004FC000008014024000020A4010020300000204E
:10050C0080B582B000AF00237B6005E07868FFF710
:10051C0037FF7B6801337B607B68022BF6DD00BF05
:10052C0000BF0837BD4680BD80B500AF184B1B68B7
:10053C00012B16D1642000F0C9FD164B1B68164A1E
:10054C0012681146184600F0D3FB134B1B6801339D
:10055C00114A1360104B1B68072B02DD0E4B002257
:10056C001A600E4B1B68012B0FD10A4B1B68013311
:10057C00084A13604FF4FA7000F0C2FD054B1B687B
:10058C000D2B02DD034B00221A6000BF80BD00BFA3
:10059C00CC010020B4010020B0010020D4010020C7
:1005AC0080B500AF074B00221A60074B00221A607F
:1005BC00642000F08BFD4FF4FA7000F0A1FD00BF39
:1005CC0080BD00BFB0010020B401002080B500AF99
:1005DC00754B1B68052B00F2DB8001A252F823F04F
:1005EC00050600089D0700082B0600086506000894
:1005FC00CD060008350700086B4B02221A60FFF786
:10060C00CFFF6A4B0F221A60694B0D221A60694B9F
:10061C000A221A604FF4FA7000F08CFDC1E0FFF76B
:10062C0083FFFFF78DFD0020FFF776FE0346002BBE
:10063C0006D10020FFF78AFE0346002B00F0AA80AB
:10064C00594B03221A60FFF7ABFF4FF4FA7000F01E
:10065C0071FDFFF721FE9DE0FFF766FFFFF770FDD0
:10066C000020FFF759FE0346002B05D10020FFF7B1
:10067C006DFE0346002B08D04B4B04221A60FFF78B
:10068C008FFF4FF4FA7000F055FD0120FFF744FE88
:10069C000346002B05D10120FFF758FE0346002B23
:1006AC007AD0424B1B680133404A13603F4B1B68A6
:1006BC00102B02DD3D4B0F221A60FFF771FF6BE030
:1006CC00FFF732FFFFF73CFD0020FFF725FE034646
:1006DC00002B05D10020FFF739FE0346002B08D074
:1006EC00314B05221A60FFF75BFF4FF4FA7000F0F4
:1006FC0021FD0120FFF710FE0346002B05D1012040
:10070C00FFF724FE0346002B48D0294B1B6801330E
:10071C00274A1360264B1B680E2B02DD244B0D223F
:10072C001A60FFF73DFF39E0FFF7FEFEFFF708FD0B
:10073C000020FFF7F1FD0346002B05D10020FFF749
:10074C0005FE0346002B08D0174B02221A60FFF758
:10075C0027FF4FF4FA7000F0EDFC0120FFF7DCFDF1
:10076C000346002B05D10120FFF7F0FD0346002BBB
:10077C0016D0104B1B6801330E4A13600D4B1B68CF
:10078C000B2B02DD0B4B0A221A60FFF709FF07E067
:10079C0000BF06E000BF04E000BF02E000BF00E0C5
:1007AC0000BF00BF80BD00BFC40100203C00002082
:1007BC00400000204400002080B584B000AFF860F9
:1007CC00B9601346FB71BB681988FB7903F0010310
:1007DC00DBB21A46F86801F0C8F8BB680233198816
:1007EC00FB7903F00203DBB21A46F86801F0BDF89E
:1007FC00BB6804331988FB7903F00403DBB21A4697
:10080C00F86801F0B2F8BB6806331988FB7903F07D
:10081C000803DBB21A46F86801F0A7F8BB68083386
:10082C001988FB7903F01003DBB21A46F86801F063
:10083C009CF8BB680A331988FB7903F02003DBB200
:10084C001A46F86801F091F8BB680C331988FB79EB
:10085C0003F04003DBB21A46F86801F086F8BB6877
:10086C000E331988FB7923F07F03DBB21A46F86844
:10087C0001F07BF800BF1037BD4680BD80B584B059
:10088C0000AFF860B9607A60BB68072B00F2A480F7
:10089C0001A252F823F000BFC5080008E9080008BF
:1008AC000D090008310900085509000879090008EC
:1008BC009D090008C109000801224A494A48FFF76E
:1008CC007BFFFB68DB007A681A44BB6813441B7817
:1008DC001A4646494648FFF76FFF7EE0022241491F
:1008EC004148FFF769FFFB68DB007A681A44BB6874
:1008FC0013441B781A463D493D48FFF75DFF6CE0F9
:10090C00042238493848FFF757FFFB68DB007A6848
:10091C001A44BB6813441B781A4634493448FFF711
:10092C004BFF5AE008222F492F48FFF745FFFB6881
:10093C00DB007A681A44BB6813441B781A462B49AF
:10094C002B48FFF739FF48E0102226492648FFF7CD
:10095C0033FFFB68DB007A681A44BB6813441B78CE
:10096C001A4622492248FFF727FF36E020221D496C
:10097C001D48FFF721FFFB68DB007A681A44BB684F
:10098C0013441B781A4619491948FFF715FF24E040
:10099C00402214491448FFF70FFFFB68DB007A680C
:1009AC001A44BB6813441B781A4610491048FFF7C9
:1009BC0003FF12E080220B490B48FFF7FDFEFB689A
:1009CC00DB007A681A44BB6813441B781A46074943
:1009DC000748FFF7F1FE00E000BF00BF1037BD462F
:1009EC0080BD00BF480000200008014058000020D6
:1009FC00000C014080B584B000AFF860B9607A603B
:100A0C00BB68072B00F2A48001A252F823F000BFB0
:100A1C003D0A0008610A0008850A0008A90A0008B6
:100A2C00CD0A0008F10A0008150B0008390B000864
:100A3C0001224A494A48FFF7BFFEFB68DB007A688F
:100A4C001A44BB6813441B781A4646494648FFF7BC
:100A5C00B3FE7EE0022241494148FFF7ADFEFB6840
:100A6C00DB007A681A44BB6813441B781A463D496C
:100A7C003D48FFF7A1FE6CE0042238493848FFF7E7
:100A8C009BFEFB68DB007A681A44BB6813441B7836
:100A9C001A4634493448FFF78FFE5AE008222F4992
:100AAC002F48FFF789FEFB68DB007A681A44BB68A5
:100ABC0013441B781A462B492B48FFF77DFE48E060
:100ACC00102226492648FFF777FEFB68DB007A6880
:100ADC001A44BB6813441B781A4622492248FFF774
:100AEC006BFE36E020221D491D48FFF765FEFB68B2
:100AFC00DB007A681A44BB6813441B781A46194900
:100B0C001948FFF759FE24E0402214491448FFF716
:100B1C0053FEFB68DB007A681A44BB6813441B78ED
:100B2C001A4610491048FFF747FE12E080220B4985
:100B3C000B48FFF741FEFB68DB007A681A44BB6880
:100B4C0013441B781A4607490748FFF735FE00E0A7
:100B5C0000BF00BF1037BD4680BD00BF480000205D
:100B6C000008014068000020000C014080B400AF78
:100B7C005B4B1B680F2B0AD15A4B1B680D2B06D1F4
:100B8C00594B1B680A2B02D1584B01221A60544B4B
:100B9C001B680F2B0AD1534B1B680D2B06D1524BE4
:100BAC001B680B2B02D1514B02221A604C4B1B6859
:100BBC000F2B0AD14B4B1B680D2B06D14A4B1B68D4
:100BCC000C2B02D1494B03221A60454B1B680F2B8F
:100BDC000AD1444B1B680E2B06D1434B1B680A2BC6
:100BEC0002D1424B04221A603D4B1B680F2B0AD1D9
:100BFC003C4B1B680E2B06D13B4B1B680B2B02D1BD
:100C0C003A4B05221A60364B1B680F2B0AD1354B19
:100C1C001B680E2B06D1344B1B680C2B02D1334BAB
:100C2C0006221A602E4B1B68102B0AD12D4B1B6809
:100C3C000D2B06D12C4B1B680A2B02D12B4B0722F8
:100C4C001A60274B1B68102B0AD1264B1B680D2BE7
:100C5C0006D1254B1B680B2B02D1244B08221A60A2
:100C6C001F4B1B68102B0AD11E4B1B680D2B06D17A
:100C7C001D4B1B680C2B02D11C4B09221A60184B04
:100C8C001B68102B0AD1174B1B680E2B06D1164B69
:100C9C001B680A2B02D1154B0A221A60104B1B68D9
:100CAC00102B0AD10F4B1B680E2B06D10E4B1B6859
:100CBC000B2B02D10D4B0B221A60094B1B68102B0E
:100CCC000AD1084B1B680E2B06D1074B1B680C2B4B
:100CDC0002D1064B0C221A6000BFBD4680BC704787
:100CEC003C0000204000002044000020B8010020FF
:100CFC0080B582B000AF78603960FFF737FF554B95
:100D0C001B68013B0B2B00F29F8001A252F823F0D1
:100D1C004D0D0008630D0008790D00088F0D0008BB
:100D2C00A50D0008BB0D0008D10D0008E70D00084B
:100D3C00FD0D0008130E0008290E00083F0E0008D8
:100D4C00454A39680020FFF799FD444A396800206C
:100D5C00FFF750FE79E0414A39680020FFF78EFD1D
:100D6C003D4A39680020FFF745FE6EE03A4A396883
:100D7C000020FFF783FD384A39680020FFF73AFE60
:100D8C0063E0374A39687868FFF778FD334A396889
:100D9C000020FFF72FFE58E0304A39680020FFF79B
:100DAC006DFD2F4A39687868FFF724FE4DE02C4A18
:100DBC0039687868FFF762FD294A39687868FFF767
:100DCC0019FE42E0274A39680020FFF757FD234AF5
:100DDC0039680020FFF70EFE37E0204A3968002002
:100DEC00FFF74CFD1F4A39680020FFF703FE2CE08B
:100DFC001C4A39680020FFF741FD1A4A3968002067
:100E0C00FFF7F8FD21E0184A39687868FFF736FDDE
:100E1C00124A39680020FFF7EDFD16E00F4A3968D9
:100E2C000020FFF72BFD104A39687868FFF7E2FDC8
:100E3C000BE00D4A39687868FFF720FD0A4A3968DB
:100E4C007868FFF7D7FD00E000BF00BF0837BD464C
:100E5C0080BD00BFB801002078000020BC0100203C
:100E6C0080000020E8000020F000002080B500AFDA
:100E7C0000F070FA00F00CF800F092F800F044F872
:100E8C00024801F0CFF9FFF7A1FBFCE7E0010020DD
:100E9C0080B590B000AF07F1180328220021184646
:100EAC0001F092FD3B1D00221A605A609A60DA60D4
:100EBC001A610223BB610123BB621023FB62002376
:100ECC007B6307F11803184600F080FD0346002BE6
:100EDC0001D000F0F5F80F237B600023BB600023EA
:100EEC00FB6000233B6100237B613B1D0021184606
:100EFC0000F0ECFF0346002B01D000F0E1F800BF3E
:100F0C004037BD4680BD000080B586B000AF07F10C
:100F1C00080300221A605A609A60DA603B4600228D
:100F2C001A605A601D4B4FF080421A601B4B40F206
:100F3C001F325A60194B00229A60184B0922DA6052
:100F4C00164B00221A61154B00229A61134801F0CE
:100F5C0019F90346002B01D000F0B2F84FF480537E
:100F6C00BB6007F1080319460C4801F0B5FA0346BB
:100F7C00002B01D000F0A4F800233B6000237B6021
:100F8C003B461946054801F08BFC0346002B01D06B
:100F9C0000F096F800BF1837BD4680BDE001002078
:100FAC0080B588B000AF07F1100300221A605A60B8
:100FBC009A60DA60384B9B69374A43F010039361AF
:100FCC00354B9B6903F01003FB60FB68324B9B694C
:100FDC00314A43F0040393612F4B9B6903F00403E4
:100FEC00BB60BB682C4B9B692B4A43F00803936195
:100FFC00294B9B6903F008037B607B6800220F215F
:10100C00264800F0B2FC00224FF4FF71244800F097
:10101C00ACFC00224FF6FF71224800F0A6FC0F2317
:10102C003B6101237B610023BB610223FB6107F160
:10103C0010031946194800F0FDFA4FF4FF733B6199
:10104C0001237B610023BB610223FB6107F11003C9
:10105C001946134800F0EEFA4FF6FF733B6101237B
:10106C007B610023BB610223FB6107F1100319466E
:10107C000C4800F0DFFA4FF440633B6100237B61C6
:10108C000123BB6107F110031946054800F0D2FAA1
:10109C0000BF2037BD4680BD00100240001001404B
:1010AC0000080140000C014080B582B000AF7860B0
:1010BC0000F05AF8FFF724FA00BF0837BD4680BD90
:1010CC0080B400AF72B600BFFEE7000080B483B0FE
:1010DC0000AF7860074B1B687A6892FBF3F3064A03
:1010EC001360064B00221A6000BF0C37BD4680BC53
:1010FC00704700BF60010020C8010020CC01002017
:10110C0080B483B000AF7860074B1B687A6892FBA1
:10111C00F3F3064A1360064B00221A6000BF0C372B
:10112C00BD4680BC704700BF60010020D00100208C
:10113C00D401002080B483B000AF7860074B1B68EB
:10114C007A6892FBF3F3064A1360064B00221A608E
:10115C0000BF0C37BD4680BC704700BF600100204B
:10116C00D8010020DC01002080B400AF194B1B68B3
:10117C00002B0BDD174B1B68013B164A1360154BFC
:10118C001B68002B02DC144B01221A60134B1B68EA
:10119C00002B0BDD114B1B68013B104A13600F4BEE
:1011AC001B68002B02DC0E4B01221A600D4B1B68D6
:1011BC00002B0BDD0B4B1B68013B0A4A1360094BE0
:1011CC001B68002B02DC084B01221A6000BFBD46D5
:1011DC0080BC7047C8010020CC010020D001002049
:1011EC00D4010020D8010020DC01002080B485B09F
:1011FC0000AF154B9B69144A43F001039361124BEA
:10120C009B6903F00103BB60BB680F4BDB690E4AA3
:10121C0043F08053D3610C4BDB6903F080537B604C
:10122C007B680A4B5B68FB60FB6823F0E063FB6048
:10123C00FB6843F00073FB60044AFB68536000BF1B
:10124C001437BD4680BC70470010024000000140BE
:10125C0080B584B000AF78607B681B68B3F1804FB9
:10126C0013D10C4BDB690B4A43F00103D361094BDF
:10127C00DB6903F00103FB60FB68002200211C20EA
:10128C0000F0A1F91C2000F0BAF900BF1037BD46E0
:10129C0080BD00BF0010024080B400AFFEE780B4F8
:1012AC0000AFFEE780B400AFFEE780B400AFFEE70E
:1012BC0080B400AFFEE780B400AF00BFBD4680BC79
:1012CC00704780B400AF00BFBD4680BC704780B48F
:1012DC0000AF00BFBD4680BC704780B500AF00F0CA
:1012EC007FF800BF80BD000080B500AF024800F061
:1012FC00EBFF00BF80BD00BFE001002080B400AF59
:10130C0000BFBD4680BC7047FFF7F8FF0B480C4987
:10131C000C4A002302E0D458C4500433C4188C4245
:10132C00F9D3094A094C002301E013600432A242AC
:10133C00FBD301F025FBFFF799FD7047000000205F
:10134C0070010020282A0008700100202C020020C7
:10135C00FEE7000080B500AF084B1B68074A43F05E
:10136C0010031360032000F023F90F2000F008F89D
:10137C00FFF73CFF0023184680BD00BF0020024051
:10138C0080B582B000AF7860124B1A68124B1B7894
:10139C0019464FF47A73B3FBF1F3B2FBF3F318462F
:1013AC0000F03BF90346002B01D001230EE07B68D3
:1013BC000F2B0AD8002279684FF0FF3000F003F9A8
:1013CC00064A7B681360002300E0012318460837A7
:1013DC00BD4680BD640100206C0100206801002026
:1013EC0080B400AF054B1B781A46054B1B681344A1
:1013FC00034A136000BFBD4680BC70476C010020DF
:10140C002802002080B400AF024B1B681846BD4672
:10141C0080BC70472802002080B485B000AF786093
:10142C007B6803F00703FB600C4BDB68BB60BA689E
:10143C004FF6FF031340BB60FB681A02BB681343F3
:10144C0043F0BF6343F40033BB60044ABB68D36012
:10145C0000BF1437BD4680BC704700BF00ED00E0F4
:10146C0080B400AF044BDB681B0A03F0070318467B
:10147C00BD4680BC704700BF00ED00E080B483B077
:10148C0000AF0346FB7197F90730002B0BDBFB79A0
:10149C0003F01F02064997F907305B09012000FA97
:1014AC0002F241F8232000BF0C37BD4680BC7047C8
:1014BC0000E100E080B483B000AF03463960FB71FB
:1014CC0097F90730002B0ADB3B68DAB20C4997F925
:1014DC0007301201D2B20B4483F800230AE03B68B8
:1014EC00DAB20849FB7903F00F03043B1201D2B2C4
:1014FC000B441A7600BF0C37BD4680BC704700BF4A
:10150C0000E100E000ED00E080B489B000AFF860CD
:10151C00B9607A60FB6803F00703FB61FB69C3F1F8
:10152C000703042B28BF0423BB61FB690433062B80
:10153C0002D9FB69033B00E000237B614FF0FF32D3
:10154C00BB6902FA03F3DA43BB681A407B699A4021
:10155C004FF0FF317B6901FA03F3D9437B680B40F1
:10156C00134318462437BD4680BC704780B582B003
:10157C0000AF78607B68013BB3F1807F01D301231E
:10158C000FE00A4A7B68013B53600F214FF0FF309C
:10159C00FFF790FF054B00229A60044B07221A605C
:1015AC00002318460837BD4680BD00BF10E000E0A0
:1015BC0080B582B000AF78607868FFF72DFF00BF70
:1015CC000837BD4680BD80B586B000AF0346B96014
:1015DC007A60FB7300237B61FFF742FF78617A68C6
:1015EC00B9687869FFF790FF024697F90F301146FA
:1015FC001846FFF75FFF00BF1837BD4680BD80B5AA
:10160C0082B000AF0346FB7197F907301846FFF71D
:10161C0035FF00BF0837BD4680BD80B582B000AF36
:10162C0078607868FFF7A2FF034618460837BD4676
:10163C0080BD000080B48BB000AF786039600023AF
:10164C007B6200233B6269E101227B6A02FA03F3AD
:10165C00FB613B681B68FA691340BB61BA69FB69A3
:10166C009A4240F058813B685B689A4A93425ED03C
:10167C00984A934275D8984A934258D0964A9342C6
:10168C006FD8964A934252D0944A934269D8944A5E
:10169C0093424CD0924A934263D8924A934246D09A
:1016AC00904A93425DD8122B2AD8122B59D801A2FA
:1016BC0052F823F03B1700081517000827170008ED
:1016CC00691700086F1700086F1700086F170008DC
:1016DC006F1700086F1700086F1700086F170008C6
:1016EC006F1700086F1700086F1700086F170008B6
:1016FC006F1700086F1700081D1700083117000836
:10170C00794A934213D02CE03B68DB683B6229E0BA
:10171C003B68DB6804333B6224E03B68DB680833DE
:10172C003B621FE03B68DB680C333B621AE03B68B2
:10173C009B68002B02D104233B6213E03B689B683F
:10174C00012B05D108233B627B68FA691A6109E019
:10175C0008233B627B68FA695A6103E000233B6211
:10176C0000E000BFBB69FF2B01D87B6801E07B6800
:10177C0004337B61BB69FF2B02D87B6A9B0002E0C0
:10178C007B6A083B9B003B617B691A680F213B69B4
:10179C0001FA03F3DB431A40396A3B6901FA03F39C
:1017AC001A437B691A603B685B6803F08053002B1B
:1017BC0000F0B1804D4B9B694C4A43F0010393619F
:1017CC004A4B9B6903F00103BB60BB68484A7B6AC8
:1017DC009B08023352F82330FB607B6A03F003034F
:1017EC009B000F2202FA03F3DB43FA681340FB6001
:1017FC007B68404A934213D07B683F4A93420DD09A
:10180C007B683E4A934207D07B683D4A934201D1A4
:10181C00032306E0042304E0022302E0012300E09A
:10182C0000237A6A02F0030292009340FA68134391
:10183C00FB602F497B6A9B080233FA6841F823202E
:10184C003B685B6803F48013002B06D02D4B9A6821
:10185C002C49BB6913438B6006E02A4B9A68BB6921
:10186C00DB43284913408B603B685B6803F400132F
:10187C00002B06D0234BDA682249BB691343CB609B
:10188C0006E0204BDA68BB69DB431E491340CB6092
:10189C003B685B6803F40033002B06D0194B5A6885
:1018AC001849BB6913434B6006E0164B5A68BB6979
:1018BC00DB43144913404B603B685B6803F4803393
:1018CC00002B21D00F4B1A680E49BB6913430B60D8
:1018DC0021E000BF00003210000031100000221087
:1018EC000000211000001210000011100010024026
:1018FC000000014000080140000C014000100140B4
:10190C0000140140000401400B4B1A68BB69DB4317
:10191C00094913400B607B6A01337B623B681A6890
:10192C007B6A22FA03F3002B7FF48EAE00BF00BF5C
:10193C002C37BD4680BC70470004014080B485B094
:10194C0000AF78600B467B807B689A687B8813407D
:10195C00002B02D00123FB7301E00023FB73FB7B04
:10196C0018461437BD4680BC704780B483B000AFB6
:10197C0078600B467B8013467B707B78002B03D002
:10198C007A887B681A6103E07B881A047B681A6189
:10199C0000BF0C37BD4680BC704780B485B000AF2B
:1019AC0078600B467B807B68DB68FB607A88FB6821
:1019BC0013401A04FB68D9437B880B401A437B689D
:1019CC001A6100BF1437BD4680BC704780B586B025
:1019DC0000AF78607B68002B01D101236CE27B683F
:1019EC001B6803F00103002B00F08780924B5B68AF
:1019FC0003F00C03042B0CD08F4B5B6803F00C032F
:101A0C00082B12D18C4B5B6803F48033B3F5803F09
:101A1C000BD1894B1B6803F40033002B6CD07B6813
:101A2C005B68002B68D1012346E27B685B68B3F5E9
:101A3C00803F06D1804B1B687F4A43F48033136090
:101A4C002EE07B685B68002B0CD17B4B1B687A4AC1
:101A5C0023F480331360784B1B68774A23F480237C
:101A6C0013601DE07B685B68B3F5A02F0CD1724B43
:101A7C001B68714A43F4802313606F4B1B686E4ADA
:101A8C0043F4803313600BE06B4B1B686A4A23F4FE
:101A9C0080331360684B1B68674A23F48023136000
:101AAC007B685B68002B13D0FFF7ACFC386108E057
:101ABC00FFF7A8FC02463B69D31A642B01D9032318
:101ACC00FAE15D4B1B6803F40033002BF0D014E0FB
:101ADC00FFF798FC386108E0FFF794FC02463B697D
:101AEC00D31A642B01D90323E6E1534B1B6803F48F
:101AFC000033002BF0D100E000BF7B681B6803F0C3
:101B0C000203002B63D04C4B5B6803F00C03002BDF
:101B1C000BD0494B5B6803F00C03082B1CD1464BD4
:101B2C005B6803F48033002B16D1434B1B6803F026
:101B3C000203002B05D07B681B69012B01D001230C
:101B4C00BAE13D4B1B6823F0F8027B685B69DB0054
:101B5C00394913430B603AE07B681B69002B20D09A
:101B6C00364B01221A60FFF74DFC386108E0FFF795
:101B7C0049FC02463B69D31A022B01D903239BE192
:101B8C002D4B1B6803F00203002BF0D02A4B1B6873
:101B9C0023F0F8027B685B69DB00274913430B6079
:101BAC0015E0264B00221A60FFF72CFC386108E088
:101BBC00FFF728FC02463B69D31A022B01D90323F9
:101BCC007AE11D4B1B6803F00203002BF0D17B68FC
:101BDC001B6803F00803002B3AD07B689B69002B31
:101BEC0019D0174B01221A60FFF70CFC386108E082
:101BFC00FFF708FC02463B69D31A022B01D90323D9
:101C0C005AE10D4B5B6A03F00203002BF0D001206C
:101C1C0000F09AFA1CE00A4B00221A60FFF7F2FB64
:101C2C0038610FE0FFF7EEFB02463B69D31A022B3B
:101C3C0008D9032340E100BF0010024000004242DB
:101C4C00800442429E4B5B6A03F00203002BE9D1F5
:101C5C007B681B6803F00403002B00F0A6800023B4
:101C6C00FB75974BDB6903F08053002B0DD1944B24
:101C7C00DB69934A43F08053D361914BDB6903F0EA
:101C8C008053BB60BB680123FB758E4B1B6803F450
:101C9C008073002B18D18B4B1B688A4A43F48073DA
:101CAC001360FFF7AFFB386108E0FFF7ABFB0246B0
:101CBC003B69D31A642B01D90323FDE0814B1B68CC
:101CCC0003F48073002BF0D07B68DB68012B06D10A
:101CDC007B4B1B6A7A4A43F0010313622DE07B684D
:101CEC00DB68002B0CD1764B1B6A754A23F0010381
:101CFC001362734B1B6A724A23F0040313621CE0D9
:101D0C007B68DB68052B0CD16D4B1B6A6C4A43F06E
:101D1C00040313626A4B1B6A694A43F001031362A2
:101D2C000BE0674B1B6A664A23F001031362644B9A
:101D3C001B6A634A23F0040313627B68DB68002B85
:101D4C0015D0FFF75FFB38610AE0FFF75BFB02463B
:101D5C003B69D31A41F28832934201D90323ABE099
:101D6C00574B1B6A03F00203002BEED014E0FFF775
:101D7C0049FB38610AE0FFF745FB02463B69D31A81
:101D8C0041F28832934201D9032395E04C4B1B6AF4
:101D9C0003F00203002BEED1FB7D012B05D1484B48
:101DAC00DB69474A23F08053D3617B68DB69002BE6
:101DBC0000F08180424B5B6803F00C03082B61D070
:101DCC007B68DB69022B46D13F4B00221A60FFF780
:101DDC0019FB386108E0FFF715FB02463B69D31A83
:101DEC00022B01D9032367E0354B1B6803F000730A
:101DFC00002BF0D17B681B6AB3F5803F08D1304BC8
:101E0C005B6823F400327B689B682D4913434B605D
:101E1C002B4B5B6823F474127B68196A7B685B6AD2
:101E2C000B43274913434B60274B01221A60FFF7E2
:101E3C00E9FA386108E0FFF7E5FA02463B69D31A84
:101E4C00022B01D9032337E01D4B1B6803F00073F1
:101E5C00002BF0D02FE01C4B00221A60FFF7D2FAB7
:101E6C00386108E0FFF7CEFA02463B69D31A022B21
:101E7C0001D9032320E0124B1B6803F00073002BE5
:101E8C00F0D118E07B68DB69012B01D1012313E051
:101E9C000B4B5B68FB60FB6803F480327B681B6A4E
:101EAC009A4206D1FB6803F470127B685B6A9A4213
:101EBC0001D0012300E0002318461837BD4680BD31
:101ECC0000100240007000406000424280B584B0B7
:101EDC0000AF786039607B68002B01D10123D0E022
:101EEC006A4B1B6803F007033A689A4210D9674B98
:101EFC001B6823F0070265493B6813430B60634B77
:101F0C001B6803F007033A689A4201D00123B8E03A
:101F1C007B681B6803F00203002B20D07B681B68D6
:101F2C0003F00403002B05D0594B5B68584A43F46B
:101F3C00E06353607B681B6803F00803002B05D03B
:101F4C00534B5B68524A43F460535360504B5B688D
:101F5C0023F0F0027B689B684D4913434B607B6810
:101F6C001B6803F00103002B40D07B685B68012BDE
:101F7C0007D1474B1B6803F40033002B15D1012309
:101F8C007FE07B685B68022B07D1414B1B6803F039
:101F9C000073002B09D1012373E03D4B1B6803F048
:101FAC000203002B01D101236BE0394B5B6823F05A
:101FBC0003027B685B68364913434B60FFF722FAD8
:101FCC00F8600AE0FFF71EFA0246FB68D31A41F2EA
:101FDC008832934201D9032353E02D4B5B6803F005
:101FEC000C027B685B689B009A42EBD1274B1B6809
:101FFC0003F007033A689A4210D2244B1B6823F073
:10200C00070222493B6813430B60204B1B6803F00B
:10201C0007033A689A4201D0012332E07B681B68BF
:10202C0003F00403002B08D0194B5B6823F4E06227
:10203C007B68DB68164913434B607B681B6803F0B5
:10204C000803002B09D0124B5B6823F460527B68A9
:10205C001B69DB000E4913434B6000F021F802466C
:10206C000B4B5B681B0903F00F030A49CB5C22FA8C
:10207C0003F3094A1360094B1B681846FFF780F9F4
:10208C00002318461037BD4680BD00BF002002401B
:10209C0000100240FC2900086401002068010020A7
:1020AC0080B487B000AF0023FB600023BB6000232B
:1020BC007B6100237B6000233B611E4B5B68FB60F4
:1020CC00FB6803F00C03042B02D0082B03D027E091
:1020DC00194B3B6127E0FB689B0C03F00F03174A7D
:1020EC00D35C7B60FB6803F48033002B10D0114B66
:1020FC005B685B0C03F00103114AD35CBB607B682B
:10210C000D4A02FB03F2BB68B2FBF3F37B6104E004
:10211C007B680C4A02FB03F37B617B693B6102E049
:10212C00054B3B6100BF3B6918461C37BD4680BC64
:10213C00704700BF0010024000127A000C2A000801
:10214C001C2A000800093D0080B485B000AF7860FF
:10215C000A4B1B680A4AA2FB03235B0A7A6802FB40
:10216C0003F3FB6000BFFB685A1EFA60002BF9D129
:10217C0000BF00BF1437BD4680BC7047640100200F
:10218C00D34D621080B582B000AF78607B68002BB5
:10219C0001D1012341E07B6893F83D30DBB2002B89
:1021AC0006D17B68002283F83C207868FFF750F852
:1021BC007B68022283F83D207B681A687B680433B5
:1021CC001946104600F074FA7B68012283F8462009
:1021DC007B68012283F83E207B68012283F83F2034
:1021EC007B68012283F840207B68012283F8412020
:1021FC007B68012283F842207B68012283F843200C
:10220C007B68012283F844207B68012283F84520F7
:10221C007B68012283F83D20002318460837BD4611
:10222C0080BD000080B485B000AF78607B6893F807
:10223C003D30DBB2012B01D001233AE07B68022256
:10224C0083F83D207B681B68DA687B681B6842F06A
:10225C000102DA607B681B68184A93420ED07B68D7
:10226C001B68B3F1804F09D07B681B68144A9342FA
:10227C0004D07B681B68134A934211D17B681B689E
:10228C009B6803F00703FB60FB68062B10D07B6890
:10229C001B681A687B681B6842F001021A6007E031
:1022AC007B681B681A687B681B6842F001021A6025
:1022BC00002318461437BD4680BC7047002C0140E3
:1022CC00000400400008004080B582B000AF786088
:1022DC007B681B681B6903F00203022B22D17B680D
:1022EC001B68DB6803F00203022B1BD17B681B68A5
:1022FC006FF002021A617B6801221A777B681B68F7
:10230C009B6903F00303002B03D0786800F0B4F949
:10231C0005E0786800F0A7F9786800F0B6F97B68FA
:10232C0000221A777B681B681B6903F00403042BDB
:10233C0022D17B681B68DB6803F00403042B1BD1E0
:10234C007B681B686FF004021A617B6802221A77A3
:10235C007B681B689B6903F44073002B03D078687F
:10236C0000F08AF905E0786800F07DF9786800F0F3
:10237C008CF97B6800221A777B681B681B6903F059
:10238C000803082B22D17B681B68DB6803F0080369
:10239C00082B1BD17B681B686FF008021A617B68E5
:1023AC0004221A777B681B68DB6903F00303002B9C
:1023BC0003D0786800F060F905E0786800F053F914
:1023CC00786800F062F97B6800221A777B681B68DA
:1023DC001B6903F01003102B22D17B681B68DB6890
:1023EC0003F01003102B1BD17B681B686FF01002DD
:1023FC001A617B6808221A777B681B68DB6903F417
:10240C004073002B03D0786800F036F905E078684B
:10241C0000F029F9786800F038F97B6800221A7707
:10242C007B681B681B6903F00103012B0ED17B68D1
:10243C001B68DB6803F00103012B07D17B681B6869
:10244C006FF001021A617868FEF72EFE7B681B683C
:10245C001B6903F08003802B0ED17B681B68DB6843
:10246C0003F08003802B07D17B681B686FF0800220
:10247C001A61786800F07BFA7B681B681B6903F0B3
:10248C004003402B0ED17B681B68DB6803F04003D4
:10249C00402B07D17B681B686FF040021A6178688B
:1024AC0000F0FCF87B681B681B6903F02003202BF1
:1024BC000ED17B681B68DB6803F02003202B07D14F
:1024CC007B681B686FF020021A61786800F046FA8E
:1024DC0000BF0837BD4680BD80B584B000AF7860C2
:1024EC0039600023FB737B6893F83C30012B01D1DE
:1024FC000223B4E07B68012283F83C207B68022233
:10250C0083F83D207B681B689B68BB60BB6823F02D
:10251C007703BB60BB6823F47F43BB607B681B689D
:10252C00BA689A603B681B68B3F5005F3ED0B3F5A0
:10253C00005F00F28780B3F5805F00F08680B3F512
:10254C00805F7FD8702B1AD0702B7BD8602B50D02B
:10255C00602B77D8502B3CD0502B73D8402B58D0B5
:10256C00402B6FD8302B64D0302B6BD8202B60D005
:10257C00202B67D8002B5CD0102B5AD062E07B68E4
:10258C0018683B6899683B685A683B68DB6800F0E0
:10259C0068F97B681B689B68BB60BB6843F077037A
:1025AC00BB607B681B68BA689A604FE07B681868F0
:1025BC003B6899683B685A683B68DB6800F051F9E6
:1025CC007B681B689A687B681B6842F480429A603F
:1025DC003CE07B6818683B6859683B68DB681A46C6
:1025EC0000F0C8F87B681B685021184600F01FF9F2
:1025FC002CE07B6818683B6859683B68DB681A46B6
:10260C0000F0E6F87B681B686021184600F00FF9B3
:10261C001CE07B6818683B6859683B68DB681A46A5
:10262C0000F0A8F87B681B684021184600F0FFF802
:10263C000CE07B681A683B681B681946104600F072
:10264C00F6F803E00123FB7300E000BF7B68012276
:10265C0083F83D207B68002283F83C20FB7B1846E6
:10266C001037BD4680BD80B483B000AF786000BF2A
:10267C000C37BD4680BC704780B483B000AF786027
:10268C0000BF0C37BD4680BC704780B483B000AF30
:10269C00786000BF0C37BD4680BC704780B483B0F7
:1026AC0000AF786000BF0C37BD4680BC704700009F
:1026BC0080B485B000AF786039607B681B68FB60C4
:1026CC007B68294A93420BD07B68B3F1804F07D0CB
:1026DC007B68264A934203D07B68254A934208D1F3
:1026EC00FB6823F07003FB603B685B68FA6813437C
:1026FC00FB607B681C4A93420BD07B68B3F1804F24
:10270C0007D07B68194A934203D07B68184A9342DE
:10271C0008D1FB6823F44073FB603B68DB68FA6804
:10272C001343FB60FB6823F080023B685B69134337
:10273C00FB607B68FA681A603B689A687B68DA62AF
:10274C003B681A687B689A627B68074A934203D19C
:10275C003B681A697B681A637B6801225A6100BF67
:10276C001437BD4680BC7047002C0140000400406B
:10277C000008004080B487B000AFF860B9607A60A0
:10278C00FB681B6A7B61FB681B6A23F00102FB6818
:10279C001A62FB689B693B613B6923F0F0033B6168
:1027AC007B681B013A6913433B617B6923F00A0385
:1027BC007B617A69BB6813437B61FB683A699A61F8
:1027CC00FB687A691A6200BF1C37BD4680BC704733
:1027DC0080B487B000AFF860B9607A60FB681B6AA0
:1027EC007B61FB681B6A23F01002FB681A62FB68B2
:1027FC009B693B613B6923F470433B617B681B0322
:10280C003A6913433B617B6923F0A0037B61BB688E
:10281C001B017A6913437B61FB683A699A61FB6817
:10282C007A691A6200BF1C37BD4680BC704780B401
:10283C0085B000AF786039607B689B68FB60FB6893
:10284C0023F07003FB603A68FB68134343F0070303
:10285C00FB607B68FA689A6000BF1437BD4680BC89
:10286C00704780B487B000AFF860B9607A603B60A5
:10287C00FB689B687B617B6923F47F437B613B68CE
:10288C001A027B681A43BB6813437A6913437B6152
:10289C00FB687A699A6000BF1C37BD4680BC7047E4
:1028AC0080B485B000AF786039607B6893F83C30B9
:1028BC00012B01D1022346E07B68012283F83C20E6
:1028CC007B68022283F83D207B681B685B68FB6099
:1028DC007B681B689B68BB60FB6823F07003FB6024
:1028EC003B681B68FA681343FB607B681B68FA68DB
:1028FC005A607B681B68164A93420ED07B681B6833
:10290C00B3F1804F09D07B681B68124A934204D004
:10291C007B681B68104A93420CD1BB6823F0800380
:10292C00BB603B685B68BA681343BB607B681B6821
:10293C00BA689A607B68012283F83D207B6800228C
:10294C0083F83C20002318461437BD4680BC7047E2
:10295C00002C0140000400400008004080B483B00B
:10296C0000AF786000BF0C37BD4680BC704780B4A8
:10297C0083B000AF786000BF0C37BD4680BC704799
:10298C0070B500260C4D0D4C641BA410A64209D149
:10299C0000F022F800260A4D0A4C641BA410A64233
:1029AC0005D170BD55F8043B98470136EEE755F854
:1029BC00043B98470136F2E7202A0008202A000839
:1029CC00202A0008242A000803460244934200D11E
:1029DC00704703F8011BF9E7F8B500BFF8BC08BC59
:1029EC009E467047F8B500BFF8BC08BC9E467047C1
:1029FC0000000000000000000102030406070809A3
:102A0C0002030405060708090A0B0C0D0E0F101023
:042A1C0001020000B3
:042A20003101000878
:042A24000D01000898
:102A2800010000000100000001000000010000009A
:102A3800010000000100000001000000010000008A
:102A4800010000000100000001000000010000007A
:102A5800D0070000D0070000D00700000F000000DA
:102A68000D0000000A000000020004000800100029
:102A7800200040008000000101000200040008005E
:102A8800100020004000800000010002000400083F
:102A98000010002000400080003C66667E66666686
:102AA800205088F88888000040A010F0101000001E
:102AB800804020E020200000008040C0404000000E
:102AC80000008080808000000000000000000000FE
:102AD80000000101010100000001020302020000E0
:102AE80001020407040400000205080F080800009A
:102AF800040A111F111100000814223E22220000AE
:102B08001028447C44440000007C66667C66667C31
:102B1800007C66667C66667C00F8CCCCF8CCCCF889
:102B280000F09898F09898F000E03030E03030E00D
:102B380000C06060C06060C00080C0C080C0C0804D
:102B4800000080800080800000000000000000007D
:102B58000001010101010101000303030303030351
:102B68000007060607060607000F0C0C0F0C0C0FD3
:102B7800001F19191F19191F003E33333E33333E06
:102B8800010000000024F400100000000100000013
:0400000508001315C7
:00000001FF
