:020000040800F2
:1000000000500020FD1500083111000837110008CC
:100010003D110008431100084911000800000000CC
:100020000000000000000000000000004F11000868
:100030005B11000800000000671100087311000840
:100040004516000845160008451600084516000824
:100050004516000845160008451600084516000814
:100060004516000845160008451600084516000804
:1000700045160008451600084516000845160008F4
:1000800045160008451600084516000845160008E4
:1000900045160008451600084516000845160008D4
:1000A00045160008451600084516000845160008C4
:1000B000811100084516000845160008451600087D
:1000C00045160008451600084516000845160008A4
:1000D0004516000845160008451600084516000894
:1000E00045160008451600084516000800000000E7
:1000F0000000000000000000000000000000000000
:0C01000000000000000000005FF808F1A3
:10010C0010B5054C237833B9044B13B10448AFF345
:10011C0000800123237010BD6C0000200000000043
:10012C00CC2C000808B5034B1BB103490348AFF3B3
:10013C00008008BD0000000070000020CC2C0008DE
:10014C0080B483B000AF00237B600CE00A4A7B686C
:10015C00002142F82310094A7B68002142F8231041
:10016C007B6801337B607B68022BEFDD00BF00BF37
:10017C000C37BD4680BC70478800002094000020DE
:10018C0080B483B000AF7860044A7B68012142F8E8
:10019C00231000BF0C37BD4680BC70478800002080
:1001AC0080B483B000AF7860044A7B68012142F8C8
:1001BC00231000BF0C37BD4680BC70479400002054
:1001CC0080B483B000AF7860094A7B6852F8233062
:1001DC00012B06D1064A7B68002142F8231001232B
:1001EC0000E0002318460C37BD4680BC704700BFAA
:1001FC008800002080B483B000AF7860094A7B6827
:10020C0052F82330012B06D1064A7B68002142F8B4
:10021C002310012300E0002318460C37BD4680BC98
:10022C00704700BF9400002080B582B000AF7860AA
:10023C00544A7B6852F8232053497B6841F82320A9
:10024C00524A7B6852F823204E497B6841F82320A0
:10025C007B68022B1BD07B68022B21DC7B68002B7C
:10026C0003D07B68012B09D01AE04021484801F0EB
:10027C00D9FC03461A46454B1A6012E080214548CA
:10028C0001F0D0FC03461A46404B5A6009E040216D
:10029C00404801F0C7FC03461A463C4B9A6000E00C
:1002AC0000BF394A7B6852F8232036497B6851F8E5
:1002BC0023309A4262D1334A7B6852F82320334967
:1002CC007B6851F823309A4258D1304A7B6852F8F7
:1002DC00232031497B6851F823309A422CD02B4A89
:1002EC007B6852F823202C497B6841F82320274A4D
:1002FC007B6852F82330012B0DD1284A7B6852F8C9
:10030C002330012B07D1254A7B68002142F82310AA
:10031C007868FFF735FF1D4A7B6852F82330002BB5
:10032C0004D11E4A7B68012142F823101C4A7B68C9
:10033C00C82142F8231021E0194A7B6852F8233077
:10034C005A1E17497B6841F82320154A7B6852F8DE
:10035C002330002B12D10D4A7B6852F82330002B2E
:10036C0007D10E4A7B68002142F823107868FFF70A
:10037C0017FF0B4A7B68C82142F8231000BF0837CF
:10038C00BD4680BD0C00002000000020180000209D
:10039C00000C01400008014024000020A0000020B7
:1003AC003000002080B582B000AF00237B6005E0F8
:1003BC007868FFF739FF7B6801337B607B68022B21
:1003CC00F6DD00BF00BF0837BD4680BD80B500AF6D
:1003DC00002201210E4801F03CFC012202210C48B4
:1003EC0001F037FC01221021094801F032FC0122F6
:1003FC000121084801F02DFC01220221064801F0E0
:10040C0028FC00220121044801F023FC00BF80BD20
:10041C0000080140000C01400010014080B500AF05
:10042C00002201210E4801F014FC012202210C488B
:10043C0001F00FFC01221021094801F00AFC0122F5
:10044C000121084801F005FC00220221064801F0B8
:10045C0000FC01220121044801F0FBFB00BF80BD20
:10046C0000080140000C01400010014080B500AFB5
:10047C00012201210E4801F0ECFB012202210C4863
:10048C0001F0E7FB00221021094801F0E2FB0022F9
:10049C000121084801F0DDFB01220221064801F090
:1004AC00D8FB01220121044801F0D3FB00BF80BD21
:1004BC0000080140000C01400010014080B500AF65
:1004CC00012201210E4801F0C4FB002202210C483C
:1004DC0001F0BFFB01221021094801F0BAFB0022F8
:1004EC000121084801F0B5FB01220221064801F068
:1004FC00B0FB01220121044801F0ABFB00BF80BD21
:10050C0000080140000C01400010014080B500AF14
:10051C00012201210D4801F09CFB02210B4801F046
:10052C00B0FB01221021094801F093FB01220121AB
:10053C00074801F08EFB0221064801F0A2FB0122C4
:10054C000121044801F085FB00BF80BD000801407B
:10055C00000C01400010014080B500AF01220121C8
:10056C000E4801F076FB002202210C4801F071FBD1
:10057C0001221021094801F06CFB012201210848DD
:10058C0001F067FB00220221064801F062FB012208
:10059C000121044801F05DFB00BF80BD0008014053
:1005AC00000C01400010014080B500AF01210E4845
:1005BC0001F067FB012202210B4801F04AFB0122EA
:1005CC001021094801F045FB01220121074801F0E7
:1005DC0040FB01220221064801F03BFB01210448AB
:1005EC0001F04FFB00BF80BD00080140000C014032
:1005FC000010014080B500AF012201210D4801F02F
:10060C0028FB012202210B4801F023FB1021094891
:10061C0001F037FB0121084801F033FB01220221D4
:10062C00064801F016FB01220121044801F011FBE0
:10063C0000BF80BD00080140000C014000100140CB
:10064C0080B582B000AF78607B68092B00F2948192
:10065C0001A252F823F000BF8D060008D90600084D
:10066C002507000871070008BD07000809080008E5
:10067C0055080008A1080008ED0800083909000811
:10068C0000220821BF4801F0E4FA00220421BD48F1
:10069C0001F0DFFA00224FF48061BA4801F0D9FA78
:1006AC0000220821B84801F0D4FA00222021B648D3
:1006BC0001F0CFFA00221021B34801F0CAFA01224E
:1006CC004FF48061B04801F0C4FA56E101220821D0
:1006DC00AC4801F0BEFA00220421AA4801F0B9FA94
:1006EC0000224FF48061A74801F0B3FA01220821DF
:1006FC00A54801F0AEFA01222021A34801F0A9FA85
:10070C0001221021A04801F0A4FA01224FF48061CB
:10071C009D4801F09EFA30E100220821994801F031
:10072C0098FA00220421974801F093FA01224FF421
:10073C008061944801F08DFA00220821924801F062
:10074C0088FA00222021904801F083FA012210211E
:10075C008D4801F07EFA00224FF480618A4801F046
:10076C0078FA0AE100220821864801F072FA002288
:10077C000421844801F06DFA00224FF48061814815
:10078C0001F067FA002208217F4801F062FA012289
:10079C0020217D4801F05DFA012210217A4801F0F8
:1007AC0058FA00224FF48061774801F052FAE4E0E5
:1007BC0001220821734801F04CFA002204217148EF
:1007CC0001F047FA00224FF480616E4801F041FAC3
:1007DC00012208216C4801F03CFA012220216A48D0
:1007EC0001F037FA00221021674801F032FA00229A
:1007FC004FF48061644801F02CFABEE0002208211D
:10080C00604801F026FA012204215E4801F021FA29
:10081C0000224FF480615B4801F01BFA0022082192
:10082C00594801F016FA01222021574801F011FA1B
:10083C0000221021544801F00CFA00224FF4806180
:10084C00514801F006FA98E0002208214D4801F0C9
:10085C0000FA012204214B4801F0FBF900224FF46D
:10086C008061484801F0F5F900220821464801F062
:10087C00F0F900222021444801F0EBF9002210216C
:10088C00414801F0E6F900224FF480613E4801F046
:10089C00E0F972E0002208213A4801F0DAF900226E
:1008AC000421384801F0D5F900224FF48061354815
:1008BC0001F0CFF901220821334801F0CAF90122D5
:1008CC002021314801F0C5F9012210212E4801F0F8
:1008DC00C0F901224FF480612B4801F0BAF94CE0C9
:1008EC0000220821274801F0B4F9002204212548F0
:1008FC0001F0AFF900224FF48061224801F0A9F910
:10090C0000220821204801F0A4F9002220211E48D1
:10091C0001F09FF9002210211B4801F09AF90022E6
:10092C004FF48061184801F094F926E00022082168
:10093C00144801F08EF900220421124801F089F9C3
:10094C0000224FF480610F4801F083F90022082146
:10095C000D4801F07EF9012220210B4801F079F9B4
:10096C0000221021084801F074F900224FF4806134
:10097C00054801F06EF900E000BF00BF0837BD4626
:10098C0080BD00BF00080140000C014080B500AFE5
:10099C001A4B1B68012B09D14FF4FA7000F010FBB5
:1009AC00174B1B68C3F10103154A1360144B1B68EA
:1009BC00002B10D100224FF40071124801F049F9BC
:1009CC0001228021104801F044F9104B1B68184695
:1009DC00FFF736FE0FE001224FF40071094801F0D9
:1009EC0038F900228021084801F033F9084B1B68C4
:1009FC001846FFF725FE00BF80BD00BFC8000020D1
:100A0C00AC0000200008014000100140B4000020A0
:100A1C00B800002080B500AF00224FF400710548EB
:100A2C0001F017F900228021034801F012F900BFF0
:100A3C0080BD00BF000801400010014080B500AF30
:100A4C00484B1B68032B00F2838001A252F823F061
:100A5C006D0A00089B0A0008230B0008C30A000853
:100A6C00404B01221A60404B01221A603F4B1B681D
:100A7C003F4A13603F4B1B683F4A13604FF47A7038
:100A8C0000F084FA4FF4FA7000F09AFA67E000F084
:100A9C00D1F9FFF77BFF0020FFF7ACFB0346002BDF
:100AAC0058D0304B03221A60FFF756FD4FF4FA7002
:100ABC0000F06CFA4EE0FFF7ADFF0020FFF7C0FD31
:100ACC002E4B1B68012B05D14FF4FA7000F05EFA27
:100ADC00FFF71CFD0020FFF78DFB0346002B3BD0DE
:100AEC00204B02221A60FFF72BFB254B01221A60C8
:100AFC00FFF76CFC1D4B1B681D4A13601D4B1B68DC
:100B0C001D4A13604FF4FA7000F040FA4FF4FA707B
:100B1C0000F056FA20E000F03DFBFFF737FF002015
:100B2C00FFF768FB0346002B18D00E4B01221A600E
:100B3C000D4B01221A600D4B1B680D4A13600D4BB7
:100B4C001B680D4A13604FF47A7000F01FFA05E031
:100B5C0000BF04E000BF02E000BF00E000BF00BF28
:100B6C0080BD00BFB0000020540000203C000020DD
:100B7C00B400002050000020B8000020C00000206D
:100B8C006000002080B500AF00F058FD00F00CF8BC
:100B9C0000F046F800F090F8024801F0B7FCFFF7BF
:100BAC004DFFFCE7D400002080B590B000AF07F1FA
:100BBC00180328220021184602F07AF83B1D002267
:100BCC001A605A609A60DA601A610223BB610123D1
:100BDC00BB621023FB6200237B6307F118031846EA
:100BEC0001F068F80346002B01D000F001F90F2347
:100BFC007B600023BB600023FB6000233B61002370
:100C0C007B613B1D0021184601F0D4FA0346002BF2
:100C1C0001D000F0EDF800BF4037BD4680BD0000AC
:100C2C0080B586B000AF07F1080300221A605A6045
:100C3C009A60DA603B4600221A605A601D4B4FF0F6
:100C4C0080421A601B4B41F63F725A60194B0022CE
:100C5C009A60184B0922DA60164B00221A61154B68
:100C6C0000229A61134801F001FC0346002B01D0CD
:100C7C0000F0BEF84FF48053BB6007F1080319462F
:100C8C000C4801F09DFD0346002B01D000F0B0F89C
:100C9C0000233B6000237B603B461946054801F06E
:100CAC0073FF0346002B01D000F0A2F800BF1837E9
:100CBC00BD4680BDD400002080B588B000AF07F1E0
:100CCC00100300221A605A609A60DA603E4B9B69EE
:100CDC003D4A43F0100393613B4B9B6903F01003B7
:100CEC00FB60FB68384B9B69374A43F00403936104
:100CFC00354B9B6903F00403BB60BB68324B9B69AB
:100D0C00314A43F0080393612F4B9B6903F00803AE
:100D1C007B607B68002283212C4800F09AFF002224
:100D2C0040F21F612A4800F094FF002240F2394142
:100D3C00284800F08EFF83233B6101237B61002355
:100D4C00BB610223FB6107F1100319461F4800F039
:100D5C00E5FD40F21F633B6101237B610023BB6116
:100D6C000223FB6107F110031946194800F0D6FD68
:100D7C00C0233B6100237B610123BB6107F110039E
:100D8C001946134800F0CAFD40F239433B61012378
:100D9C007B610023BB610223FB6107F11003194641
:100DAC000C4800F0BBFD40233B6100237B61012319
:100DBC00BB6107F110031946064800F0AFFD00BFF8
:100DCC002037BD4680BD00BF00100240001001401E
:100DDC0000080140000C014080B582B000AF786083
:100DEC0000F008F9FFF7DEFA00BF0837BD4680BDFA
:100DFC0080B400AF72B600BFFEE7000080B400AF55
:100E0C000A4B1B68002B04DD084B1B68013B074A8F
:100E1C001360074B1B68002B04DD054B1B68013B63
:100E2C00034A136000BFBD4680BC7047B40000206D
:100E3C00B800002080B500AF4A4B1B68013B032B68
:100E4C0000F2848001A252F823F000BF690E000862
:100E5C00A10E0008E10E0008190F0008FFF7B6FA02
:100E6C00414B1B68012B05D14FF47A7000F08EF8C2
:100E7C00FFF7C4FF3D4B1B68002B69DC394B02228A
:100E8C001A603B4B1B68394A13604FF47A7000F0C0
:100E9C007DF85DE0FFF7C2FA334B1B68012B05D1DF
:100EAC004FF47A7000F072F8FFF7A8FF2F4B1B6815
:100EBC00002B4FDC2B4B03221A602E4B1B682E4A47
:100ECC0013602E4B1B68294A13604FF47A7000F0A4
:100EDC005DF83FE0FFF7CAFA234B1B68012B05D1E5
:100EEC004FF47A7000F052F8FFF788FF224B1B6822
:100EFC00002B31DC1B4B04221A60214B1B681E4A51
:100F0C0013604FF47A7000F041F825E0FFF7D6FA41
:100F1C00154B1B68012B05D14FF47A7000F036F895
:100F2C00FFF76CFF144B1B68002B17DC0D4B0122D9
:100F3C001A60144B1B68104A1360134B1B680B4A46
:100F4C0013604FF47A7000F021F807E000BF06E060
:100F5C0000BF04E000BF02E000BF00E000BF00BF24
:100F6C0080BD00BF54000020C0000020B80000204D
:100F7C004C00002044000020B40000204800002059
:100F8C00400000203C0000205000002080B483B0C2
:100F9C0000AF7860074B1B687A6892FBF3F3064A44
:100FAC001360064B00221A6000BF0C37BD4680BC94
:100FBC00704700BF58000020BC000020C00000207B
:100FCC0080B483B000AF7860074B1B687A6892FBE3
:100FDC00F3F3064A1360064B00221A6000BF0C376D
:100FEC00BD4680BC704700BF58000020C4000020E4
:100FFC00C800002080B400AF194B1B68002B0BDD20
:10100C00174B1B68013B164A1360154B1B68002BD2
:10101C0002DC144B01221A60134B1B68002B0BDDF6
:10102C00114B1B68013B104A13600F4B1B68002BC4
:10103C0002DC0E4B01221A600D4B1B68002B0BDDE2
:10104C000B4B1B68013B0A4A1360094B1B68002BB6
:10105C0002DC084B01221A6000BFBD4680BC704701
:10106C00BC000020C0000020C4000020C8000020EC
:10107C00CC000020D000002080B485B000AF154B10
:10108C009B69144A43F001039361124B9B6903F073
:10109C000103BB60BB680F4BDB690E4A43F0805306
:1010AC00D3610C4BDB6903F080537B607B680A4B8C
:1010BC005B68FB60FB6823F0E063FB60FB6843F05C
:1010CC000073FB60044AFB68536000BF1437BD46D5
:1010DC0080BC7047001002400000014080B584B015
:1010EC0000AF78607B681B68B3F1804F13D10C4B59
:1010FC00DB690B4A43F00103D361094BDB6903F055
:10110C000103FB60FB68002200211C2000F0CFFBD8
:10111C001C2000F0E8FB00BF1037BD4680BD00BFAF
:10112C000010024080B400AFFEE780B400AFFEE7D1
:10113C0080B400AFFEE780B400AFFEE780B400AF30
:10114C00FEE780B400AF00BFBD4680BC704780B4E2
:10115C0000AF00BFBD4680BC704780B400AF00BF7D
:10116C00BD4680BC704780B500AF00F0ADFA00BF43
:10117C0080BD000080B500AF024801F019FA00BF35
:10118C0080BD00BFD400002080B400AF00BFBD46BE
:10119C0080BC704780B500AF4A4B1B68032B00F036
:1011AC008581032B00F30882012B03D0022B00F066
:1011BC00998001E2444B1B68012B05D14FF4FA7066
:1011CC00FFF7E4FEFFF7F0F90120FEF7F9FF034605
:1011DC00002B05D10120FFF70DF80346002B25D07D
:1011EC003A4B1B680133394A1360384B1B68092B87
:1011FC0002DD364B00221A60344B1A68344B1B68E4
:10120C00D31A344A1360334B1B68002B06DA304B6D
:10121C001B682E4A13602F4B00221A602B4B1B6845
:10122C002D4A13602B4B1B682C4A13600220FEF7CF
:10123C00C7FF0346002B05D10220FEF7DBFF034658
:10124C00002B25D0214B1B68013B204A13601F4B00
:10125C001B68002B02DA1D4B09221A601B4B1A6803
:10126C001B4B1B68D31A1B4A13601A4B1B68002BB1
:10127C0006DA174B1B68154A1360164B00221A60CE
:10128C00124B1B68144A1360124B1B68134A1360F1
:10129C000020FEF795FF0346002B00F08F81094BD1
:1012AC0002221A60FFF758F90D4B1B680A4A1360AB
:1012BC00074B1B68094A13604FF4FA70FFF766FE80
:1012CC007CE100BF60000020C00000203C0000203A
:1012DC004C00002050000020B4000020B80000207A
:1012EC0040000020674B1B68012B05D14FF4FA70AE
:1012FC00FFF74CFEFFF70AF90120FEF761FF0346EA
:10130C00002B05D10120FEF775FF0346002B49D0B9
:10131C005D4B1B6801335C4A13605B4B1B68092BEC
:10132C0002DD594B00221A60574B1B68574A136059
:10133C00574B1A68544B1B681344564A1360554B51
:10134C001B68092B0DDD534B09221A60514B1A688F
:10135C004F4B1B68D31A4C4A13604B4B1B684B4AC0
:10136C0013604D4B1A68494B1B6813444B4A13606E
:10137C004A4B1B68092B0DDD484B09221A60474B61
:10138C001A68454B1B68D31A404A13603F4B1B68C5
:10139C003D4A13603C4B1B68414A13603B4B1B6836
:1013AC00404A13600220FEF70BFF0346002B05D1C9
:1013BC000220FEF71FFF0346002B49D0324B1B685F
:1013CC00013B314A1360304B1B68002B02DA2E4B69
:1013DC0009221A602C4B1B682C4A13602C4B1A6880
:1013EC00294B1B6813442B4A13602A4B1B68092B8F
:1013FC000DDD284B09221A60264B1A68244B1B68FA
:10140C00D31A214A1360204B1B68204A1360224BCD
:10141C001A681E4B1B681344204A13601F4B1B6831
:10142C00092B0DDD1D4B09221A601C4B1A681A4B37
:10143C001B68D31A154A1360144B1B68124A1360AD
:10144C00114B1B68164A1360104B1B68154A13602E
:10145C000020FEF7B5FE0346002B00F0B180124BC6
:10146C0003221A60FFF702F8094B1B680C4A136041
:10147C00084B1B680B4A13604FF4FA70FFF786FD9C
:10148C009EE000BFC0000020400000204C00002067
:10149C004400002048000020500000203C000020A8
:1014AC00B4000020B800002060000020474B1B68EF
:1014BC00012B05D14FF4FA70FFF768FDFFF79AF88E
:1014CC000120FEF77DFE0346002B05D10120FEF71F
:1014DC0091FE0346002B25D03D4B1B6801333C4A43
:1014EC0013603B4B1B68092B02DD394B00221A6041
:1014FC00374B1A68374B1B68D31A374A1360364B75
:10150C001B68002B06DA334B1B68314A1360324BD5
:10151C0000221A60304B1B68304A13602C4B1B683E
:10152C002F4A13600220FEF74BFE0346002B05D119
:10153C000220FEF75FFE0346002B25D0244B1B68D0
:10154C00013B234A1360224B1B68002B02DA204B11
:10155C0009221A601E4B1A681E4B1B68D31A1E4AAE
:10156C0013601D4B1B68002B06DA1A4B1B68184ABC
:10157C001360194B00221A60174B1B68174A136033
:10158C00134B1B68164A13600020FEF719FE034626
:10159C00002B17D0134B01221A60FEF717FF124BCA
:1015AC001B680E4A1360114B1B680D4A13604FF4F5
:1015BC00FA70FFF7EBFC05E000BF04E000BF02E0AF
:1015CC0000BF00E000BF00BF80BD00BFC000002016
:1015DC00480000204000002044000020B4000020FF
:1015EC00B8000020600000203C00002050000020CB
:1015FC00FFF7CAFD0B480C490C4A002302E0D458F3
:10160C00C4500433C4188C42F9D3094A094C002342
:10161C0001E013600432A242FBD301F025FBFFF77B
:10162C00B1FA7047000000206C000020102D00085B
:10163C006C00002020010020FEE7000080B500AF08
:10164C00084B1B68074A43F010031360032000F09B
:10165C0023F90F2000F008F8FFF70EFD00231846C1
:10166C0080BD00BF0020024080B582B000AF786022
:10167C00124B1A68124B1B7819464FF47A73B3FB52
:10168C00F1F3B2FBF3F3184600F03BF90346002BE1
:10169C0001D001230EE07B680F2B0AD80022796859
:1016AC004FF0FF3000F003F9064A7B68136000230B
:1016BC0000E0012318460837BD4680BD5C000020C1
:1016CC00680000206400002080B400AF054B1B783C
:1016DC001A46054B1B681344034A136000BFBD46F2
:1016EC0080BC7047680000201C01002080B400AF53
:1016FC00024B1B681846BD4680BC70471C0100207D
:10170C0080B485B000AF78607B6803F00703FB60A2
:10171C000C4BDB68BB60BA684FF6FF031340BB6031
:10172C00FB681A02BB68134343F0BF6343F40033F6
:10173C00BB60044ABB68D36000BF1437BD4680BC95
:10174C00704700BF00ED00E080B400AF044BDB68D5
:10175C001B0A03F007031846BD4680BC704700BF48
:10176C0000ED00E080B483B000AF0346FB7197F945
:10177C000730002B0BDBFB7903F01F02064997F9AE
:10178C0007305B09012000FA02F241F8232000BF68
:10179C000C37BD4680BC704700E100E080B483B0DC
:1017AC0000AF03463960FB7197F90730002B0ADB59
:1017BC003B68DAB20C4997F907301201D2B20B44EC
:1017CC0083F800230AE03B68DAB20849FB7903F09E
:1017DC000F03043B1201D2B20B441A7600BF0C3734
:1017EC00BD4680BC704700BF00E100E000ED00E0AA
:1017FC0080B489B000AFF860B9607A60FB6803F020
:10180C000703FB61FB69C3F10703042B28BF042307
:10181C00BB61FB690433062B02D9FB69033B00E077
:10182C0000237B614FF0FF32BB6902FA03F3DA430A
:10183C00BB681A407B699A404FF0FF317B6901FA13
:10184C0003F3D9437B680B40134318462437BD463A
:10185C0080BC704780B582B000AF78607B68013B7C
:10186C00B3F1807F01D301230FE00A4A7B68013B6F
:10187C0053600F214FF0FF30FFF790FF054B002214
:10188C009A60044B07221A60002318460837BD469D
:10189C0080BD00BF10E000E080B582B000AF786082
:1018AC007868FFF72DFF00BF0837BD4680BD80B5B7
:1018BC0086B000AF0346B9607A60FB7300237B618E
:1018CC00FFF742FF78617A68B9687869FFF790FF93
:1018DC00024697F90F3011461846FFF75FFF00BF1D
:1018EC001837BD4680BD80B582B000AF0346FB7192
:1018FC0097F907301846FFF735FF00BF0837BD468C
:10190C0080BD80B582B000AF78607868FFF7A2FF29
:10191C00034618460837BD4680BD000080B48BB026
:10192C0000AF7860396000237B6200233B6269E181
:10193C0001227B6A02FA03F3FB613B681B68FA69BC
:10194C001340BB61BA69FB699A4240F058813B680D
:10195C005B689A4A93425ED0984A934275D8984AEB
:10196C00934258D0964A93426FD8964A934252D09B
:10197C00944A934269D8944A93424CD0924A9342E7
:10198C0063D8924A934246D0904A93425DD8122B28
:10199C002AD8122B59D801A252F823F0231A000886
:1019AC00FD1900080F1A0008511A0008571A0008F0
:1019BC00571A0008571A0008571A0008571A000837
:1019CC00571A0008571A0008571A0008571A000827
:1019DC00571A0008571A0008571A0008571A000817
:1019EC00051A0008191A0008794A934213D02CE002
:1019FC003B68DB683B6229E03B68DB6804333B6295
:101A0C0024E03B68DB6808333B621FE03B68DB6823
:101A1C000C333B621AE03B689B68002B02D1042319
:101A2C003B6213E03B689B68012B05D108233B62AA
:101A3C007B68FA691A6109E008233B627B68FA69E2
:101A4C005A6103E000233B6200E000BFBB69FF2B3F
:101A5C0001D87B6801E07B6804337B61BB69FF2B99
:101A6C0002D87B6A9B0002E07B6A083B9B003B61CF
:101A7C007B691A680F213B6901FA03F3DB431A40B7
:101A8C00396A3B6901FA03F31A437B691A603B68B4
:101A9C005B6803F08053002B00F0B1804D4B9B69C9
:101AAC004C4A43F0010393614A4B9B6903F00103D9
:101ABC00BB60BB68484A7B6A9B08023352F82330F0
:101ACC00FB607B6A03F003039B000F2202FA03F313
:101ADC00DB43FA681340FB607B68404A934213D0A7
:101AEC007B683F4A93420DD07B683E4A934207D0B5
:101AFC007B683D4A934201D1032306E0042304E0B2
:101B0C00022302E0012300E000237A6A02F00302C0
:101B1C0092009340FA681343FB602F497B6A9B0841
:101B2C000233FA6841F823203B685B6803F48013A6
:101B3C00002B06D02D4B9A682C49BB6913438B6044
:101B4C0006E02A4B9A68BB69DB43284913408B603B
:101B5C003B685B6803F40013002B06D0234BDA6858
:101B6C002249BB691343CB6006E0204BDA68BB69A2
:101B7C00DB431E491340CB603B685B6803F40033C6
:101B8C00002B06D0194B5A681849BB6913434B609C
:101B9C0006E0164B5A68BB69DB43144913404B6093
:101BAC003B685B6803F48033002B21D00F4B1A6821
:101BBC000E49BB6913430B6021E000BF00003210DB
:101BCC000000311000002210000021100000121043
:101BDC0000001110001002400000014000080140FC
:101BEC00000C0140001001400014014000040140B1
:101BFC000B4B1A68BB69DB43094913400B607B6ACA
:101C0C0001337B623B681A687B6A22FA03F3002B70
:101C1C007FF48EAE00BF00BF2C37BD4680BC704732
:101C2C000004014080B485B000AF78600B467B8027
:101C3C007B689A687B881340002B02D00123FB73CE
:101C4C0001E00023FB73FB7B18461437BD4680BCB8
:101C5C00704780B483B000AF78600B467B8013462E
:101C6C007B707B78002B03D07A887B681A6103E049
:101C7C007B881A047B681A6100BF0C37BD4680BC98
:101C8C00704780B485B000AF78600B467B807B6872
:101C9C00DB68FB607A88FB6813401A04FB68D94345
:101CAC007B880B401A437B681A6100BF1437BD4612
:101CBC0080BC704780B586B000AF78607B68002B25
:101CCC0001D101236CE27B681B6803F00103002B3C
:101CDC0000F08780924B5B6803F00C03042B0CD054
:101CEC008F4B5B6803F00C03082B12D18C4B5B6899
:101CFC0003F48033B3F5803F0BD1894B1B6803F49D
:101D0C000033002B6CD07B685B68002B68D10123FF
:101D1C0046E27B685B68B3F5803F06D1804B1B685D
:101D2C007F4A43F4803313602EE07B685B68002BA2
:101D3C000CD17B4B1B687A4A23F480331360784BAD
:101D4C001B68774A23F4802313601DE07B685B6873
:101D5C00B3F5A02F0CD1724B1B68714A43F480234E
:101D6C0013606F4B1B686E4A43F4803313600BE0B7
:101D7C006B4B1B686A4A23F480331360684B1B68F7
:101D8C00674A23F4802313607B685B68002B13D0B5
:101D9C00FFF7ACFC386108E0FFF7A8FC02463B6992
:101DAC00D31A642B01D90323FAE15D4B1B6803F4AE
:101DBC000033002BF0D014E0FFF798FC386108E0FA
:101DCC00FFF794FC02463B69D31A642B01D9032319
:101DDC00E6E1534B1B6803F40033002BF0D100E019
:101DEC0000BF7B681B6803F00203002B63D04C4BD5
:101DFC005B6803F00C03002B0BD0494B5B6803F0C2
:101E0C000C03082B1CD1464B5B6803F48033002B6E
:101E1C0016D1434B1B6803F00203002B05D07B68E3
:101E2C001B69012B01D00123BAE13D4B1B6823F048
:101E3C00F8027B685B69DB00394913430B603AE0BD
:101E4C007B681B69002B20D0364B01221A60FFF7F0
:101E5C004DFC386108E0FFF749FC02463B69D31A98
:101E6C00022B01D903239BE12D4B1B6803F00203CA
:101E7C00002BF0D02A4B1B6823F0F8027B685B69BF
:101E8C00DB00274913430B6015E0264B00221A6038
:101E9C00FFF72CFC386108E0FFF728FC02463B6991
:101EAC00D31A022B01D903237AE11D4B1B6803F0D3
:101EBC000203002BF0D17B681B6803F00803002B96
:101ECC003AD07B689B69002B19D0174B01221A6002
:101EDC00FFF70CFC386108E0FFF708FC02463B6991
:101EEC00D31A022B01D903235AE10D4B5B6A03F081
:101EFC000203002BF0D0012000F09AFA1CE00A4BF0
:101F0C0000221A60FFF7F2FB38610FE0FFF7EEFBDF
:101F1C0002463B69D31A022B08D9032340E100BFC8
:101F2C000010024000004242800442429E4B5B6A19
:101F3C0003F00203002BE9D17B681B6803F0040358
:101F4C00002B00F0A6800023FB75974BDB6903F098
:101F5C008053002B0DD1944BDB69934A43F0805393
:101F6C00D361914BDB6903F08053BB60BB680123E9
:101F7C00FB758E4B1B6803F48073002B18D18B4BB5
:101F8C001B688A4A43F480731360FFF7AFFB386118
:101F9C0008E0FFF7ABFB02463B69D31A642B01D96F
:101FAC000323FDE0814B1B6803F48073002BF0D0FE
:101FBC007B68DB68012B06D17B4B1B6A7A4A43F0AA
:101FCC00010313622DE07B68DB68002B0CD1764B90
:101FDC001B6A754A23F001031362734B1B6A724A26
:101FEC0023F0040313621CE07B68DB68052B0CD127
:101FFC006D4B1B6A6C4A43F0040313626A4B1B6AF9
:10200C00694A43F0010313620BE0674B1B6A664A93
:10201C0023F001031362644B1B6A634A23F004032D
:10202C0013627B68DB68002B15D0FFF75FFB386110
:10203C000AE0FFF75BFB02463B69D31A41F2883298
:10204C00934201D90323ABE0574B1B6A03F0020305
:10205C00002BEED014E0FFF749FB38610AE0FFF7E4
:10206C0045FB02463B69D31A41F28832934201D9AF
:10207C00032395E04C4B1B6A03F00203002BEED1BB
:10208C00FB7D012B05D1484BDB69474A23F080537C
:10209C00D3617B68DB69002B00F08180424B5B686D
:1020AC0003F00C03082B61D07B68DB69022B46D153
:1020BC003F4B00221A60FFF719FB386108E0FFF76D
:1020CC0015FB02463B69D31A022B01D9032367E0A7
:1020DC00354B1B6803F00073002BF0D17B681B6A37
:1020EC00B3F5803F08D1304B5B6823F400327B683A
:1020FC009B682D4913434B602B4B5B6823F4741284
:10210C007B68196A7B685B6A0B43274913434B60F6
:10211C00274B01221A60FFF7E9FA386108E0FFF754
:10212C00E5FA02463B69D31A022B01D9032337E0A7
:10213C001D4B1B6803F00073002BF0D02FE01C4BE1
:10214C0000221A60FFF7D2FA386108E0FFF7CEFAE6
:10215C0002463B69D31A022B01D9032320E0124B10
:10216C001B6803F00073002BF0D118E07B68DB696F
:10217C00012B01D1012313E00B4B5B68FB60FB6867
:10218C0003F480327B681B6A9A4206D1FB6803F425
:10219C0070127B685B6A9A4201D0012300E0002335
:1021AC0018461837BD4680BD001002400070004034
:1021BC006000424280B584B000AF786039607B68C3
:1021CC00002B01D10123D0E06A4B1B6803F00703FD
:1021DC003A689A4210D9674B1B6823F0070265498D
:1021EC003B6813430B60634B1B6803F007033A68AF
:1021FC009A4201D00123B8E07B681B6803F002030C
:10220C00002B20D07B681B6803F00403002B05D047
:10221C00594B5B68584A43F4E06353607B681B6816
:10222C0003F00803002B05D0534B5B68524A43F470
:10223C0060535360504B5B6823F0F0027B689B68E3
:10224C004D4913434B607B681B6803F00103002B63
:10225C0040D07B685B68012B07D1474B1B6803F4AC
:10226C000033002B15D101237FE07B685B68022BC8
:10227C0007D1414B1B6803F00073002B09D10123DC
:10228C0073E03D4B1B6803F00203002B01D10123CB
:10229C006BE0394B5B6823F003027B685B68364963
:1022AC0013434B60FFF722FAF8600AE0FFF71EFABF
:1022BC000246FB68D31A41F28832934201D90323B8
:1022CC0053E02D4B5B6803F00C027B685B689B0052
:1022DC009A42EBD1274B1B6803F007033A689A42EA
:1022EC0010D2244B1B6823F0070222493B6813438E
:1022FC000B60204B1B6803F007033A689A4201D02D
:10230C00012332E07B681B6803F00403002B08D028
:10231C00194B5B6823F4E0627B68DB681649134356
:10232C004B607B681B6803F00803002B09D0124B31
:10233C005B6823F460527B681B69DB000E49134316
:10234C004B6000F021F802460B4B5B681B0903F055
:10235C000F030A49CB5C22FA03F3094A1360094BB9
:10236C001B681846FFF780F9002318461037BD4646
:10237C0080BD00BF0020024000100240E42C000889
:10238C005C0000206400002080B487B000AF002304
:10239C00FB600023BB6000237B6100237B60002378
:1023AC003B611E4B5B68FB60FB6803F00C03042B6A
:1023BC0002D0082B03D027E0194B3B6127E0FB68C8
:1023CC009B0C03F00F03174AD35C7B60FB6803F490
:1023DC008033002B10D0114B5B685B0C03F00103B6
:1023EC00114AD35CBB607B680D4A02FB03F2BB68ED
:1023FC00B2FBF3F37B6104E07B680C4A02FB03F352
:10240C007B617B693B6102E0054B3B6100BF3B6933
:10241C0018461C37BD4680BC704700BF00100240F8
:10242C0000127A00F42C0008042D000800093D006D
:10243C0080B485B000AF78600A4B1B680A4AA2FBD7
:10244C0003235B0A7A6802FB03F3FB6000BFFB68A3
:10245C005A1EFA60002BF9D100BF00BF1437BD46DD
:10246C0080BC70475C000020D34D621080B582B0F8
:10247C0000AF78607B68002B01D1012341E07B68C1
:10248C0093F83D30DBB2002B06D17B68002283F839
:10249C003C207868FEF722FE7B68022283F83D2000
:1024AC007B681A687B6804331946104600F074FA8E
:1024BC007B68012283F846207B68012283F83E204A
:1024CC007B68012283F83F207B68012283F840203F
:1024DC007B68012283F841207B68012283F842202B
:1024EC007B68012283F843207B68012283F8442017
:1024FC007B68012283F845207B68012283F83D200C
:10250C00002318460837BD4680BD000080B485B056
:10251C0000AF78607B6893F83D30DBB2012B01D0C3
:10252C0001233AE07B68022283F83D207B681B681C
:10253C00DA687B681B6842F00102DA607B681B6812
:10254C00184A93420ED07B681B68B3F1804F09D0B8
:10255C007B681B68144A934204D07B681B68134A3F
:10256C00934211D17B681B689B6803F00703FB60E7
:10257C00FB68062B10D07B681B681A687B681B688D
:10258C0042F001021A6007E07B681B681A687B68DE
:10259C001B6842F001021A60002318461437BD462E
:1025AC0080BC7047002C0140000400400008004033
:1025BC0080B582B000AF78607B681B681B6903F044
:1025CC000203022B22D17B681B68DB6803F0020339
:1025DC00022B1BD17B681B686FF002021A617B68AF
:1025EC0001221A777B681B689B6903F00303002B9D
:1025FC0003D0786800F0B4F905E0786800F0A7F92A
:10260C00786800F0B6F97B6800221A777B681B6843
:10261C001B6903F00403042B22D17B681B68DB6865
:10262C0003F00403042B1BD17B681B686FF00402BE
:10263C001A617B6802221A777B681B689B6903F41A
:10264C004073002B03D0786800F08AF905E07868B5
:10265C0000F07DF9786800F08CF97B6800221A771D
:10266C007B681B681B6903F00803082B22D17B686D
:10267C001B68DB6803F00803082B1BD17B681B6805
:10268C006FF008021A617B6804221A777B681B685A
:10269C00DB6903F00303002B03D0786800F060F9CA
:1026AC0005E0786800F053F9786800F062F97B680F
:1026BC0000221A777B681B681B6903F01003102B30
:1026CC0022D17B681B68DB6803F01003102B1BD135
:1026DC007B681B686FF010021A617B6808221A77FE
:1026EC007B681B68DB6903F44073002B03D07868AC
:1026FC0000F036F905E0786800F029F9786800F008
:10270C0038F97B6800221A777B681B681B6903F019
:10271C000103012B0ED17B681B68DB6803F00103FE
:10272C00012B07D17B681B686FF001021A61786876
:10273C00FEF752FB7B681B681B6903F08003802B40
:10274C000ED17B681B68DB6803F08003802B07D1FC
:10275C007B681B686FF080021A61786800F07BFA66
:10276C007B681B681B6903F04003402B0ED17B6810
:10277C001B68DB6803F04003402B07D17B681B68A8
:10278C006FF040021A61786800F0FCF87B681B68F7
:10279C001B6903F02003202B0ED17B681B68DB68C0
:1027AC0003F02003202B07D17B681B686FF02002FD
:1027BC001A61786800F046FA00BF0837BD4680BD44
:1027CC0080B584B000AF786039600023FB737B6800
:1027DC0093F83C30012B01D10223B4E07B68012239
:1027EC0083F83C207B68022283F83D207B681B68C1
:1027FC009B68BB60BB6823F07703BB60BB6823F4AA
:10280C007F43BB607B681B68BA689A603B681B6837
:10281C00B3F5005F3ED0B3F5005F00F28780B3F5EF
:10282C00805F00F08680B3F5805F7FD8702B1AD064
:10283C00702B7BD8602B50D0602B77D8502B3CD092
:10284C00502B73D8402B58D0402B6FD8302B64D0E2
:10285C00302B6BD8202B60D0202B67D8002B5CD072
:10286C00102B5AD062E07B6818683B6899683B680B
:10287C005A683B68DB6800F068F97B681B689B68EA
:10288C00BB60BB6843F07703BB607B681B68BA68AE
:10289C009A604FE07B6818683B6899683B685A6897
:1028AC003B68DB6800F051F97B681B689A687B68B1
:1028BC001B6842F480429A603CE07B6818683B6875
:1028CC0059683B68DB681A4600F0C8F87B681B68DF
:1028DC005021184600F01FF92CE07B6818683B6803
:1028EC0059683B68DB681A4600F0E6F87B681B68A1
:1028FC006021184600F00FF91CE07B6818683B68F3
:10290C0059683B68DB681A4600F0A8F87B681B68BE
:10291C004021184600F0FFF80CE07B681A683B6811
:10292C001B681946104600F0F6F803E00123FB7310
:10293C0000E000BF7B68012283F83D207B68002209
:10294C0083F83C20FB7B18461037BD4680BD80B415
:10295C0083B000AF786000BF0C37BD4680BC7047B9
:10296C0080B483B000AF786000BF0C37BD4680BC2C
:10297C00704780B483B000AF786000BF0C37BD46A1
:10298C0080BC704780B483B000AF786000BF0C3758
:10299C00BD4680BC7047000080B485B000AF786045
:1029AC0039607B681B68FB607B68294A93420BD0BB
:1029BC007B68B3F1804F07D07B68264A934203D0E3
:1029CC007B68254A934208D1FB6823F07003FB60B7
:1029DC003B685B68FA681343FB607B681C4A934254
:1029EC000BD07B68B3F1804F07D07B68194A9342B8
:1029FC0003D07B68184A934208D1FB6823F44073D8
:102A0C00FB603B68DB68FA681343FB60FB6823F0F0
:102A1C0080023B685B691343FB607B68FA681A6051
:102A2C003B689A687B68DA623B681A687B689A62D2
:102A3C007B68074A934203D13B681A697B681A6327
:102A4C007B6801225A6100BF1437BD4680BC7047B9
:102A5C00002C0140000400400008004080B487B006
:102A6C0000AFF860B9607A60FB681B6A7B61FB6839
:102A7C001B6A23F00102FB681A62FB689B693B61CD
:102A8C003B6923F0F0033B617B681B013A691343FC
:102A9C003B617B6923F00A037B617A69BB68134352
:102AAC007B61FB683A699A61FB687A691A6200BFBC
:102ABC001C37BD4680BC704780B487B000AFF8604F
:102ACC00B9607A60FB681B6A7B61FB681B6A23F048
:102ADC001002FB681A62FB689B693B613B6923F43B
:102AEC0070433B617B681B033A6913433B617B6911
:102AFC0023F0A0037B61BB681B017A6913437B61E4
:102B0C00FB683A699A61FB687A691A6200BF1C37E4
:102B1C00BD4680BC704780B485B000AF786039602A
:102B2C007B689B68FB60FB6823F07003FB603A6872
:102B3C00FB68134343F00703FB607B68FA689A60F9
:102B4C0000BF1437BD4680BC704780B487B000AF5F
:102B5C00F860B9607A603B60FB689B687B617B695D
:102B6C0023F47F437B613B681A027B681A43BB6882
:102B7C0013437A6913437B61FB687A699A6000BFDF
:102B8C001C37BD4680BC704780B485B000AF786000
:102B9C0039607B6893F83C30012B01D1022346E06D
:102BAC007B68012283F83C207B68022283F83D205D
:102BBC007B681B685B68FB607B681B689B68BB6001
:102BCC00FB6823F07003FB603B681B68FA681343D7
:102BDC00FB607B681B68FA685A607B681B68164A46
:102BEC0093420ED07B681B68B3F1804F09D07B6891
:102BFC001B68124A934204D07B681B68104A9342AC
:102C0C000CD1BB6823F08003BB603B685B68BA687F
:102C1C001343BB607B681B68BA689A607B680122AF
:102C2C0083F83D207B68002283F83C200023184663
:102C3C001437BD4680BC7047002C01400004004096
:102C4C000008004080B483B000AF786000BF0C3740
:102C5C00BD4680BC704780B483B000AF786000BFC5
:102C6C000C37BD4680BC704770B500260C4D0D4C22
:102C7C00641BA410A64209D100F022F800260A4DCC
:102C8C000A4C641BA410A64205D170BD55F8043B38
:102C9C0098470136EEE755F8043B98470136F2E7C2
:102CAC00082D0008082D0008082D00080C2D000820
:102CBC0003460244934200D1704703F8011BF9E725
:102CCC00F8B500BFF8BC08BC9E467047F8B500BF0D
:082CDC00F8BC08BC9E467047DD
:102CE40000000000000000000102030406070809B8
:102CF40002030405060708090A0B0C0D0E0F101039
:042D040001020000C8
:042D0800310100088D
:042D0C000D010008AD
:102D100001000000010000000100000001000000AF
:102D2000010000000100000001000000010000009F
:102D3000010000000100000001000000010000008F
:102D4000D0070000D0070000D007000006000000F8
:102D50000200000004000000060000000200000065
:102D600004000000010000000A0000000024F4003C
:0C2D700001000000100000000100000045
:04000005080015FDDD
:00000001FF
